:100000000C9411020C942E020C942E020C94E91DF7
:100010000C942E020C942E020C942E020C942E02A0
:100020000C942E020C942E020C940F230C94E323B8
:100030000C94661C0C942E020C942E020C942E022E
:100040000C942E020C942E020C942E020C942E0270
:100050000C942E020C94091D0C942E020C942E026A
:100060000C942E020C942E020C942E020C942E0250
:100070000C942E020C942E020C942E020C942E0240
:100080000C942E020C942E020C942E020C942E0230
:100090000C942E020C942E020C942E020C942E0220
:1000A0000C942E020C942E020C942E0214001A00B2
:1000B00008001500170004001600070009000A00D8
:1000C0001D001B0006001900050000222A00000088
:1000D000000000001C0018000C00120013000B00B0
:1000E0000D000E000F00334211001000364337217F
:1000F00038242C440041000000000000550000009E
:100100003602370256002F0230022602270257001D
:1001100000001E022F0030006700010001000000F7
:1001200000000000230224022202340035020000F5
:10013000200232001F02210200002D006400350061
:1001400000000100000000000000000000004A0064
:1001500052004D004B000000500051004F004E0077
:10016000000000000000000000000100010000008D
:10017000000000000000000000000000000000007F
:10018000000000000000000000000000000000006F
:1001900000000100010000000000000055002400E4
:1001A000250026005600540021002200230057009D
:1001B00027001E001F002000670001000100000052
:1001C000000000003A003B003C003D003E003F00C4
:1001D0004000410042004300440045000000000090
:1001E000000001000100000000000000010001000B
:1001F00001002900010001000100010028000100A8
:1002000001000100010001000100A8522B000000C4
:100210000000000001000100010001004C0001008D
:10022000E3000100010001000100010001000100E4
:1002300001000000AA5200000000000000000000C1
:10024000000000002A2B2800000000000000000031
:100250000000000000000029000000002C1E3420D7
:10026000212224342627252E362D3738271E1F20FD
:100270002122232425263333362E37381F04050642
:100280000708090A0B0C0D0E0F1011121314151686
:100290001718191A1B1C1D2F3130232D3504050684
:1002A0000708090A0B0C0D0E0F1011121314151666
:1002B0001718191A1B1C1D2F3130354C0000000077
:1002C000000000000000000000000000000000002E
:1002D000000000000000000000000000000000001E
:1002E0007E0F00D4FFFFFFC7000000781A0346000E
:1002F00065007200720069007300200073007700CF
:1003000065006500700000000803440050004200D2
:1003100000000403090409023B00020100A0FA09DD
:100320000400000103010100092111010001224420
:100330000007058103080001090401000103000012
:1003400000092111010001227B0007058203200022
:10035000011201000200000008ABC239390100019E
:1003600002000105010902A10185020901A10005A0
:100370000919012908150025019508750181020553
:1003800001093009311581257F950275088106091B
:10039000381581257F950175088106050C0A3802FC
:1003A0001581257F950175088106C0C0050109806A
:1003B000A101850319012AB700150126B70095018F
:1003C00075108100C0050C0901A101850419012ADD
:1003D000A002150126A002950175108100C005013B
:1003E0000906A101050719E029E71500250195086F
:1003F000750181029501750881010507190029FF22
:10040000150026FF009506750881000508190129C9
:10041000051500250195057501910295017503915A
:1004200001C011241FBECFEFDAE0DEBFCDBF11E067
:10043000A0E0B1E0E4E6FDE402C005900D92AA3C24
:10044000B107D9F722E0AAECB1E001C01D92A53CAA
:10045000B207E1F70E94A8140C9469260C940000DE
:100460008530B8F46830A8F4453098F450E095E051
:10047000699F400D511D1124FA0198E2899FE00DFA
:10048000F11D1124EE0FFF1FE455FF4F859194914C
:10049000089581E090E008950E94300208959C0143
:1004A0003A9521153F4150F5FC01EE27F170BC0152
:1004B00066277270AC01442754709C012227387063
:1004C00094FF0EC080E1EF2B09F480E0672B09F068
:1004D0008062452B09F08064232B89F080680895A1
:1004E00081E0EF2B09F480E0672B09F08260452B57
:1004F00009F08460232B19F08860089580E0089546
:10050000CF93DF93EB010E944F02FE010995DF912B
:10051000CF910895CF93DF93EC01805E9109089706
:1005200020F064E277E0209711F464EE74E0CE01ED
:100530000E9480028C2F0E944704DF91CF91089582
:10054000CF93DF93EC010E949004CE01805E91096D
:10055000089720F06BE277E0209711F46BEE74E0DF
:10056000CE010E948002DF91CF9108950F931F93D7
:10057000CF93DF938C01EB010E948A02209741F414
:10058000C8010E94A002DF91CF911F910F910895A1
:100590008FE99FE00197F1F700C000002197EECFAF
:1005A00070E060E08933910511F460E570E00E942D
:1005B000B602089581E008950E94DA02089581E06C
:1005C00008950E94DA0208950E94E10208950895B4
:1005D0000E94E7020895A6E0B0E0E1EFF2E00C949B
:1005E000C52549835A839E833091D10189819A819F
:1005F00031111AC03E81332399F0222389F00E94E1
:100600009708182F682F89819A810E947308698141
:100610007A81812F0E946A0F2696E3E00C94E125EF
:100620000E948508182FF3CF0E94970869817A816C
:10063000F1CFFC01262F4081518162817381848139
:1006400095810E94EB020895CF93DF93EC0161E066
:100650000E941903BE010E94DC02DF91CF91089530
:10066000CF93DF93EC0160E00E941903BE010E946A
:10067000E802DF91CF91089581E008950E943C0344
:100680000895CF93C82F0E9448078C2F0E943E03E5
:100690002FEF84E39CE0215080409040E1F700C0C0
:1006A0000000CF91089581E00E9441030E942D1D1A
:1006B000089580E00E9441030E943E1D08950F931B
:1006C0001F93CF93DF938C0161E00E941903EC012B
:1006D000B8010E94E402811106C080E0DF91CF9151
:1006E0001F910F910895B801CE010E94C81488236C
:1006F000A1F3B801CE010E94C61A882371F3B80194
:10070000CE010E948816882341F3B801CE010E94D1
:100710005E16882311F3F8018581882361F0C330C8
:10072000FCE7DF07E9F058F4C115ECE7DE07A9F0B4
:10073000C130DC47B9F0C8010E94DF02CFCFCB3512
:100740008CE7D807A9F0CC35ECE7DE0771F0CA35A5
:10075000DC4789F70E94B10CEECF0E945303BDCF56
:100760000E94B90C0E945903B8CF0E94A70CE3CF96
:100770000E94B50CE0CF0E94431C0E94E203089542
:100780000E94E6030E94481C0895089581E00895A0
:100790000895CF93DF93D82F0E94C603C82F8823D4
:1007A00019F08D2F0E94C8038C2FDF91CF910895EF
:1007B0000895CF93C82F0E94C5038C2F0E94C903B0
:1007C000CF91089580E00E94D90308950E940F1BE5
:1007D0000E94D9030895CF930E940F1BC82F8091C8
:1007E000CC018C1779F0C093CC010E94D21C60938D
:1007F000CD017093CE018093CF019093D0018C2FC7
:100800000E94D903CF910895ADE0B0E0EAE0F4E0B2
:100810000C94C625488759876A877B878C879D8774
:1008200091110E94E70B1F8286E0FE013896DE01DF
:10083000119601900D928A95E1F78D8181110DC07D
:1008400029813A814B815C816D817E818F810E94FB
:100850002E0B2D96E2E00C94E225CE0101960E942B
:1008600024038111EDCFF5CFFC012481213021F447
:10087000808191810E94C9080895662329F00E9411
:10088000E9170E94CE1808950E945518FACFCF9309
:10089000C82F882399F08CEF8C0F813A88F48C2F25
:1008A0000E949E1B882329F08C2F0E94E11B0E942E
:1008B000560C8C2F0E94D91B0E94560CCF91089584
:1008C00080E28C0F883048F4C77081E001C0880F47
:1008D000CA95EAF70E94C70BEFCFEBE5EC0FE330C8
:1008E00040F4F0E0E457FE4F808190E00E943F1B0F
:1008F000E5CFE8E5EC0FEB3150F4F0E0EE0FFF1F31
:10090000EA5AFE4F808191810E94641BD7CF83E316
:100910008C0F833198F661E08C2F0E943D04CECF7E
:10092000882381F19CEF980F913A28F40E94E11BF3
:100930000E94560C089590E2980F983050F48770FA
:1009400091E001C0990F8A95EAF7892F0E94CD0B9B
:10095000EFCF9BE5980F933028F490E080E00E9461
:100960003F1B089598E5980F9B3128F490E080E0B4
:100970000E94641B089593E3980F933118F460E08C
:100980000E943D0408951F93CF93DF93182FEB012E
:100990000E944704209739F4812F0E949004DF9130
:1009A000CF911F9108958FE99FE00197F1F700C063
:1009B00000002197EFCF70E060E0893311F460E52B
:1009C00070E00E94C3040895882321F00E94C70BA1
:1009D0000E94560C0895882321F00E94CD0B0E949E
:1009E000560C0895B0E0A0E0E8EFF4E00C94BF25C9
:1009F0006C01D62FC72FFC011581068102950F705F
:100A00000E94BD0BE82E8823F9F0E12E1123E1F0BE
:100A10008C2F807F803461F080E28D0F883008F168
:100A20008C2F807E803221F4D230D8F00023C9F0A0
:100A300080919E0282FF15C082E00E947B0C0E9482
:100A4000BD0B91E0E82EE926BC2EB2949FE0B922BE
:100A5000FBE0FB15B8F1EB2DF0E0E559F94D0C94F6
:100A6000B025E12CF1CF0C2F0F70C07F11F0029553
:100A7000007F112399F0002359F080E28D0F883018
:100A800010F0D11107C0802F0E94C70B0E94560C96
:100A90008D2F5AC0802F0E94DA0BF8CF8D2F0E9425
:100AA0009004002379F080E28D0F883010F0D1118E
:100AB00004C0802F0E94CD0B03C0802F0E94E00B4A
:100AC0000E94560CEB2DE850FF0B349720F40E9447
:100AD0000F1B0E94D903EE2089F00E94B90B80FD04
:100AE0000DC0F60115820E94B30B0E94D107C6010A
:100AF0000E9401070E94B30B0E94E107CDB7DEB749
:100B0000E9E00C94DB252C2F2F70F22EC07FC03231
:100B100019F0F29480EFF822DD2341F0D130D1F1C9
:100B2000112309F444C00023F1F0B2CF80919E025A
:100B300082FD15C0112359F0FF2029F08F2D0E944E
:100B4000C70B0E94560C80E00E944704BBCF80E098
:100B50000E949004FF2009F4B5CF8F2DABCF112355
:100B600069F0011104C08F2D0E94E404ABCF013065
:100B700009F0A8CF8F2D0E94FE0BA4CF0111A2CFA8
:100B80008F2D0E94EB048F2D0E940A0C8F2D0E9446
:100B9000EE0B98CF112321F0063008F093CFE3CF6E
:100BA000053008F08FCF8F2D0E94EB048BCF0023F0
:100BB000D1F3D93349F43FEF87EE93E031508040D1
:100BC0009040E1F700C000008D2F0E9490047ACF82
:100BD0008C2F86958695837069F0813009F072CFED
:100BE0008D2F9C2F9370111102C080E090E00E9425
:100BF000641B68CF8D2F9C2F9370111102C080E071
:100C000090E00E943F1B5ECF612F8D2F0E943D041C
:100C100059CF8C2F8370A1F5111154CF4D2F4295D0
:100C200046954770440F440F2D2F2F7030E0042E4F
:100C300002C0220F331F0A94E2F790E080E0D4FF55
:100C400009C08FE090E002C0880F991F4A95E2F733
:100C500080959095C695C695C370822B932BC23014
:100C600049F058F4C13019F00E94A1072BCF0E941F
:100C7000980728CF0E94AA0725CF0E94950722CF68
:100C80008695112311F08C2F8170882309F41ACFD7
:100C90004D2F429546954770440F440F2D2F2F70CE
:100CA00030E0042E02C0220F331F0A94E2F790E0D6
:100CB00080E0D4FF09C08FE090E002C0880F991F48
:100CC0004A95E2F780959095C695C695C370822B9C
:100CD000932BC23049F058F4C13019F00E940C082F
:100CE000F1CE0E940308EECE0E941508EBCE0E94C2
:100CF000B907E8CECF70112329F08C2F0E94D107BD
:100D00008D2F32CF8D2F0E94EB048C2F0E94E10794
:100D1000D9CED23F41F160F4D03FB9F0D13F81F05C
:100D2000112309F446C00111B3CE8C2F8F711FC05F
:100D3000D33F01F1D43FA1F780919E0282FD24C0F0
:100D40008C2F8F71112311F312C0112341F0053044
:100D500008F0B8CE8C2F8F710E94F307B3CE063007
:100D600008F0B0CEF7CF8C2F8F711111CFCF0E942A
:100D7000D107A8CE112329F08C2F8F710E94C507AF
:100D8000A1CE0E94C0079ECE112349F0CF718C2FB7
:100D90000E94D10763E08C2F0E945D0C93CE81E00E
:100DA0000E947B0C023008F48DCE82E00E947B0C06
:100DB00089CE002359F0D93309F006CFEFEFF7EED3
:100DC00023E0E150F0402040E1F7FCCE8C2F8F7102
:100DD0009DCF0F931F93CF93DF93EC0168817981AF
:100DE0008D810E94D4088C010E941E080E949407E5
:100DF000B801CE010E94F204DF91CF911F910F91B3
:100E00000895CF93DF93EC018C81882399F0CE0174
:100E10000E945F03811111C00E94BD0B882351F015
:100E20008D81882339F080919E0282FF03C082E089
:100E30000E947B0CDF91CF910895CE010E94E906BC
:100E4000CE010E943003F6CF882321F00E94DA0BF6
:100E50000E94560C0895882321F00E94E00B0E9406
:100E6000560C089590E080E00E943F1B90E080E0E7
:100E70000E94641B0E94E70B0E94560C0E94EA1815
:100E80000E94CE1808950E94E91B0E94320708951F
:100E90000E94D70B0E944307089592959F70963049
:100EA00091F058F4925F9F70923058F4803F19F09F
:100EB00030F4883E30F481E008959A5FF4CF843FA7
:100EC000D1F380E00895883EB0F3813FD1F7F3CFAE
:100ED000FC012481222339F0808191810E94C9087C
:100EE0000E944D07089580E00895A6E0B0E0EBE78A
:100EF000F7E00C94C6252696E2E00C94E225A7E0E4
:100F0000B0E0E5E8F7E00C94C6252796E2E00C9403
:100F1000E22508950E94890708950E948A07909308
:100F2000E9018093E801089508950E948D070895CE
:100F30002091E8013091E901822B932B0E948D07CB
:100F400008952091E8013091E901822393230E94C2
:100F50008D0708952091E8013091E90182279327B8
:100F60000E948D0708950E94890708950E94B30783
:100F700008950E94B6079093E7018093E6010895D3
:100F800090E080E00E94B907089521E030E0A901D7
:100F900002C0440F551F8A95E2F7CA010E94B907A3
:100FA000089521E030E002C0220F331F8A95E2F756
:100FB0008091E6019091E701822B932B0E94B90763
:100FC000089521E030E002C0220F331F8A95E2F736
:100FD000209530958091E6019091E701822393233B
:100FE0000E94B907089521E030E002C0220F331FAC
:100FF0008A95E2F78091E6019091E7018227932795
:101000000E94B90708952091E6013091E701822BF3
:10101000932B0E94B90708952091E6013091E701D2
:10102000822393230E94B90708952091E60130910D
:10103000E701822793270E94B90708950895262F74
:10104000277091E001C0990F2A95EAF723E0769581
:1010500067952A95E1F7660F771F660F771FFA01EC
:10106000E60FF71F50E040E0682F70E08191DF014C
:1010700011979B01042E02C0369527950A94E2F73A
:10108000217021952827292328272C934F5F5F4F14
:101090004430510559F70895A82FA77023E096957D
:1010A00087952A95E1F7880F991F880F991FFB01F3
:1010B000E80FF91F50E040E080E0219130E00A2E77
:1010C00002C0369527950A94E2F721703327042E43
:1010D00001C0220F0A94EAF7822B4F5F5F4F443022
:1010E000510559F70895262F983070F4853060F433
:1010F000682F70E085E0989F600D711D112442ED0E
:1011000051E0822F0E941F080895292F983068F41B
:10111000853058F490E062ED71E035E0239F800D5A
:10112000911D11240E944C08089580E00895B0E0BC
:10113000A0E0EDE9F8E00C94BF257C010091E60108
:101140001091E7018091E8019091E901082B192B9A
:10115000CFE0D0E0CC24C394D12CBC2EC6010C2E01
:1011600002C0880F991F0A94E2F780239123892BEC
:1011700049F4219790F7B12C8B2DCDB7DEB7E9E07C
:101180000C94DB25B7018C2F0E94760F019789F311
:10119000F3CFCF93DF93EC010E949708BE010E942A
:1011A000760FDF91CF9108951F93CF93DF93EB01DB
:1011B0009091D101992339F0CB010E94C908DF91A8
:1011C000CF911F910895882369F0CB010E94970861
:1011D000182F682FCE010E947308BE01812F0E9434
:1011E000760FEDCFCB010E948508182FF6CF1F9305
:1011F000CF93DF93C091EA0117E08091EB018C134C
:1012000004C0DF91CF911F910895D0E01C9FF001A1
:101210001D9FF00D1124E451FE4F20813181428148
:1012200053816481758186810E947F072196C770F2
:10123000E4CF209124023091250240912602509162
:101240002702609128027091290280912A020E944F
:101250007F070895CF93DF9380912A02807F09F062
:101260004DC080912902882309F448C0E091EA0129
:101270005091EB01C0912502D09124026091260289
:101280007091270247E05E17C9F18E2F90E0E49F2E
:10129000F0011124E451FE4F2481222391F1489F53
:1012A000F001499FF00D1124DF01A451BE4F1196AA
:1012B0002C9111972C1325C02C912D1322C015961B
:1012C0002C91159721111DC012962D913C91261B32
:1012D000370B283C3105A8F480912A028F70806179
:1012E00080932A02EE50FE4F80818F708061808350
:1012F00084E292E00E9401070E94F708DF91CF91FB
:101300000895FC013196E770BECF482F2091EA0185
:101310009091EB0157E0291302C080E0089530E07E
:10132000529FF001539FF00D1124E451FE4F818133
:10133000681306C08081481303C085818111EECFF8
:101340002F5F3F4F2770E7CFA4E1B0E0EAEAF9E072
:101350000C94BC258C0186E0F801DE011F960190FB
:101360000D928A95E1F7F8018481E58094E2A92E37
:1013700092E0B92E9091280291111FC08823D1F0DC
:10138000EE20A9F0C8010E946807F82E882379F0A2
:1013900087E0F801D50101900D928A95E1F7C5012A
:1013A0000E9434040E942A090E9419095FC0C801E2
:1013B0000E940107FF24F39459C0C080D18082802D
:1013C0009380F09029022091260230912702A401F7
:1013D000421B530BFF2009F4F9C0483C510508F0AB
:1013E000A7C0882309F442C09091250280912A0267
:1013F000282F207F09F05CC09D1116C09091240217
:10140000C91212C0E1104EC08F70806180932A0211
:101410000E94190984E292E00E94010780912A0249
:10142000F8018683F12C22C0E1103CC06D2D8C2D7B
:101430000E9485096D2D8C2D0E948509E82E811151
:10144000F1CFCF86D88A8F8598890E94C908292F25
:1014500022952F70243078F49F702230A8F09923C1
:10146000B9F0F8019681907F99F4FE2C8F2D649647
:10147000ECE00C94D8252A5F2F70223068F0C80168
:101480000E940107EF2CF1CF992311F0882369F313
:10149000805E883050F3F3CF803F38F3815F833034
:1014A00070F7E3CF80912A02816080932A02BACF3D
:1014B0009D1113C090912402C9120FC0E1100DC0FC
:1014C0008683C8010E94010787E0F801A4E2B2E028
:1014D00001900D928A95E1F767CFC8010E946807D5
:1014E000882309F464CFEE2009F461CF80912A02A9
:1014F000803288F020912402309125023987288794
:101500009B868A86909128029C871D868E87CE01B5
:1015100008960E94010787E0F801A4E2B2E001907A
:101520000D928A95E1F70E942A090E94190942CF7B
:1015300090912A02292F207FA1F4682D9A8A898A06
:10154000A6017A899E2D0E94750784E292E00E948E
:10155000010787E0F50111928A95E9F70E941909C0
:1015600061CF882309F482CF809125028D1110C0AC
:1015700080912402C8120CC0E1100AC09683C801F1
:101580000E94010787E0F50111928A95E9F76ECF75
:10159000C8010E946807882309F409CFEE2009F4E6
:1015A00006CF80912A02803208F4B5CF2091240220
:1015B000309125023A8329839C828B829091280264
:1015C0009D831E828F83CE010196A3CF483C510597
:1015D000B8F5882309F4EECEFE2CEE2009F4E7CE10
:1015E000809125028D111EC080912402C8121AC05C
:1015F00080912A0280FD0DC0982F907F51F0868344
:10160000903F09F45ECF982F907F905F8F70892B69
:1016100057CF87E0F801A4E2B2E001900D928A95DD
:10162000E1F724CFC8010E946807811174CF80912F
:101630002A02816080932A02C8010E94010716CF06
:10164000682D9A8A898AA6017A899E2D0E9475073B
:1016500087E0F50111928A95E9F7A6CEAEE0B0E0F9
:10166000E4E3FBE00C94C525288739874A875B872C
:101670006C877D878E87CE0108960E94A4098823F7
:10168000B1F06C85662341F0288539854A855B85F4
:101690007D858E850E947F0717E08091EA019091F9
:1016A000EB0189133DC02E96E3E00C94E12587E021
:1016B000FE013896DE01119601900D928A95E1F7B0
:1016C0008C85882349F32091EB0130E0C901019614
:1016D000877099274091EA014817190699F097E019
:1016E000929FD001939FB00D1124A451BE4FFE01D3
:1016F000319601900D929A95E1F78093EB010E944B
:10170000F708CACF0E9448071092EB011092EA0135
:1017100087E0E4E2F2E0DF011D928A95E9F7BCCFB1
:10172000819FC001112484519E4F0E94A4098823E7
:1017300009F4B9CFE091EA011E9FF0011124E451B0
:10174000FE4F208131814281538164817581868180
:101750000E947F078091EA0190E0019687709927A7
:101760008093EA019ACF809133028695869586957B
:101770000895809133028770089590913302977095
:1017800081E009F480E0089580913F0208959091EE
:101790003F02892B80933F020895809590913F02EC
:1017A000982390933F02089580933F0208951092EA
:1017B0003F02089590913E02892B80933E02089546
:1017C000809590913E02982390933E020895109246
:1017D0003E02089508950E94EA0B08959091340204
:1017E000292F282331F080958923809334020E9489
:1017F000EB0B089508950E94FA0B0895909135021D
:10180000292F2823281729F0982B909335020E941E
:10181000FB0B089590913502292F282331F08095F4
:101820008923809335020E94FB0B08958091350235
:10183000882329F01092350280E00E94FB0B089566
:101840000F931F93CF93DF9300910001109101013B
:10185000C0913F0280913E02C82B809135028823BF
:1018600031F0C82B0E94891B81110E94160CF801CF
:10187000C083C0910001D091010148E050E06BE2CB
:1018800072E0CE010E940126892B59F088E0FE010A
:10189000ABE2B2E001900D928A95E1F7CE010E9491
:1018A000261BDF91CF911F910F9108950E94200C6C
:1018B000089508950E94590C089590919E0292FFF8
:1018C00011C098E0899F90011124622B609333022C
:1018D0000E94D107809133028695869586950E9455
:1018E0005A0C08950E94D10708951092330280E0A7
:1018F0000E945A0C08959091330280958923809319
:101900003302282F277069F4891759F090919E02AD
:1019100092FF07C08695869586950E94E1070E94F2
:10192000750C089590919E0292FB222720F92817AA
:1019300069F080FB92F990939E0280919D029091B4
:101940009E020E94DA0C82E00E947B0C0895809136
:101950009E0282FB882780F991E089270E94920CE1
:10196000089581E00E94920C089580E00E94920CFC
:1019700008956FEF7FEF90E080E00E945326089576
:1019800090E080E00E941F2621E0863E9E4F09F0F5
:1019900020E0822F089582E090E00E9417260895AB
:1019A00083E090E00E941726089584E090E00E9472
:1019B0001F260895BC0184E090E00E9453260895FC
:1019C000AB01BC018FE090E00E9447260895AB0177
:1019D000BC0183E190E00E944726089560E070E03A
:1019E000CB010E94E70C089560E070E0CB010E94FB
:1019F000E00C0E94EE0C0895A8E0B0E0E2E0FDE00B
:101A00000C94C62566EE7EEF90E080E00E9453269F
:101A100060E082E090E00E94352681E090E09093C3
:101A2000E9018093E80161E083E090E00E943526BF
:101A300060E074E184E090E00E94532660E086E07C
:101A400090E00E9435266FEF87E090E00E943526F7
:101A500040E050E0BA0188E090E00E94472660E054
:101A600084E290E00E94352660E087E190E00E94E9
:101A7000352660E08CE090E00E94352660E08DE045
:101A800090E00E94352619821A821B821C821D82D8
:101A90001E821F82188648E050E068E170E0CE01A7
:101AA00001960E94252640E050E0BA0180E290E0D5
:101AB0000E9447260E94F40C2896E2E00C94E2254E
:101AC0000E94FC0C08958EE090E00E94172691E0A1
:101AD000811101C090E0892F0895682F8EE090E079
:101AE0000E9435260895A6E0B0E0E9E7FDE00C94F9
:101AF000C4250E94C61C8C01809140029091410235
:101B00008017910781F019821A820E94C61C682FE3
:101B100049815A81792F80E090E00E94040410935B
:101B20004102009340022696E4E00C94E0250E94D6
:101B3000921060934E0270934F02809350029093E4
:101B4000510260934A0270934B0280934C0290932F
:101B50004D020895089508950E94AA0D08950895CC
:101B60000E94AF0D089581E008958CEA90E10E94F3
:101B7000B5140E94AB0D0E94AC0D08950E94AC12EA
:101B80000895089508950E94C10D0E94C20D089500
:101B90000E94D8100E94D8030E94181508950E9430
:101BA000BD1C0E946C100E94AF120E94C9110E94BD
:101BB000C80D0E9446160E94C1120E94B00D0895E1
:101BC000A6E0B0E0E6EEFDE00C94BD250E94B30D6A
:101BD00081110CC00E94730D0E94AC120E940C195E
:101BE0000E94EB032696EBE00C94D9250E941D126F
:101BF00082E4A82E82E0B82E750110E0F701019171
:101C00007F01812F0E94FE101F5F183009F441C030
:101C10000817A1F38091520281FD0E9404110E94D5
:101C2000BE0DC82E10E099249394812F0E94FE10BF
:101C3000082FF50181915F01081729F1F12CEE249D
:101C4000E394D02ED8268D2D8E21A9F0CC2099F0AA
:101C5000F9821A830E94C61C9C838B839D8291E02B
:101C6000802F8E2109F490E049815A816B817C811B
:101C70008D810E940404F394EE0CF5E0FF12E3CF93
:101C8000F501319700831F5F183079F60E94970D98
:101C9000A3CF0813BFCF9ECF1F93CF93DF930E9494
:101CA0007B0FEC01C11580E5D807F0F5C11580E484
:101CB000D80708F09CC0C03ED10520F5CD3CD10529
:101CC00008F082C0C83AD10578F4C53AD10508F0C9
:101CD00073C0C130D10519F1209709F1C430D10585
:101CE000F0F4D0E0C0E01BC0C33CD105D0F7C85A27
:101CF000D0E0CC0FDD1FC157DE4F0990D881C02D39
:101D0000D4640DC0C11580E2D80708F0D1C0C11558
:101D100081E0D80708F05AC0C83ED10510F7CE01BF
:101D2000DF91CF911F910895C03682E5D80718F54D
:101D3000C03482E5D80708F06BC0C03282E5D8070E
:101D400008F05FC0C11582E5D80708F497C02C2FB2
:101D50002695269580E2289F900111248C2F837070
:101D6000C1E0D0E002C0CC0FDD1F8A95E2F7C22BA4
:101D7000D32BDD68D4CFC03A82E5D80760F4C038F1
:101D800082E5D80708F459C0CF71D0E0DC2FCC270A
:101D9000C46FD06AC4CFC03C82E5D80708F462C0E3
:101DA000C03E82E5D80708F09CCFDC2FCC27CC279B
:101DB000DF71C06FD06AB3CFC55AD0E0CB53DE4FCE
:101DC000C881D0E0D064ABCFD065A9CF8D2F0E9461
:101DD0001D10182FCE0199270E947B0FC12FD0E034
:101DE000DC2FCC27CC27DF71C82BD92B98CFCE0185
:101DF00099270E947B0FCC27DF70C82BD92BD06A84
:101E00008ECFCF71D0E0DC2FCC27C16FD06A87CFC7
:101E10002C2F26952695277080E2289F900111246B
:101E20008C2F8370C1E0D0E002C0CC0FDD1F8A95FB
:101E3000E2F7C22BD32BDC6872CF2C2F2695269588
:101E4000277080E2289F900111248C2F8370C1E0BD
:101E5000D0E002C0CC0FDD1F8A95E2F7C22BD32B56
:101E6000DA685DCF8C2F8F710E941D10C82FD0E0D3
:101E7000DC2FCC27CC27DF71D06251CF8C2F8F7114
:101E80000E941D1055E0D695C7955A95E1F7CF7081
:101E9000D0E0DC2FCC27282F30E084FF05C044E0C1
:101EA000220F331F4A95E1F7C22BD32BD06937CFCE
:101EB0008D2F8F710E941D10182FCE0199270E941F
:101EC0007B0FC12FD0E0DC2FCC27CC27DF71C82BB4
:101ED000D92BD2CF462F783030F4653020F4672FDD
:101EE0000E944C02089590E080E008950E946A0FDD
:101EF0000E944C0E089582389105B9F1B0F48133F7
:101F0000910509F47DC048F48932910509F46DC04A
:101F10008A32910509F47BC008958533910509F44F
:101F20005FC08933910509F10895833E9105D9F188
:101F300038F4803E910529F1823E910579F10895AA
:101F4000863E9105D9F1873E910509F43EC0843E55
:101F5000910541F520919E0221FF24C080919D02B0
:101F600084FD19C087EE90E0089520919D022370B2
:101F700009F05AC020919E0223FF14C089E290E02C
:101F8000089520919D0220FD38C030919E0230FFBF
:101F900009C024FF43C090E080E0089520919D0295
:101FA00022FDF7CF089520919D0222FD3AC0309185
:101FB0009E0230FD39C024FFF5CFEDCF20919D0268
:101FC00023FFF0CF24FDE7CFCDCF20919D0223FD4D
:101FD0002EC030919E0231FFEECF84EE90E0089546
:101FE00020919D0225FFDECFC9CF20919D0225FDC6
:101FF00021C020919E0223FFD5CF89E390E0D2CF6C
:1020000020919D0226FFCECF8AE290E00895209194
:102010009D0226FFC7CF81E390E0089583EE90E014
:10202000089582EE90E0089580EE90E0089586EEA7
:1020300090E0089585E390E0089590919D0292FFCD
:1020400010C041E0282F2471243009F040E031E035
:10205000282F2871283009F030E0431711F02CE0C8
:10206000822793FF10C041E0282F2471243109F00A
:1020700040E031E0282F2871283109F030E0431783
:1020800011F02CE0822730919E0230FF10C051E009
:10209000282F2171213009F050E041E0282F2871CC
:1020A000283009F040E0541711F029E0822731FF71
:1020B00010C041E0282F2171213109F040E031E0CA
:1020C000282F2871283109F030E0431711F029E05A
:1020D000822794FD877E08951092990210929A02A9
:1020E00010929B0210929C020895CF92DF92EF9281
:1020F000FF926B017C010E94AC1281110EC00E9404
:10210000D21CC61AD70AE80AF90AC0929902D092DC
:102110009A02E0929B02F0929C02FF90EF90DF9077
:10212000CF9008950F931F930E94AC12882329F03B
:102130000E94D21C1F910F9108950E94D21C009101
:10214000990210919A0220919B0230919C02600F9B
:10215000711F821F931FEECF80E008950E94B90C7B
:102160000895CF930E941D122FEF86E791E0215032
:1021700080409040E1F700C000000E941D120E94C4
:10218000A912C4E08111C0E08C2F0E94FE1090E0E3
:1021900002C095958795CA95E2F780FF04C00E941A
:1021A000AE100E942D1DCF9108950E94B110089588
:1021B0000E94C00C811102C00E94600D0E94CB0CD5
:1021C000809352020E94D50C90939E0280939D02B0
:1021D0000E94D5100E94D00C90E00E94950780913B
:1021E000E6019091E7010E94B607089508950E94C4
:1021F000F610089508950E94FA100895E82FF0E06F
:10220000E855FD4F80810895089508950E940511B5
:102210000895EF92FF921F93CF93DF9300D000D0E9
:10222000CDB7DEB70E94AC12182F6091B0028823A0
:1022300009F447C019821A821B821C82862F90E003
:102240009E012F5F3F4F7901B90188559D4F0E9434
:10225000CF128823E9F080919F0290E044E050E0A3
:10226000B70188559D4F0E94012621E0209353021B
:10227000892BC9F410E00E94FB10812F0F900F9062
:102280000F900F90DF91CF911F91FF90EF900895E5
:1022900080915302882371F384E0F70111928A95AB
:1022A000E9F710925302E0919F02F0E0E855FD4FEC
:1022B00089819A81AB81BC8180839183A283B3831E
:1022C000DACF70E068557D4F80919F0290E088558D
:1022D0009D4F0E9456130E940611CFCF1F93CF939C
:1022E000DF9322E031E0C1E0D0E0D90150E040E0EE
:1022F0008D918F3F91F0E82FE295EF70F0E011A102
:102300008F70BE0101C0660F8A95EAF7962F9095EF
:10231000912391A382A1862B82A34F5F5F4F45300B
:10232000510531F72B5F3F4F81E026313807E9F641
:10233000DF91CF911F910895CF93DF93AC01A62F2A
:10234000B0E085E0689FF0011124EE5FFE4F70E081
:1023500081E060E091919F3FD1F0C92FC295CF708D
:10236000D0E028A130E09F7002C0359527959A955E
:10237000E2F720FD0CC0282F622B7F5F880F75309D
:1023800049F7A40FB51F6C93DF91CF91089520E01A
:10239000F3CFA4E1B0E0EFECF1E10C94C62580911D
:1023A0001601811126C084E1E2E4F1E0DE0111961C
:1023B00001900D928A95E1F7FE013196A2E0B1E01D
:1023C000CE01459620812C93218111962C93119753
:1023D000228112962C931297238113962C93139794
:1023E000248114962C931497359615968E179F0773
:1023F00049F78091160194E0811190E09093B0022A
:1024000084E0891B80939F020E946E1188E0E8EAB5
:10241000F2E0DF01982F1D929A95E9F7E0EAF2E0E9
:10242000DF011D928A95E9F784E00E945B120E9409
:10243000F7106496E2E00C94E225A8E0B0E0E3E255
:10244000F2E10C94C3258E010F5F1F4F88E0F80165
:1024500011928A95E9F7F12C6F2DC8010E949C1109
:10246000F394F4E0FF12F8CF48E050E0B80180EABE
:1024700092E00E94012621E0009709F420E0892BD8
:1024800041F088E0F801A0EAB2E001900D928A954F
:10249000E1F76091B00270E068557D4F44E080EA5A
:1024A00092E00E945C12182F0E940911812B28963D
:1024B000E5E00C94DF250895B0E0A0E0E2E6F2E16B
:1024C0000C94C0256C017B01042FC22F222379F0CC
:1024D00081E0809356020E94C61C9093550280931F
:1024E000540280E0CDB7DEB7E8E00C94DC25D09153
:1024F0005602DD23B1F380915402909155020E945F
:10250000DE1C059770F310E0A801B601C7010E9418
:102510000126892B31F0A801B601C7010E940E26C1
:10252000CD2F109256028C2FDDCF0E94C00C81114E
:1025300002C00E94600D0E94630D0895CF930E9417
:102540008F25C82F811102C00E948A258C2FCF9120
:10255000089580915A0208958091590208950E9429
:102560009E12809359020E94951280935A020E94F3
:10257000A912809316010E94AC1281110E940513CA
:1025800008950E94AC12811102C00E9408130895A0
:1025900081E090915B029A3008F080E008950F93FB
:1025A0001F93CF93DF93EC018B0180915B028A3004
:1025B000B8F4B801CE010E945313C82F811122C074
:1025C00080915B028F3FB9F40E94C61C9093580221
:1025D000809357028C2FDF91CF911F910F91089517
:1025E00080915702909158020E94DE1C843F9140D6
:1025F00000F7C0E0EFCF8F5F80935B028A3020F757
:10260000C1E0E8CF10925B02E5CF0E94A31D0895C0
:102610000E94A61D0895B0E0A0E0E1E1F3E10C9472
:10262000C1257901C82F880FDD0B41155105A9F08F
:10263000FE0193E0EE0FFF1F9A95E1F7E95EFE4F72
:1026400081819281845A9D4F208130E04217530747
:1026500008F49A01A9010E940E26CE010E948F1E45
:10266000D82E8823D1F001151105B9F083E0CC0FE5
:10267000DD1F8A95E1F7FE01E95EFE4F438150E0E0
:102680000417150708F4A801C95EDE4F6C817D812F
:10269000645A7D4FC7010E940E268D2DCDB7DEB73F
:1026A000E7E00C94DD250E944D1408950E94641407
:1026B0000895A4E0B0E0EFE5F3E10C94C425609147
:1026C00071027091720280917302909174020E9463
:1026D000ED1C11E0643671058105910518F10E9429
:1026E00092106E5F7F4F8F4F9F4F69837A838B83EA
:1026F0009C8310E000E030E020E044E050E0BE01C8
:102700006F5F7F4F82E00E940B13182F882351F0D8
:102710000E94D21C609371027093720280937302C4
:1027200090937402812F2496E4E00C94E025B0E0AD
:10273000A0E0EDE9F3E10C94BE257C015B016A01A8
:102740000E94C81201E010E0882311F00AE010E0B6
:10275000C1E0D0E0B501C701F6010995811104C0BF
:1027600021960C171D072CF4CDB7DEB7EAE00C94C8
:10277000DA25CC9F9001CD9F300D300D112490E0D3
:1027800080E045E34A95F1F7000001968217930730
:10279000C1F7E0CFA5E0B0E0E0EDF3E10C94BE2599
:1027A0005B01E090C801F090C90101E010E09E01DA
:1027B0002B5F3F4F50E040E070E060E080E00E941F
:1027C0000B13182F882309F44BC067018FEFC81A29
:1027D000D80A60916D0270916E0280916F029091A3
:1027E00070020E94ED1C643671058105910580F12F
:1027F00004E010E09E012F5F3F4F50E040E070E0AA
:1028000060E081E00E940B13F82E64E070E0C601E6
:102810000E94471611E09D81981310E01F2159F185
:102820000E94D21C60936D0270936E0280936F02BF
:102830009093700289819A81AB81BC8180936902F7
:1028400090936A02A0936B02B0936C0211E013C0E4
:1028500064E070E0C6010E9447169D818913C8CFCD
:10286000F70181819281A381B48189839A83AB83AB
:10287000BC831111DFCF8091690290916A02A0910F
:102880006B02B0916C02F50180839183A283B383C4
:10289000812F2596EAE00C94DA250F931F93CF93AE
:1028A000DF93EC018B014AEC53E10E9497138823DC
:1028B00031F049E553E1B801CE010E949713DF9151
:1028C000CF911F910F9108950F931F93CF93DF9393
:1028D000C091C801D091C901CE01019624E0FB014D
:1028E000DC0101900D922A95E1F764E070E00E940E
:1028F000471688836D817E818F819885009165025E
:10290000109166022091670230916802601771078A
:102910008207930751F0609365027093660280937B
:102920006702909368020E947510DF91CF911F910A
:102930000F9108950E9460200E94CF0D0E946D208B
:1029400008950E9472200E94E00D0E948C2008953C
:102950000E945F1C0E9446200E94B50D0E949A149E
:102960000E94A1140E94C30DFBCF9093CB018093D2
:10297000CA010895FB012581222341F097FF06C07B
:102980009F77BC0190E080E00E94FE1581E00895F1
:102990000F931F93CF93DF93EC018B01FB01858194
:1029A000882389F00E94C40B8272FE01E053FC4729
:1029B000E830F10540F4E958F94D0C94B02588232E
:1029C00069F00E943015B801CE010E94BA14DF915F
:1029D000CF911F910F910895882399F30E942F158D
:1029E000F2CF80E00E942115EECF81E0FBCF82E0A4
:1029F000F9CF83E0F7CF84E0F5CF85E0F3CF909176
:102A0000B202923071F48A3050F490E009966AE094
:102A100070E00E949C25875A0E94DB04089586502E
:102A2000FBCF0E94571A089508950E941415089527
:102A30008CE090E00E9417268093B2020E94151548
:102A40000895CF93C82F8093B202682F8CE090E056
:102A50000E9435268C2F0E941515CF910895089558
:102A600008950E94231B8093B1029091B20291308D
:102A700029F481FF03C089E30E94DB040E94C40B98
:102A80008093B3020E94D70B0E94E70B8091B202A1
:102A9000823021F158F48823C1F08130D1F08FE3E6
:102AA0009CE90197F1F700C000000895843051F1CE
:102AB0008530A9F78BE191E00E94D00285E290E099
:102AC0000E94D00288E290E006C082EE0E94470495
:102AD000E6CF88E193E00E94D002E1CF8091B1027D
:102AE00080FD03C083E50E94DB0482EE0E94470460
:102AF0008FE39CE90197F1F700C0000087E50E9491
:102B0000DB04CDCF86EE0E94DB0488E1F8CF809114
:102B1000B202823011F148F4882381F0813091F0C3
:102B20008091B3020E94D40B08958430F9F085306F
:102B3000B9F788E290E00E94D002F2CF82EE0E94C4
:102B40009004EECF8CE20E94DB048091B10281FF01
:102B5000E7CF89E30E94DB04E3CF82EE0E9490047A
:102B60008091B10280FDDCCF83E5F4CF88E2F2CF23
:102B70008F929F92AF92BF92EF92FF920F931F930B
:102B8000CF93DF934B015C01D091B2028CE1E82E30
:102B9000F12C07E010E021E0D501C4010E2C04C0A7
:102BA000B695A795979587950A94D2F7C82FCF70B9
:102BB000222339F0D43051F4CA3040F080E00E9432
:102BC000FF148C2F0E94FF1420E005C0C111F9CF23
:102BD00004301105B4F30150110984E0E81AF1083A
:102BE0000F3F1007C9F6DF91CF911F910F91FF9012
:102BF000EF90BF90AF909F908F900895CF92DF920B
:102C0000EF92FF926B017C01C114D10481E1E806CF
:102C1000F104A0F5C114D10481E0E806F10420F02C
:102C20008091B202823051F10E943115C114D10459
:102C300081E0E806F10438F18091B202811123C0ED
:102C400081E0E81AF108C701B6012AE09695879558
:102C5000779567952A95D1F778528F4F9F4F0E94AD
:102C6000B81583E0D822EE24FF24C701B6017452C0
:102C70008F4F9F4F0E94B8150E948715FF90EF90CD
:102C8000DF90CF900895C701B601F4CF0895FC01FD
:102C9000680F791F8FEF91E3E617F70709F408959E
:102CA0002191822728E030E087FF06C0880F89271E
:102CB00021503109C9F7F0CF880FFACFCF93DF93B6
:102CC000EB0186319C4711F50E94C40B9D8199232D
:102CD00099F08A7A91E009F490E09093750281115D
:102CE00009C089E20E94D91B0E94560C80E0DF9146
:102CF000CF91089585E3F6CF80917502811104C0CC
:102D000089E20E94E11BF0CF85E3FBCF81E0EFCFAA
:102D1000CF93DF93EC01FB018581882309F4D2C0B6
:102D20009E0130572332310508F0B2C00E94D50C05
:102D300090939E0280939D02FE01E150F047E232A3
:102D4000F10520F4E158F94D0C94B02580919D02D5
:102D5000816080939D0293C080919E0288608093E1
:102D60009E028DC080919D028260F3CF80919D0272
:102D70008460EFCF80919D028860EBCF80919E02AE
:102D80008160EDCF80919E028260E9CF80919D02AB
:102D90008061DFCF80919D028062DBCF80919D02B8
:102DA0008064D7CF0E94480780919D028068D1CF70
:102DB00080919D028C60CDCF80919E028360CFCFA9
:102DC00080919D028E7FC5CF80919E02877FC7CF65
:102DD00080919D028D7FBDCF80919D028B7FB9CF69
:102DE00080919D02877FB5CF80919E028E7FB7CF65
:102DF00080919E028D7FB3CF80919D028F7EA9CF5F
:102E000080919D028F7DA5CF80919D028F7BA1CF68
:102E10000E94480780919D028F779BCF80919D02F1
:102E2000837F97CF80919E028C7F99CF80919D0266
:102E300082FB992790F921E0922790FB82F990FB81
:102E400083F987CF80919E02982F909591708E7F05
:102E5000892B90FB81F983CF90919D02892F8F7BE5
:102E600096FF806476CF0E94480790919D02892F3B
:102E700097FB87F980586DCF81E00E946D0D80919E
:102E80009D0290919E020E94DA0C0E94480780E009
:102E9000DF91CF91089580E0F0CF90919D02892F2E
:102EA0008F7E94FF806155CF90919D02892F8E7FF8
:102EB00090FF81604ECF90919E02892F877F93FF74
:102EC00088604DCF81E0E4CF282F35EB2303C0018C
:102ED000112497FF04C080589109892F08958058C4
:102EE0009F4FFBCF80917C0280FF0DC06091340129
:102EF00070E0660F771F6038710570F56115710518
:102F000069F1862F089581FF07C06091340184E044
:102F1000689FB0011124EFCF6091340182FD0AC097
:102F200080917B028823A9F02091330160913401C4
:102F3000821710F088E0ECCF869FC001112433E0A7
:102F4000880F991F3A95E1F7622F70E00E949C2547
:102F5000D2CF68E070E0D5CF8FE7089581E0089583
:102F600080917C0280FF0CC06091300170E075950B
:102F70006795759567956115710549F1862F0895D7
:102F800081FF06C06091300170E075956795F3CFC1
:102F90006091300182FD0BC090917A029923A1F0DB
:102FA00060912F0180913001961738F0682F70E002
:102FB0006038710500F38FE70895899FC0011124DF
:102FC00070E00E949C25F4CF61E070E0D7CF81E0F3
:102FD000089590917F0220918002922B209182028D
:102FE000922B20918102922B31F098E090937B02FA
:102FF00091E090937A028D3C31F40E947217819592
:103000008093800208958E3C19F40E947217F8CFC5
:103010008F3C31F40E947217819580937F0208954E
:10302000803D19F40E947217F8CF893D29F40E945F
:10303000B0178093810208958A3D21F40E94B01751
:103040008195F7CF8B3D31F40E94B0178195809325
:10305000820208958C3D19F40E94B017F8CF9FE2C8
:10306000980F983070F4815D990B21E030E001C039
:10307000220F8A95EAF780917E02822B80937E024E
:1030800008958D3D31F480917C02816080937C02B3
:1030900008958E3D21F480917C028260F7CF8F3DB0
:1030A000B9F780917C028460F1CF40917F028D3C22
:1030B00059F48091800287FF0DC010928002411167
:1030C0000BC010927B0208C08E3C81F4809180027C
:1030D00018169CF3442381F0809181029091820222
:1030E000892B09F05AC010927A0208958F3C49F456
:1030F00047FFF0CF10927F02809180028111ECCFC8
:10310000E0CF803D19F41416ACF3E4CF9091810226
:10311000893D29F41916F4F610928102DBCF8A3D1D
:1031200019F497FFD7CFF8CF909182028B3D29F405
:1031300097FFD0CF10928202CDCF8C3D19F4191693
:10314000CCF3C8CF9FE2980F983090F4815D990B33
:1031500021E030E0B90102C0660F771F8A95E2F7DF
:10316000CB01809590917E02892380937E02B2CF1D
:103170008D3D31F480917C028E7F80937C02AACFBA
:103180008E3D21F480917C028D7FF7CF8F3D09F039
:10319000A1CF80917C028B7FF0CF08950E94C61C46
:1031A0009C0190917F0280918002982B21F03093B6
:1031B0007902209378029091810280918202982B6B
:1031C00021F030937702209376028DE792E00E94FF
:1031D000311B089586E0EDE7F2E0DF011D928A954C
:1031E000E9F710927B0210927A0210927C02089505
:1031F000FC01828181110EC0838181110BC0848109
:10320000811108C091E08581811101C090E0892F72
:103210008170089581E0FCCFA6E0B0E0E2E1F9E141
:103220000C94C52586E0EDE7F2E0DE0111960190F1
:103230000D928A95E1F710927F021092800210920F
:103240008102109282028B819C81892B89F080916E
:103250007802909179020E94DE1CAC0190917B0271
:103260009923C9F1809135018417150608F440C0EF
:103270008D819E81892B91F08091760290917702C9
:103280000E94DE1CAC0190917A02992309F46AC075
:10329000809131018417150608F472C0BE016F5F7A
:1032A0007F4F8DE792E00E94F41B811105C08DE7EE
:1032B00092E00E94F81881110E94CE1886E0FE016B
:1032C0003196ADE7B2E001900D928A95E1F726962E
:1032D000E3E00C94E125209136018AE0289F9001DB
:1032E00011242417350720F69F5F90937B0202C0BC
:1032F0009F3FD1F71B81112359F00E9472179FEF56
:1033000011160CF491E0899F802D112480937F0287
:103310001C81112359F00E9472179FEF11160CF4B3
:1033200091E0899F802D11248093800280917F02FB
:10333000882309F49DCF10918002112309F498CFBE
:103340000E946417882351F080937F02812F0E948E
:103350006417882329F0809380028ACF81E0F4CF1C
:1033600081E0F9CF209132018AE0289F9001112459
:103370002417350708F092CF9F5F90937A0202C01E
:103380009F3FD1F71D81112359F00E94B0179FEF85
:1033900011160CF491E0899F802D112480938102F5
:1033A0001E81112359F00E94B0179FEF11160CF4E3
:1033B00091E0899F802D1124809382028091810267
:1033C000882309F46BCF10918202112309F466CF90
:1033D0000E946417882351F080938102812F0E94FC
:1033E0006417882329F08093820258CF81E0F4CFBC
:1033F00081E0F9CFB0E0A0E0E0E0FAE10C94C12573
:10340000E82FF0E0E45CFD4FD490282F2695269518
:10341000269530E0F901E452FD4F0491877010E0E9
:10342000082E02C0159507950A94E2F7017011273E
:10343000F901E453FD4FE490F12C082E02C0F594FD
:10344000E7940A94E2F791E0E922FF24F901E454B9
:10345000FD4FC491D0E002C0D595C7958A95E2F79B
:10346000C170DD270115110519F081EE0E94470496
:10347000E114F10419F086EE0E9447048D2D0E949C
:10348000DB04E114F10419F086EE0E9490040115AA
:10349000110519F081EE0E949004CD2B19F08CE2F9
:1034A0000E94DB04CDB7DEB7E7E00C94DD25982F52
:1034B0009F709A50963020F0805D0E94FA1908950E
:1034C000895AFBCF0F931F93CF93DF93C42FD22F33
:1034D000FC0185818823C9F0409385020E94C61CA7
:1034E000909384028093830280E28C0F883040F4B2
:1034F000C77081E001C0880FCA95EAF70E94E40412
:10350000DF91CF911F910F910895109185021413AF
:1035100032C080918302909184020E94DE1C883C1C
:10352000910548F5C0E2CD0F1D17B9F080E2810F7B
:10353000883040F4177081E001C0880F1A95EAF7CF
:103540000E94EB04C83048F481E09D2F977001C0C1
:10355000880F9A95EAF70E94E404802F0E94DB040A
:10356000C83070F6D77081E001C0880FDA95EAF7AD
:103570000E94EB04C5CF80E28C0F883008F6C7703C
:1035800081E001C0880FCA95EAF7F2CF0F93DB0103
:1035900088519C4787309105A0F5FC01EF55F94D06
:1035A0000C94B02506E221EE41EE6AE17CE7CD0104
:1035B0000E94621A80E00F91089507E225EE45EE21
:1035C0006BE17CE7F4CF06E221EE40EE68E17CE7B8
:1035D000EECF07E225EE44EE69E17CE7E8CF06E2B4
:1035E00021EE42EE6CE17CE7E2CF07E225EE46EE0B
:1035F0006DE17CE7DCCF08E221E045EE6EE17CE79F
:10360000D6CF15968C91882319F010928502D3CFCE
:1036100081E0D1CF90938C0280938B0208950E9419
:10362000AC12811103C0809186020895E0918B0253
:10363000F0918C02309729F00190F081E02D0995EE
:10364000089580E008950E940F1B0895E0918B0279
:10365000F0918C02309721F00280F381E02D0995E2
:103660000895E0918B02F0918C02309739F022E0BE
:10367000DC012C930680F781E02D09950895A3E0E5
:10368000B0E0E5E4FBE10C94C6252091890230917D
:103690008A0228173907A1F090938A028093890241
:1036A000E0918B02F0918C02309751F023E0298356
:1036B0009B838A830084F185E02DCE0101960995D4
:1036C0002396E2E00C94E225A3E0B0E0EAE6FBE119
:1036D0000C94C6252091870230918802281739075B
:1036E000A1F09093880280938702E0918B02F09181
:1036F0008C02309751F024E029839B838A830084D5
:10370000F185E02DCE01019609952396E2E00C9417
:10371000E22540910001509101019A012E5F3F4F37
:10372000485F5F4F80E02417350709F40895F901D9
:1037300091919F019923B9F38F5FF5CF882371F0A1
:103740002091000130910101F9013296285F3F4F2D
:103750009191981729F0E217F307D1F780E00895C7
:1037600081E008959C01FC0132969FEF80E0419139
:10377000461751F09F3F19F4411101C0982F8F5FF8
:103780008630A9F79F3F09F40895290F311D97FD51
:103790003A95F90162830895FC01329608962191C9
:1037A000261303C0DF0111971C92E817F907B9F738
:1037B0000895682F80910001909101010E94B21B31
:1037C0000895682F80910001909101010E94CC1B07
:1037D0000895E0910001F0910101329686E0DF0149
:1037E0001D928A95E9F70895DC01FB0111969C91E1
:1037F00011978181981322C012968C911297882379
:1038000019F0928189131AC013968C91139788230B
:1038100019F09381891312C015968C9115978823FE
:1038200019F0958189130AC014969C91992321F06F
:1038300081E02481291303C080E001C081E0817010
:10384000089508950E94211C0895811106C081E009
:1038500080938D020E94221C089582E0F9CF83E0BC
:1038600080938D020E94221C08950E94251C0895B9
:1038700081E080938D020E94221C08950E94381CD2
:103880000895089508950E94421C0895089508958A
:103890000E94411C0895CF930E94461C0E941D1255
:1038A0000E94471CC0E08C2F0E94FE10811105C0B1
:1038B000CF5FC830C1F7CF91089581E0FCCF85B7C5
:1038C000806885BF85B7806885BF08951F921FB641
:1038D0001F9211248F939F93AF93BF9380918E0279
:1038E000811113C08091B4029091B502A091B602EB
:1038F000B091B7024196A11DB11D8093B40290937F
:10390000B502A093B602B093B702BF91AF919F9159
:103910008F911F901FBE1F9018958091BC0284301C
:1039200031F10E94BB0310928E0288E190E020E406
:103930000FB6F894A895809360000FBE20936000A6
:1039400083B7817F846083BF83B7816083BF7894AE
:10395000889583B78E7F83BF0FB6F894A895809122
:103960006000886180936000109260000FBE08952F
:103970000E9448070E94C003089582E084BD93E03E
:1039800095BD9AEF97BD80936E0008952FB7F89478
:103990008091B4029091B502A091B602B091B702A5
:1039A0002FBF08952FB7F8946091B4027091B502BB
:1039B0008091B6029091B7022FBF08959C014FB736
:1039C000F8948091B4029091B502A091B602B091A2
:1039D000B7024FBF821B930B0895CF92DF92EF92F5
:1039E000FF922FB7F894C090B402D090B502E09047
:1039F000B602F090B7022FBFA7019601261B370B26
:103A0000480B590BCA01B901FF90EF90DF90CF909E
:103A1000089578941F921FB61F9211248F939F933D
:103A2000AF93BF938091B4029091B502A091B6027A
:103A3000B091B7020196A11DB11D8093B40290937D
:103A4000B502A093B602B093B702BF91AF919F9118
:103A50008F911F901FBE1F90189587E797E790934F
:103A600001088093000888E19AE00FB6F894A895C1
:103A7000809360000FBE90936000FFCF88E19AE0D2
:103A80000FB6F894A895809360000FBE90936000E5
:103A9000FFCF8EE14A9B02C08150E1F74A9BFECFE7
:103AA00008955A9880E28A95F1F75A9A0895FC0190
:103AB0003BE03A95F1F798E020E080E031E040E12A
:103AC0004A95F1F7880F4A9B02C08160232742E0A4
:103AD0004A95F1F7000040E14A95F1F7915079F7E6
:103AE00090E19A95F1F799B132E03A95F1F700003B
:103AF00040E14A95F1F792FB992790F992272081AE
:103B0000920F90830895A1E0B0E0E9E8FDE10C9404
:103B1000C22519828C017C01E60EF11C0E151F05D1
:103B200041F481E09981911180E02196E6E00C94C6
:103B3000DE250E94491DCE0101960E94571DF80105
:103B400081938F01EBCF529A5A9A089552985A9ABC
:103B5000EA9AE9E6F0E080818F7C808308956150E5
:103B6000770B91E001C0990F6A95EAF720E031E008
:103B7000911108C0222391F05A9A80E28A95F1F7B8
:103B80005A980895492F482339F05A9A232740E23A
:103B90004A95F1F79695ECCF5A98F9CF5A98EDCF10
:103BA000FF920F931F93CF93DF93EC018C01060FCD
:103BB000111DC017D10729F4CDB7DEB7E5E00C948D
:103BC000DF25F9900E94511D68E08F2D0E94AF1DE6
:103BD000F0CF1F920F920FB60F9211240F931F93E5
:103BE0002F933F934F935F936F937F938F939F9305
:103BF000AF93BF93EF93FF93CF93DF930F92CDB724
:103C0000DEB719820E94491DCE0101960E94571D00
:103C1000082F069506950695282F22952570902F3A
:103C20009570290F922F937026952695920F9827BD
:103C300097708981982B09F05CC0043008F059C056
:103C400080E18A95F1F75A9A529A82E08A95F1F7C3
:103C500000C05A9888E0089F80011124D801A95E0D
:103C6000BE4F1696ED91FC9117973097A9F0609191
:103C7000C8017091C90114962D913C911597260F9A
:103C8000371F11968D919C911297680F791F13968B
:103C90004C9113978C910995F801E95EFE4F638171
:103CA000662351F02091C8013091C901848195812A
:103CB000820F931F0E94D01D0E94511D80E18A95A2
:103CC000F1F75A9852985A9A80E18A95F1F7F801DB
:103CD000E95EFE4F6081662351F02091C80130916A
:103CE000C90181819281820F931F0E94831D0E94CE
:103CF000491D0F90DF91CF91FF91EF91BF91AF914F
:103D00009F918F917F916F915F914F913F912F91F3
:103D10001F910F910F900FBE0F901F9018950F934A
:103D20001F93CF93DF93EC0104970CF04CC0F894F1
:103D3000529A5A9885E08A95F1F700009C2F969543
:103D400095708C2F8570980F892F83709695969516
:103D500023E0CC0FDD1F2A95E1F7980F8E01092B88
:103D60000E94511D00C068E0802F0E94AF1D80E1BD
:103D70008A95F1F752985A9A4A9B1EC087E090E0C4
:103D80004A991CC0FE01E95EFE4F63816623F9F08B
:103D90002091C8013091C90184819581820F931FC0
:103DA0000E94831D811113C0529A5A9A7894DF9110
:103DB000CF911F910F91089500C0DECF019729F494
:103DC000529A5A9A789480E0F2CF00C0D9CF0E94DC
:103DD000491D80E28A95F1F75A98529A80E18A95B6
:103DE000F1F7C95EDE4F6881662351F02091C8016A
:103DF0003091C90189819A81820F931F0E94D01D41
:103E00000E94511D789481E0D2CF8091970208954D
:103E100008959B01BA019091BC029430E9F48F702F
:103E20008093E9009FEF8091E800915085FD06C0E6
:103E300085ED8A95F1F700009111F5CF8091E800AA
:103E400085FF0AC050E040E0C9010E940321809133
:103E5000E8008E778093E800089543E050E0BC01CD
:103E600082E00E94091F089546E050E0BC0182E014
:103E70000E94091F0895CF93DF93EC0148E050E0C2
:103E8000BC0181E00E94091F88E0FE01AFE8B2E0BA
:103E900001900D928A95E1F7DF91CF91089580917D
:103EA000BB02811109C00E9493220E94F0228091DE
:103EB000E20084608093E20008951092BB020895AE
:103EC0000E94381C08956091B80281E0611101C020
:103ED00080E00E942F1C08959091BC0281E09430F4
:103EE00009F080E06091B8020E94351C089542E01C
:103EF00061EC81E00E940F2242E261EC82E00E94CC
:103F00000F229091BC0281E0943009F080E0609132
:103F1000B8020E94251C08958091BE02833009F4E6
:103F200061C030F48130D1F1823009F49EC008952F
:103F30008A3009F48AC08B3009F46FC0893009F0E7
:103F400050C08091BD02813209F04BC08091C10206
:103F50009091C202029708F044C08091E800877FE8
:103F60008093E8008091E80082FF37C09091F300D1
:103F70008091F200029731F48091F100813011F0CC
:103F8000863021F48091F100809397028091E800BF
:103F90008B778093E8000E94432223C08091BD026A
:103FA000813AF9F48091E800877F8093E80080915E
:103FB000C1029091C202892B61F468E08FE892E01F
:103FC00070E00E9452218091E8008B778093E80096
:103FD000089560E090E080E0F3CF8091BC02811111
:103FE000C1CF08958091BD02813AD9F78091C10275
:103FF0009091C202892BA9F78091E800877F809376
:10400000E8008091E80080FFFCCF8091410180931F
:10401000F1008091E8008E77BCCF8091BD028132A3
:1040200001F78091C1029091C202892BD1F6809153
:10403000E800877F8093E8000E9443228091BF02BE
:10404000809341010E94480708958091BD0281320A
:1040500041F68091E800877F8093E8000E94432228
:104060008091C0028093980208958091BD02813AA8
:1040700009F0B7CF8091E800877F8093E8008091B6
:10408000E80080FFFCCF80919802C1CF84B7877F82
:1040900084BF0FB6F894A8958091600088618093E2
:1040A0006000109260000FBE80E890E00FB6F894B8
:1040B00080936100909361000FBE0E943E1C0895A2
:1040C0000E9493220E94F022E2EEF0E08081846060
:1040D000808378940E946F25089587E391E00E9481
:1040E0000A1B08958091BC02853031F48091BC0296
:1040F000853019F00E94B81C08950E948D1C809193
:10410000BA02882399F30E944B1C882379F30E94FA
:10411000ED200E944807EACF08959A014091C3021A
:104120005091C4020E9495200895492F552743308D
:10413000510519F168F44130510509F444C0423089
:10414000510509F445C090E080E050E040E025C012
:104150004132510549F142325105A9F784E490E01A
:104160004EED53E061157105C1F08BE790E043E639
:1041700053E06130710589F0E6CF992781309105D0
:1041800081F0009729F00297F1F6ECEEF2E002C020
:10419000E2E1F3E0849190E0AF01F90151834083C3
:1041A0000895E8E0F3E0F6CF89E090E048E253E0DC
:1041B0006115710591F389E090E041E453E06130CD
:1041C000710559F3C0CF82E190E041E553E0E5CFBE
:1041D0008BE390E046E153E0E0CF80E189BD82E1EE
:1041E00089BD09B400FEFDCF8091D8008F7D8093FA
:1041F000D8008091E00082608093E0008091E00030
:1042000081FDFCCF0895AF92BF92CF92DF92FF92D3
:104210000F931F93CF93DF936C01EB018A010E94F0
:104220006222F82E811123C00115110539F0F80121
:1042300080819181C81BD90BC80ED91EB12CA12C2D
:104240002097A9F08091E80085FD22C08091E800C8
:104250008E778093E80001151105A1F0F8018081A7
:104260009181A80EB91EB182A08285E0F82E8F2D13
:10427000DF91CF911F910F91FF90DF90CF90BF9072
:10428000AF9008950E9462228823D1F2F82EEFCFDA
:10429000F60181916F018093F1002197FFEFAF1A32
:1042A000BF0ACECFFC018091C3029091C402861751
:1042B0009707A0F06115710529F49091E8009E77A9
:1042C0009093E80090E06115710551F4911108C0D8
:1042D0008091E80082FF34C080E00895BC01F2CFF5
:1042E0008091BC028823C1F18530C1F18091E80042
:1042F00083FD30C08091E80082FDEACF8091E80024
:1043000080FFE1CF8091F3002091F200382F6115FA
:10431000710519F02830310558F091E02830310549
:1043200009F090E02091E8002E772093E800CBCFB1
:1043300081918093F100615071092F5F3F4FE7CF6A
:104340008091BC02882341F0853041F08091E800E3
:1043500083FFBECF81E0089582E0089583E0089551
:10436000FC018091C3029091C40286179707A0F0C8
:104370006115710529F48091E8008E778093E8003B
:1043800090E06115710551F4911108C08091E80029
:1043900082FF35C080E00895BC01F2CF8091BC025D
:1043A0008823C9F18530C9F18091E80083FD31C0CF
:1043B0008091E80082FDEACF8091E80080FFE1CFA4
:1043C0008091F3002091F200382F6115710519F0EA
:1043D0002830310558F091E02830310509F090E09F
:1043E0008091E8008E778093E800CBCF8491809312
:1043F000F1003196615071092F5F3F4FE6CF8091F8
:10440000BC02882341F0853041F08091E80083FFB1
:10441000BDCF81E0089582E0089583E00895982F4C
:10442000973028F08F708093E90081E00895909391
:10443000E900242F762F50E0981731F07091EC00AE
:104440002091ED005091F00021FD02C09F5FE8CF68
:104450003091EB003E7F3093EB003091ED003D7FDB
:104460003093ED003091EB0031603093EB007093AE
:10447000EC002093ED005093F0002091EE0027FD1A
:10448000E5CF80E008958091BD0287FF13C0809141
:10449000E80082FF06C08091E8008B778093E800F7
:1044A00004C08091BC028111F2CF08958091BC02BA
:1044B0008823D9F38091E80080FFF8CF8091E8004D
:1044C0008E77ECCF2091E4003091E50095E6A901CC
:1044D0002091EC00822F817020FF06C08091E800BF
:1044E00080FF06C080E008952091E80022FD1AC0F8
:1044F0008091BC02882389F0853089F08091EB009F
:1045000085FD0FC02091E4003091E500421753076C
:10451000F9F29150E1F684E0089582E0089583E095
:10452000089581E008950E9402230E940A23E0EE8C
:10453000F0E0808181608083E8EDF0E080818F771A
:10454000808319BCA7EDB0E08C918E7F8C93808125
:104550008F7E80831092BB0208950F931F93CF9399
:10456000DF930E9402230E940A23C8EDD0E08881D5
:104570008F77888388818068888388818F7D88830E
:1045800019BC1092BC021092B8021092BA0210929A
:10459000B90200EE10E0F80180818B7F8083888172
:1045A0008160888342E060E080E00E940F22E1EEBB
:1045B000F0E080818E7F8083E2EEF0E08081816098
:1045C0008083808188608083F80180818E7F8083F2
:1045D000888180618883DF91CF911F910F91089529
:1045E000E8EDF0E080818F7E8083E7EDF0E0808170
:1045F0008160808384E082BF81E08093BB020E945F
:10460000AD220895E8EDF0E080818E7F80831092E6
:10461000E20008951092DA001092E10008951F92CE
:104620000F920FB60F9211242F933F934F935F93E6
:104630006F937F938F939F93AF93BF93EF93FF936A
:104640008091E10082FF0BC08091E20082FF07C0F1
:104650008091E1008B7F8093E1000E946E25809124
:10466000DA0080FF19C08091D80080FF15C08091CA
:10467000DA008E7F8093DA008091D90080FF96C0A7
:1046800080E189BD82E189BD09B400FEFDCF81E0F2
:104690008093BC020E944F1F8091E10080FF19C0EF
:1046A0008091E20080FF15C08091E2008E7F8093B0
:1046B000E2008091E20080618093E2008091D80066
:1046C00080628093D80019BC85E08093BC020E9470
:1046D000631F8091E10084FF2BC08091E20084FF82
:1046E00027C080E189BD82E189BD89B5982F91708D
:1046F00080FFFBCF8091D8008F7D8093D800809180
:10470000E1008F7E8093E1008091E2008F7E8093B4
:10471000E2008091E20081608093E2008091B80223
:10472000882309F449C084E08093BC020E946C1F76
:104730008091E10083FF29C08091E20083FF25C0C2
:104740008091E100877F8093E10082E08093BC024A
:104750001092B8028091E1008E7F8093E1008091F9
:10476000E2008E7F8093E2008091E200806180937E
:10477000E20042E060E080E00E940F228091F000C1
:1047800088608093F0000E94601FFF91EF91BF91BD
:10479000AF919F918F917F916F915F914F913F91D9
:1047A0002F910F900FBE0F901F90189519BC10926B
:1047B000BC020E945D1F70CF8091E30087FD93E0F3
:1047C0009093BC02B3CF1F920F920FB60F92112499
:1047D0002F933F934F935F936F937F938F939F9309
:1047E000AF93BF93CF93DF93EF93FF93D091E90003
:1047F000DF708091EC00C82FC17080FDC0E810927E
:10480000E9008091F000877F8093F00078940E9407
:1048100027241092E9008091F00088608093F000D6
:10482000CD2BCF70C093E900FF91EF91DF91CF9135
:10483000BF91AF919F918F917F916F915F914F91B8
:104840003F912F910F900FBE0F901F901895AAE2E5
:10485000B0E0EDE2F4E20C94C5258DEB92E02091FE
:10486000F100FC012193CF01F2E0853C9F07B9F7ED
:104870000E948C1F8091E80083FF1EC18091BD02C1
:104880009091BE029A3008F017C1E92FF0E0E85588
:10489000F94D0C94B025803899F0823809F00CC19C
:1048A0008091C1028F70873008F006C18093E900C3
:1048B0008091EB0085FB882780F91092E90006C003
:1048C0008091B9029091BA02911182609091E800B2
:1048D000977F9093E8008093F1001092F10080910F
:1048E000E8008E77E5C0882309F4D3C0823009F050
:1048F000E3C08091BF028111D6C08091C1028F7048
:104900002FEF280F263008F0D7C08093E9002091C0
:10491000EB0020FFC8C0933031F48091EB0080623F
:104920008093EB00C0C09091EB0090619093EB00FE
:1049300021E030E001C0220F8A95EAF72093EA00D7
:104940001092EA008091EB008860EACF8111B4C038
:104950001091BF021F778091E3008078812B8093B4
:10496000E3008091E800877F8093E8000E94432263
:104970008091E80080FFFCCF8091E3008068809305
:10498000E30082E0111183E08093BC0295C080585F
:10499000823008F091C08091BF029091C0028C3D9E
:1049A00023E09207A1F583E08A838AE289834FB7E7
:1049B000F894DE01139620E03EE051E2E32FF0E0B0
:1049C00050935700E49120FF03C0E295EF703F5FE2
:1049D000EF708E2F90E0EA30C0F0C7968D939D93D4
:1049E0002F5F243159F74FBF8091E800877F809374
:1049F000E8006AE270E0CE0101960E9452218091A7
:104A0000E8008B778093E80057C0C096E7CF6091AD
:104A1000C1027091C202AE014F5F5F4F0E948D20B4
:104A2000BC01892B09F448C09091E800977F9093CE
:104A3000E80089819A810E94B021E1CF8038E1F5B8
:104A40008091E800877F8093E8008091B80280938E
:104A5000F10045CF811130C09091BF02923060F5D6
:104A60008091E800877F8093E8009093B8020E94CD
:104A700043228091B802882311F084E005C0809120
:104A8000E30087FDFACF81E08093BC020E94771F8C
:104A900013C08091BF02813079F481E0933009F036
:104AA00080E08093BA021092E9008091E800877F4D
:104AB0008093E8000E9443228091E80083FF0AC0AF
:104AC0008091E800877F8093E8008091EB0080620E
:104AD0008093EB00AA96E3E00C94E1250895CF9330
:104AE0008091BC028823A1F0C091E900CF70909121
:104AF000EC00892F817090FD80E8C82B1092E900AE
:104B00008091E80083FD0E942724CF70C093E900C4
:104B1000CF9108950E9493221092BC020895E8ED6F
:104B2000F0E08081806180838AE18A95F1F700C09E
:104B30008091D9008170089597FB072E16F4009498
:104B400007D077FD09D00E94ED2507FC05D03EF483
:104B5000909581959F4F0895709561957F4F089529
:104B6000EE0FFF1F0590F491E02D09942F923F92D4
:104B70004F925F926F927F928F929F92AF92BF926D
:104B8000CF92DF92EF92FF920F931F93CF93DF9319
:104B9000CDB7DEB7CA1BDB0B0FB6F894DEBF0FBE76
:104BA000CDBF09942A88398848885F846E847D84C3
:104BB0008C849B84AA84B984C884DF80EE80FD80C5
:104BC0000C811B81AA81B981CE0FD11D0FB6F8943B
:104BD000DEBF0FBECDBFED010895AA1BBB1B51E187
:104BE00007C0AA1FBB1FA617B70710F0A61BB70B5D
:104BF000881F991F5A95A9F780959095BC01CD0102
:104C00000895FB01DC0104C08D910190801921F40D
:104C100041505040C8F7881B990B0895FB01DC01F7
:104C200002C001900D9241505040D8F70895F99973
:104C3000FECF92BD81BDF89A992780B50895A8E16D
:104C4000B0E042E050E00C945B26DC01A40FB51FFD
:104C50004150504048F0CB01840F951F2E910E9487
:104C6000362641505040D0F70895262FF999FECFAF
:104C700092BD81BDF89A019700B4021639F01FBAAF
:104C800020BD0FB6F894FA9AF99A0FBE08950396CC
:104C9000272F0E9436260E943526252F0E94362671
:104CA000242F0C9436260196272F0E9436260C942A
:104CB0003526DC01CB01FC01F999FECF06C0F2BD1F
:104CC000E1BDF89A319600B40D9241505040B8F7CA
:104CD0000895F894FFCF3305330583058305E80570
:104CE00004066205620509067A0689068906DF144C
:104CF000EC14F114F514F714F914FB14FD14E01678
:104D00005417E816B216B616EC16BA16F016FC16BC
:104D1000C6164D17CA160017CE1604172C17D21632
:104D200008173317D8160E171617BE16F416C21624
:104D3000F816DC16121722173C174B17AC16E416A0
:104D40005B17E31AE91AD21ADD1AEF1AF51AFB1AE1
:104D50004B2473245C2573245C25A624C7245C257E
:044D60001E252A25BD
:104D64003602C6F7F6F5F4313332369391909466F1
:104D7400973435FFFFFF0100000001000000000030
:104D840000000401000000040500000000000028E9
:104D94000850011E0A1401051F3B1F081F341F2D54
:104DA4001F01F4F5F6F7C6933632333197669490C3
:104DB400913534FFFFFFE200E900EA00B500B600D8
:104DC400B700CD008301CC008A0192019401210235
:104DD400230224022502260227022A02B300B40079
:104DE4006F0070009F01CB019F02A002818283E2C9
:104DF40000E900EA00B500B600B700CD008301CC9D
:104E0400008A019201940121022302240225022630
:104E14000227022A02B300B4006F0070009F01CB86
:0A4E2400019F02A0028182835C025C
:00000001FF
