:100000000C940F020C942C020C942C020C94A41B44
:100010000C942C020C942C020C942C020C942C02A8
:100020000C942C020C942C020C94D4220C94A82333
:100030000C94E81D0C942C020C942C020C942C02B1
:100040000C942C020C942C020C942C020C942C0278
:100050000C942C020C948B1E0C942C020C942C02ED
:100060000C942C020C942C020C942C020C942C0258
:100070000C942C020C942C020C942C020C942C0248
:100080000C942C020C942C020C942C020C942C0238
:100090000C942C020C942C020C942C020C942C0228
:1000A0000C942C020C942C020C942C0214001A00B8
:1000B00008001500170004001600070009000A00D8
:1000C0001D001B0006001900050000222A00000088
:1000D000000000001C0018000C00120013000B00B0
:1000E0000D000E000F0033421100100036003721C2
:1000F00038432C4441520000000000000000000082
:100100003602370200002F023002260227020000CA
:1001100000001E022F00300000000100010000005E
:1001200000000000230224022202340035020000F5
:10013000200231021F02210200002D006400350060
:1001400000000100405200000000000000004A00D2
:1001500052004D004B000000500051004F004E0077
:10016000000000004E000000000000000000000041
:10017000000000000000000000000000000000007F
:10018000000000000000000000000000000000006F
:1001900000000000000000000000000054002400E7
:1001A000250026005600550021002200230057009C
:1001B00027001E001F002000670000000000000054
:1001C00000000000420043004400450000003E00E3
:1001D0003F004000410000003A003B003C003D0071
:1001E000000000000000000000000000A6524600D1
:1001F00000002900A900A552000000002800AA0064
:10020000A352A75200000000A80000002B0000002D
:100210000000000000000000000000004C00000092
:10022000E3000000000000000000000000000000EB
:1002300000000000000000000000000000000000BE
:10024000000000002A2B2800000000000000000031
:100250000000000000000029000000002C1E3420D7
:10026000212224342627252E362D3738271E1F20FD
:100270002122232425263333362E37381F04050642
:100280000708090A0B0C0D0E0F1011121314151686
:100290001718191A1B1C1D2F3130232D3504050684
:1002A0000708090A0B0C0D0E0F1011121314151666
:1002B0001718191A1B1C1D2F3130354C0000000077
:1002C000000000000000000000000000000000002E
:1002D000000000000000000000000000000000001E
:1002E0007E0F00D4FFFFFFC7000000781A0346000E
:1002F00065007200720069007300200073007700CF
:1003000065006500700000000803440050004200D2
:1003100000000403090409023B00020100A0FA09DD
:100320000400000103010100092111010001224024
:100330000007058103080001090401000103000012
:1003400000092111010001227B0007058203200022
:10035000011201000200000008ABC239390100019E
:1003600002000105010902A10185020901A10005A0
:100370000919012908150025019508750181020553
:1003800001093009311581257F950275088106091B
:10039000381581257F950175088106050C0A3802FC
:1003A0001581257F950175088106C0C0050109806A
:1003B000A101850319012AB700150126B70095018F
:1003C00075108100C0050C0901A101850419012ADD
:1003D000A002150126A002950175108100C005013B
:1003E0000906A101050719E029E71500250195086F
:1003F000750181029501750881010507190029FF22
:10040000150026FF009506750881000508190129C9
:1004100005950575019102950175039101C011249F
:100420001FBECFEFDAE0DEBFCDBF11E0A0E0B1E04C
:10043000EEECFCE402C005900D92A83CB107D9F7A0
:1004400022E0A8ECB1E001C01D92AB3BB207E1F79E
:100450000E94AC140C941E260C9400008530B8F455
:100460006830A8F4453098F450E095E0699F400D5D
:10047000511D1124FA0198E2899FE00DF11D11240C
:10048000EE0FFF1FE455FF4F85919491089581E091
:1004900090E008950E942E0208959C013A9521153E
:1004A0003F4150F5FC01EE27F170BC0166277270E8
:1004B000AC01442754709C012227387094FF0EC071
:1004C00080E1EF2B09F480E0672B09F08062452B77
:1004D00009F08064232B89F08068089581E0EF2B78
:1004E00009F480E0672B09F08260452B09F08460F5
:1004F000232B19F08860089580E00895CF93DF934F
:10050000EB010E944D02FE010995DF91CF91089504
:10051000CF93DF93EC01805E9109089720F06FE1A3
:1005200077E0209711F46BEC74E0CE010E947E021C
:100530008C2F0E942A04DF91CF910895CF93DF93EF
:10054000EC010E947704CE01805E9109089720F0AB
:1005500066E277E0209711F462ED74E0CE010E942C
:100560007E02DF91CF9108950F931F93CF93DF9376
:100570008C01EB010E948802209741F4C8010E947F
:100580009E02DF91CF911F910F9108958FE99FE017
:100590000197F1F700C000002197EECF70E060E016
:1005A0008933910511F460E570E00E94B40208956A
:1005B00081E0089581E008950E94DA020895089587
:1005C0000E94DF020895A5E0B0E0E9EEF2E00C94AD
:1005D0008A2549835A833091CF0189819A813111CB
:1005E00019C0662399F0222389F00E949808182FD9
:1005F000682F89819A810E94740869817A81812F8C
:100600000E94770F2596E3E00C94A6250E948608A9
:10061000182FF3CF0E94980869817A81F1CFFC01ED
:10062000262F408151816281738184810E94E3027F
:10063000089581E00895CF93DF93EC0160E00E947C
:100640000F03BE010E94E002DF91CF91089508954B
:100650000E9443070E9427032FEF84E39CE0215070
:1006600080409040E1F700C0000008950E942803F8
:100670000E94AF1E08950E9428030E94C01E089584
:100680000F931F93CF93DF938C0161E00E940F03C0
:10069000EC01B8010E94DC02811106C080E0DF910C
:1006A000CF911F910F910895B801CE010E94631759
:1006B0008823A1F3B801CE010E94C01A882371F3E8
:1006C000B801CE010E94EE18882341F3B801CE0193
:1006D0000E94321A882311F3F8018281882361F085
:1006E000C330FCE7DF07E9F058F4C115ECE7DE079B
:1006F000A9F0C130DC47B9F0C8010E94D802CFCFC1
:10070000CB358CE7D807A9F0CC35ECE7DE0771F0E4
:10071000CA35DC4789F70E94CC0CEECF0E94360325
:10072000BDCF0E94D40C0E943B03B8CF0E94C20CE4
:10073000E3CF0E94D00CE0CF0E94C51D0E94C303EE
:1007400008950E94C7030E94CA1D0895089581E07C
:1007500008950895CF93DF93D82F0E94A703C82F41
:10076000882319F08D2F0E94A9038C2FDF91CF9140
:1007700008950895CF93C82F0E94A6038C2F0E943E
:10078000AA03CF91089580E00E94BA0308950E94C1
:10079000CA1C0E94BA030895CF930E94CA1CC82F96
:1007A0008091CA018C1779F0C093CA010E94541E2F
:1007B0006093CB017093CC018093CD019093CE01D7
:1007C0008C2F0E94BA03CF910895ABE0B0E0EBEE1E
:1007D000F3E00C948B254F83588769877A878B8742
:1007E00061110E940D0C1E821D8285E0FE0137966C
:1007F000DE01119601900D928A95E1F78C819D8121
:10080000892B61F449815A816B817C818D819E8124
:100810000E94320B2B96E2E00C94A72589819A81E5
:1008200089238F3F79F3CE0101960E94190381112C
:10083000E9CFF0CFFC01808191810E94CA08089520
:10084000662329F00E9430150E94031608950E9425
:100850008A15FACFCF93C82F8823B9F08CEF8C0F6D
:10086000813AA8F46C2F80910001909101010E94BF
:10087000561D882329F08C2F0E94CA0B0E942E0C33
:100880008C2F0E94C20B0E942E0CCF91089580E203
:100890008C0F883048F4C77081E001C0880FCA957A
:1008A000EAF70E94ED0BEFCFEBE5EC0FE33040F4FD
:1008B000F0E0E657FE4F808190E00E94FA1CE5CF01
:1008C000E8E5EC0FEB3150F4F0E0EE0FFF1FEC5ACF
:1008D000FE4F808191810E941F1DD7CF83E38C0F33
:1008E000833198F661E08C2F0E942004CECF8823BC
:1008F00081F19CEF980F913A28F40E94CA0B0E9454
:100900002E0C089590E2980F983050F4877091E083
:1009100001C0990F8A95EAF7892F0E94F30BEFCF58
:100920009BE5980F933028F490E080E00E94FA1C39
:10093000089598E5980F9B3128F490E080E00E949C
:100940001F1D089593E3980F933118F460E00E94FF
:10095000200408951F93CF93DF93182FEB010E947B
:100960002A04209739F4812F0E947704DF91CF91D8
:100970001F9108958FE99FE00197F1F700C00000F3
:100980002197EFCF70E060E0893311F460E570E00B
:100990000E94AA040895882321F00E94ED0B0E9472
:1009A0002E0C0895882321F00E94F30B0E942E0C38
:1009B0000895B0E0A0E0EFEDF4E00C9484256C0124
:1009C000D62FC72FFC011281058102950F700E945E
:1009D000E30BE82E8823E9F0E12E1123D1F08C2FD0
:1009E000807F803451F080E28D0F8830F8F0011163
:1009F00004C08C2F807E8032C9F08091910282FFEA
:100A000015C082E00E94910C0E94E30B91E0E82E59
:100A1000E926BC2EB2949FE0B922FBE0FB15B8F1A9
:100A2000EB2DF0E0E05EF94D0C947525E12CF1CF53
:100A30000C2F0F70C07F11F00295007F112399F0E9
:100A4000002359F080E28D0F883010F0D11107C0DB
:100A5000802F0E94ED0B0E942E0C8D2F63C0802FE3
:100A60000E94000CF8CF8D2F0E947704002379F0AC
:100A700080E28D0F883010F0D11104C0802F0E94C9
:100A8000F30B03C0802F0E94060C0E942E0C2B2D0E
:100A90002850330B2430310520F40E94CA1C0E94D8
:100AA000BA03EE2089F00E94DF0B80FD0DC0F60135
:100AB00012820E94D90B0E94D207C6010E94F5063D
:100AC0000E94D90B0E94E207CDB7DEB7E9E00C9493
:100AD000A0252C2F2F70F22EC07FC03219F0F29477
:100AE00080EFF822DD2381F0D13009F449C01123D1
:100AF00009F451C0002309F448C0F601858180FF44
:100B0000ACCF8F70858341C08091910282FD15C06A
:100B1000112359F0FF2029F08F2D0E94ED0B0E9428
:100B20002E0C80E00E942A04B2CF80E00E9477045D
:100B3000FF2009F4ACCF8F2DA2CF112381F001113A
:100B400006C00E94100C8F290E94CB04A0CF013058
:100B5000C1F70E94100C8F290E94170C98CF011129
:100B600006C00E94240C8F2D0E94D20490CF013029
:100B700009F48DCF8F2D0E94D2040E94240C87CFC0
:100B8000112329F0063008F082CF8F2DDDCF0530FC
:100B900008F07DCFE8CF002331F3D93349F4FFEFDC
:100BA00027EE33E0F15020403040E1F700C0000074
:100BB0008D2F0E9477046BCF8C2F8695869583703E
:100BC00069F0813009F063CF8D2F9C2F9370111144
:100BD00002C080E090E00E941F1D59CF8D2F9C2FF6
:100BE0009370111102C080E090E00E94FA1C4FCF78
:100BF000612F8D2F0E9420044ACF8C2F8370A1F586
:100C0000111145CF4D2F429546954770440F440F23
:100C10002D2F2F7030E0042E02C0220F331F0A94B4
:100C2000E2F790E080E0D4FF09C08FE090E002C0DE
:100C3000880F991F4A95E2F780959095C695C695BD
:100C4000C370822B932BC23049F058F4C13019F095
:100C50000E94A2071CCF0E94990719CF0E94AB07E0
:100C600016CF0E94960713CF8695112311F08C2F73
:100C70008170882309F40BCF4D2F4295469547701C
:100C8000440F440F2D2F2F7030E0042E02C0220F8E
:100C9000331F0A94E2F790E080E0D4FF09C08FE0B0
:100CA00090E002C0880F991F4A95E2F780959095D1
:100CB000C695C695C370822B932BC23049F058F469
:100CC000C13019F00E940D08E2CE0E940408DFCE68
:100CD0000E941608DCCE0E94BA07D9CECF7011232D
:100CE00029F08C2F0E94D2078D2F2ECF8D2F0E949E
:100CF000D2048C2F0E94E207CACED23F41F160F4A9
:100D0000D03FB9F0D13F81F0112309F446C0011161
:100D1000A4CE8C2F8F711FC0D33F01F1D43FA1F718
:100D20008091910282FD24C08C2F8F71112311F3C9
:100D300012C0112341F0053008F0A9CE8C2F8F711D
:100D40000E94F407A4CE063008F0A1CEF7CF8C2F76
:100D50008F711111CFCF0E94D20799CE112329F0A4
:100D60008C2F8F710E94C60792CE0E94C1078FCE32
:100D7000112349F0CF718C2F0E94D20763E08C2F92
:100D80000E94730C84CE81E00E94910C023008F422
:100D90007ECE82E00E94910C7ACE002359F0D933A6
:100DA00009F006CF8FEF97EEE3E081509040E040EE
:100DB000E1F7FCCE8C2F8F719DCF0F931F93CF93B4
:100DC000DF93EC01688179818A810E94D5088C01CA
:100DD0000E941F080E949507B801CE010E94D90405
:100DE000DF91CF911F910F910895CF93DF93EC0185
:100DF0008B819C81892B29F08881998189238F3F60
:100E000051F4DF91CF910895CE010E94DD06CE010D
:100E10000E941B03F6CFCE010E9440038111F4CF44
:100E20000E94E30B882369F38A81882351F3809120
:100E3000910282FFE6CF82E00E94910CE2CF8823EC
:100E400021F00E94000C0E942E0C0895882321F0AE
:100E50000E94060C0E942E0C089590E080E00E94F3
:100E6000FA1C90E080E00E941F1D0E940D0C0E9461
:100E70002E0C0E941F160E94031608950E94D20B8A
:100E80000E942D0708950E94FD0B0E943E070895C1
:100E900092959F70963091F058F4925F9F709230C7
:100EA00058F4803F19F030F4883E30F481E0089522
:100EB0009A5FF4CF843FD1F380E00895883EB0F389
:100EC000813FD1F7F3CFFC0183819481892B29F0F5
:100ED0008081918189238F3F11F480E00895808182
:100EE00091810E94CA080E9448070895A5E0B0E0D9
:100EF000ECE7F7E00C948B252596E2E00C94A7250F
:100F0000A6E0B0E0E6E8F7E00C948B252696E2E058
:100F10000C94A72508950E948A0708950E948B07C4
:100F20009093E7018093E601089508950E948E074B
:100F300008952091E6013091E701822B932B0E94C6
:100F40008E0708952091E6013091E70182239323D3
:100F50000E948E0708952091E6013091E7018227D3
:100F600093270E948E0708950E948A0708950E9481
:100F7000B40708950E94B7079093E5018093E401B8
:100F8000089590E080E00E94BA07089521E030E0E3
:100F9000A90102C0440F551F8A95E2F7CA010E94B9
:100FA000BA07089521E030E002C0220F331F8A956E
:100FB000E2F78091E4019091E501822B932B0E944E
:100FC000BA07089521E030E002C0220F331F8A954E
:100FD000E2F7209530958091E4019091E50182231C
:100FE00093230E94BA07089521E030E002C0220F47
:100FF000331F8A95E2F78091E4019091E501822701
:1010000093270E94BA0708952091E4013091E501E9
:10101000822B932B0E94BA0708952091E40130910E
:10102000E501822393230E94BA0708952091E401E9
:101030003091E501822793270E94BA070895089509
:10104000262F277091E001C0990F2A95EAF723E037
:10105000769567952A95E1F7660F771F660F771FDC
:10106000FA01E60FF71F50E040E0682F70E0819131
:10107000DF0111979B01042E02C0369527950A9433
:10108000E2F7217021952827292328272C934F5FE9
:101090005F4F4430510559F70895A82FA77023E0FA
:1010A000969587952A95E1F7880F991F880F991FC4
:1010B000FB01E80FF91F50E040E080E0219130E0B3
:1010C0000A2E02C0369527950A94E2F7217033273D
:1010D000042E01C0220F0A94EAF7822B4F5F5F4F64
:1010E0004430510559F70895262F983070F4853013
:1010F00060F4682F70E085E0989F600D711D1124E9
:1011000040ED51E0822F0E9420080895292F983049
:1011100068F4853058F490E060ED71E035E0239F8D
:10112000800D911D11240E944D08089580E00895BE
:10113000B0E0A0E0EEE9F8E00C9484257C01009199
:10114000E4011091E5018091E6019091E701082BFF
:10115000192BCFE0D0E0CC24C394D12CBC2EC601F7
:101160000C2E02C0880F991F0A94E2F78023912366
:10117000892B49F4219790F7B12C8B2DCDB7DEB791
:10118000E9E00C94A025B7018C2F0E94830F0197F2
:1011900089F3F3CFCF93DF93EC010E949808BE014F
:1011A0000E94830FDF91CF9108951F93CF93DF9318
:1011B000EB019091CF01992339F0CB010E94CA082D
:1011C000DF91CF911F910895882369F0CB010E9490
:1011D0009808182F682FCE010E947408BE01812F35
:1011E0000E94830FEDCFCB010E948608182FF6CF07
:1011F0001F93CF93DF93C091E80116E08091E9013E
:101200008C1304C0DF91CF911F910895D0E01C9FF3
:10121000F0011D9FF00D1124E651FE4F40815181D8
:1012200062817381848195810E9480072196C770B5
:10123000E5CF40911A0250911B0260911C027091FF
:101240001D0280911E0290911F020E948007089546
:101250002091E8019091E90156E0291302C080E055
:10126000089530E0529FF001539FF00D1124E65194
:10127000FE4F7181761306C07081781303C07281AE
:10128000741304C02F5F3F4F2770E7CF81E00895AC
:101290001F93CF93DF9380911F02807F09F04BC093
:1012A00080911C02882309F446C08091E801C09116
:1012B000E90140911A0250911B0260911D02709148
:1012C0001E02D42FD52316E0C817A9F190E06115AE
:1012D0007105A9F1DF3F99F1189FF001199FF00DF9
:1012E0001124DF01A651BE4F11962C9111972513A1
:1012F00026C02C91241323C012962C9112972111F1
:101300001EC013962D913C91261B370B283C3105AE
:10131000B0F480911F028F70806180931F02E151B1
:10132000FE4F80818F70806180838AE192E00E940D
:10133000F5060E94F808DF91CF911F91089501965C
:101340008770C2CFA1E1B0E0E8EAF9E00C94812512
:101350008C0185E0F801DE011D9601900D928A95C1
:10136000E1F7F801F2808AE1A82E82E0B82E4091E0
:101370001D0250911E024115510509F45AC1909168
:101380001A0220911B02892F82238F3F09F451C139
:10139000C080D18083809480E0901C02B401641BE3
:1013A000750BEE2009F4F6C080911F02382F307FB4
:1013B000683C710508F0AFC031117AC0EF2C2D11D7
:1013C00016C09C1114C0F11012C08F708061809300
:1013D0001F020E941909C5010E94F50680911F0293
:1013E000F80185838E2D6196ECE00C949D25811487
:1013F0009104C9F18C2D8D218F3FA9F181E08F25BA
:1014000080FF05C04F2D6D2D8C2D0E942809811461
:10141000910459F18C2D8D218F3F39F181E08F2579
:10142000F82FF170BF2E80FF39C04F2D6D2D8C2D00
:101430000E942809A82E811131C0CD86DE868D85B7
:101440009E850E94CA08292F22952F70243078F497
:101450009F702230A8F09923B9F0F8019581907F10
:1014600099F4EA2CBFCF80E0CBCF80E0D9CF2A5FC0
:101470002F70223068F0C8010E94F506AB2CF1CF26
:10148000992311F0882369F3805E883050F3F3CFFD
:10149000803F38F3815F833070F7E3CFFF2009F49A
:1014A000A1CF80911F02816080931F02E12C9ACF0F
:1014B0002D1105C09C1103C0FF2009F486C0C8018E
:1014C0000E946307882319F1FF2009F180911F0210
:1014D000803270F020911A0230911B0238872F83DE
:1014E00019869B868A868C87CE0107960E94F50610
:1014F00086E0F801AAE1B2E001900D928A95E1F749
:101500000E9448090E941909EE24E3946BCFC80198
:101510000E94F506F9CF311114C0782D998A888A76
:10152000A6016F2D89890E9476078AE192E00E94C8
:10153000F50686E0F50111928A95E9F70E941909EE
:10154000B5CF2D110EC09C110CC0F1100AC08583BF
:10155000C8010E94F50686E0F50111928A95E9F727
:1015600041CFC8010E946307882389F2FF2079F2E6
:1015700080911F02803208F4BBCF20911A02309173
:101580001B023A8329831B829D828C828E83CE012B
:101590000196ACCF683C710508F03DC0EF2CFF20F0
:1015A00009F4B5CF2D1129C09C1127C080911F02CD
:1015B00080FD1AC0982F907FB9F08583903F31F05D
:1015C000982F907F905F8F70892B8583C8010E9430
:1015D000F50686E0F801AAE1B2E001900D928A9545
:1015E000E1F70E941909FECE86E0F801AAE1B2E017
:1015F00001900D928A95E1F7F5CEC8010E9463072C
:10160000811176CF80911F02816080931F02C801F3
:101610000E94F506E7CE782D998A888AA6016F2D5B
:1016200089890E94760786E0F50111928A95E9F78B
:10163000D8CFFF2009F46BCFC8010E946307E82EC2
:10164000882309F464CF86E0F801AAE1B2E00190B2
:101650000D928A95E1F78AE192E00E941A040E94B5
:101660004809BFCFACE0B0E0E8E3FBE00C948A258A
:101670004F83588769877A878B879C87CE01079627
:101680000E94A2098823B1F08A859B85892B39F0B5
:101690004F815885842F85238F3F09F06CC016E059
:1016A0008091E8019091E901891343C02C96E3E011
:1016B0000C94A62586E0FE013796DE011196019076
:1016C0000D928A95E1F78A859B85892B41F38F815D
:1016D000988589238F3F19F32091E90130E0C901F2
:1016E0000196877099274091E8014817190671F40F
:1016F0000E9443071092E9011092E80186E0EAE1B6
:10170000F2E0DF011D928A95E9F7C9CF96E0929F3A
:10171000D001939FB00D1124A651BE4FFE0131960A
:1017200001900D929A95E1F78093E9010E94F808E3
:10173000B6CF819FC001112486519E4F0E94A209FD
:10174000882309F4B3CFE091E8011E9FF001112432
:10175000E651FE4F40815181628173818481958180
:101760000E9480078091E80190E001968770992798
:101770008093E80195CF69857A858B859C850E9449
:1017800080078DCF682F80910001909101010E9408
:101790008C1D0895682F80910001909101010E9495
:1017A0008F1D089580910001909101010E94921D6A
:1017B0000895809128028595859585950895809155
:1017C00028028770089590912802977081E009F4AB
:1017D00080E0089580913302089590913302892B1F
:1017E00080933302089580959091330298239093CB
:1017F00033020895809333020895109233020895BE
:1018000090913202892B80933202089580959091B5
:101810003202982390933202089510923202089572
:1018200080912902089508950E94130C08959091C3
:10183000910292FF08C090912902981721F080939D
:1018400029020E94140C089580912902882329F00E
:101850001092290280E00E94140C0895CF93DF9328
:10186000E0910001F0910101809133028083E091C9
:101870000001F0910101808190913202892B8083D7
:1018800090912902992381F0E0910001F0910101EA
:101890008081892B808380910001909101010E94B9
:1018A000441D81110E94240CC0910001D0910101BE
:1018B00048E050E060E272E0CE010E94C625892B2C
:1018C00059F088E0FE01A0E2B2E001900D928A9505
:1018D000E1F7CE010E94E11CDF91CF9108950895B8
:1018E0000E946F0C08959091910292FF11C098E0B0
:1018F000899F90011124622B609328020E94D207D5
:10190000809128028595859585950E94700C089593
:101910000E94D20708951092280280E00E94700C65
:101920000895909128028095892380932802282F7A
:10193000277091F4282F082E000C330B92171306F2
:1019400059F09091910292FF07C0859585958595F4
:101950000E94E2070E948B0C08959091910292FBE5
:10196000222720F9281769F080FB92F990939102C1
:1019700080919002909191020E94F50C82E00E9469
:10198000910C08958091910282FB882780F991E063
:1019900089270E94AD0C089581E00E94AD0C089546
:1019A00080E00E94AD0C08956FEF7FEF90E080E043
:1019B0000E940826089590E080E00E94E42521E03E
:1019C000873E9E4F09F020E0822F089582E090E04C
:1019D0000E94DC25089583E090E00E94DC250895B4
:1019E00084E090E00E94E4250895BC0184E090E04A
:1019F0000E9408260895AB01BC018FE090E00E9490
:101A0000FC250895AB01BC0183E190E00E94FC2518
:101A1000089560E070E0CB010E94020D089560E03F
:101A200070E0CB010E94FB0C0E94090D089567EE47
:101A30007EEF90E080E00E94082660E082E090E087
:101A40000E94EA2560E083E090E00E94EA2510927F
:101A5000E7011092E60160E074E184E090E00E940A
:101A6000082660E086E090E00E94EA256FEF87E0BC
:101A700090E00E94EA2540E050E0BA0188E090E062
:101A80000E94FC2560E08DE090E00E94EA2540E0A5
:101A900050E0BA0188E190E00E94FC2560E087E117
:101AA00090E00E94EA2540E050E0BA018CE190E02D
:101AB0000E94FC2570E060E080E290E00E94082631
:101AC00040E050E0BA0188E190E00E94FC250E94CD
:101AD0000F0D08950E94170D08958EE090E00E946A
:101AE000DC2591E0811101C090E0892F0895682FD5
:101AF0008EE090E00E94EA250895A5E0B0E0E3E8DA
:101B0000FDE00C9489250E94481E8C0180913402CE
:101B10009091350280179107A1F08FEF89838A8316
:101B20001B820E94481E8160782F9D838C8349818F
:101B30005A816B818D810E94E503109335020093D9
:101B400034022596E4E00C94A5250E94541E60936F
:101B50004202709343028093440290934502609343
:101B60003E0270933F028093400290934102089599
:101B7000089508950E94B90D089508950E94BD0D1D
:101B8000089581E008958DEA90E10E94C01C0E94B2
:101B9000B80D0E94BA0D08950E949D1208950895EF
:101BA00008950E94CF0D0E94D00D08950E94D91073
:101BB0000E94B9030E94B31708950E943F1E0E941D
:101BC0006D100E94B5120E94CA110E94D60D0E948B
:101BD0003D170E94C5120E94BE0D0895A5E0B0E019
:101BE000E4EFFDE00C9483250E94C10D81110CC02F
:101BF0000E947D0D0E949D120E9441160E94CC03FE
:101C00002596EAE00C949F250E941E1286E3A82EDA
:101C100082E0B82E750110E0F70101917F01812F5C
:101C20000E94FF101F5F183009F440C00817A1F38D
:101C30008091460281FD0E9405110E94CC0DC82EA4
:101C400010E0812F0E94FF10082FF50181915F01A4
:101C5000081731F1F12CEE24E394D02ED8268D2DE7
:101C60008E21B1F0CC20A1F0F9821A8391E0802F6F
:101C70008E2109F490E09B830E94481E8160782F9A
:101C80009D838C8349815A816B818D810E94E503FC
:101C9000F394EE0CF5E0FF12E2CFF50131970083EB
:101CA0001F5F183071F60E94A50DA4CF0813C0CF96
:101CB0009FCF1F93CF93DF930E94880FEC01C11534
:101CC00080E5D807F0F5C11580E4D80708F09CC07E
:101CD000C03ED10520F5CD3CD10508F082C0C83A00
:101CE000D10578F4C53AD10508F073C0C130D105EB
:101CF00019F1209709F1C430D105F0F4D0E0C0E02B
:101D00001BC0C33CD105D0F7C85AD0E0CC0FDD1FB3
:101D1000C357DE4F0990D881C02DD4640DC0C115C2
:101D200080E2D80708F0D1C0C11581E0D80708F0DB
:101D30005AC0C83ED10510F7CE01DF91CF911F9157
:101D40000895C03682E5D80718F5C03482E5D80773
:101D500008F06BC0C03282E5D80708F05FC0C1153B
:101D600082E5D80708F497C02C2F2695269580E2A7
:101D7000289F900111248C2F8370C1E0D0E002C015
:101D8000CC0FDD1F8A95E2F7C22BD32BDD68D4CFB1
:101D9000C03A82E5D80760F4C03882E5D80708F475
:101DA00059C0CF71D0E0DC2FCC27C46FD06AC4CF2C
:101DB000C03C82E5D80708F462C0C03E82E5D8077F
:101DC00008F09CCFDC2FCC27CC27DF71C06FD06A06
:101DD000B3CFC55AD0E0CD53DE4FC881D0E0D06438
:101DE000ABCFD065A9CF8D2F0E942A10182FCE011E
:101DF00099270E94880FC12FD0E0DC2FCC27CC2759
:101E0000DF71C82BD92B98CFCE0199270E94880F5C
:101E1000CC27DF70C82BD92BD06A8ECFCF71D0E002
:101E2000DC2FCC27C16FD06A87CF2C2F2695269523
:101E3000277080E2289F900111248C2F8370C1E0CD
:101E4000D0E002C0CC0FDD1F8A95E2F7C22BD32B66
:101E5000DC6872CF2C2F26952695277080E2289F6C
:101E6000900111248C2F8370C1E0D0E002C0CC0F10
:101E7000DD1F8A95E2F7C22BD32BDA685DCF8C2F5A
:101E80008F710E942A10C82FD0E0DC2FCC27CC27DE
:101E9000DF71D06251CF8C2F8F710E942A1055E0D4
:101EA000D695C7955A95E1F7CF70D0E0DC2FCC27B7
:101EB000282F30E084FF05C044E0220F331F4A95ED
:101EC000E1F7C22BD32BD06937CF8D2F8F710E94B2
:101ED0002A10182FCE0199270E94880FC12FD0E019
:101EE000DC2FCC27CC27DF71C82BD92BD2CF462FA4
:101EF000783030F4653020F4672F0E944A0208954C
:101F000090E080E008950E94770F0E94590E089596
:101F100082389105B9F1B0F48133910509F47DC09F
:101F200048F48932910509F46DC08A32910509F4AB
:101F30007BC008958533910509F45FC0893391050D
:101F400009F10895833E9105D9F138F4803E910559
:101F500029F1823E910579F10895863E9105D9F1E6
:101F6000873E910509F43EC0843E910541F52091DC
:101F7000910221FF24C08091900284FD19C087EE58
:101F800090E0089520919002237009F05AC02091AA
:101F9000910223FF14C089E290E0089520919002FD
:101FA00020FD38C03091910230FF09C024FF43C0AA
:101FB00090E080E008952091900222FDF7CF0895EF
:101FC0002091900222FD3AC03091910230FD39C03B
:101FD00024FFF5CFEDCF2091900223FFF0CF24FD19
:101FE000E7CFCDCF2091900223FD2EC030919102FA
:101FF00031FFEECF84EE90E008952091900225FF0E
:10200000DECFC9CF2091900225FD21C02091910201
:1020100023FFD5CF89E390E0D2CF2091900226FF15
:10202000CECF8AE290E008952091900226FFC7CF9C
:1020300081E390E0089583EE90E0089582EE90E0D1
:10204000089580EE90E0089586EE90E0089585E38F
:1020500090E008959091900292FF06C0282F287179
:102060002830F9F4877F846093FF06C0282F2871F9
:102070002831F1F4877E84612091910220FF06C00F
:10208000382F38713830D9F4877F816021FF06C03E
:10209000282F28712831D1F4877E816194FD877EB5
:1020A0000895282F24712430F9F68B7F8860DCCFC7
:1020B000282F2471243101F78B7E8861DDCF382FE2
:1020C0003171313019F78E7F8860E0CF282F217170
:1020D000213121F78E7E8861E1CF10928C0210921F
:1020E0008D0210928E0210928F020895CF92DF928D
:1020F000EF92FF926B017C010E949D1281110EC034
:102100000E94541EC61AD70AE80AF90AC0928C0225
:10211000D0928D02E0928E02F0928F02FF90EF90AB
:10212000DF90CF9008950F931F930E949D128823F4
:1021300029F00E94541E1F910F9108950E94541E71
:1021400000918C0210918D0220918E0230918F02AD
:10215000600F711F821F931FEECF80E008950E94D1
:10216000D40C0895CF930E941E122FEF86E791E0C2
:10217000215080409040E1F700C000000E941E12F4
:102180000E949A12C4E08111C0E08C2F0E94FF10BF
:1021900090E002C095958795CA95E2F780FF04C04C
:1021A0000E94AF100E94AF1ECF9108950E94B210FE
:1021B00008950E94DB0C811102C00E946A0D0E94EA
:1021C000E60C809346020E94F00C9093910280935B
:1021D00090020E94D6100E94EB0C90E00E9496079D
:1021E0008091E4019091E5010E94B7070895089558
:1021F0000E94F710089508950E94FB100895E82F9B
:10220000F0E0E556FD4F80810895089508950E94FD
:1022100006110895EF92FF921F93CF93DF9300D0A2
:1022200000D0CDB7DEB70E949D12182F6091A30297
:10223000882309F447C019821A821B821C82862FC8
:1022400090E09E012F5F3F4F7901B90185569D4F68
:102250000E94D3128823E9F08091920290E044E03A
:1022600050E0B70185569D4F0E94C62521E020937E
:102270004702892BC9F410E00E94FC10812F0F90B7
:102280000F900F900F90DF91CF911F91FF90EF90E3
:10229000089580914702882371F384E0F701119239
:1022A0008A95E9F710924702E0919202F0E0E55634
:1022B000FD4F89819A81AB81BC8180839183A28308
:1022C000B383DACF70E065567D4F8091920290E043
:1022D00085569D4F0E945A130E940711CFCF1F931E
:1022E000CF93DF9322E031E0C1E0D0E0D90150E0AC
:1022F00040E08D918F3F91F0E82FE295EF70F0E094
:1023000011A18F70BE0101C0660F8A95EAF7962F62
:102310009095912391A382A1862B82A34F5F5F4F5B
:102320004530510531F72B5F3F4F81E026313807AB
:10233000E9F6DF91CF911F910895CF93DF93AC0120
:10234000A62FB0E085E0689FF0011124EE5FFE4FFC
:1023500070E081E060E091919F3FD1F0C92FC2957C
:10236000CF70D0E028A130E09F7002C0359527954E
:102370009A95E2F720FD0CC0282F622B7F5F880F13
:10238000753049F7A40FB51F6C93DF91CF91089575
:1023900020E0F3CFA4E1B0E0E0EDF1E10C948B2577
:1023A00080911601811126C084E1E0E4F1E0DE01B4
:1023B000119601900D928A95E1F7FE013196A2E007
:1023C000B1E0CE01459620812C93218111962C936A
:1023D0001197228112962C931297238113962C9396
:1023E0001397248114962C931497359615968E176F
:1023F0009F0749F78091160194E0811190E0909336
:10240000A30284E0891B809392020E946F1188E0EE
:10241000EBE9F2E0DF01982F1D929A95E9F7E3E9E5
:10242000F2E0DF011D928A95E9F784E00E945C12D8
:102430000E94F8106496E2E00C94A725A8E0B0E0B2
:10244000E4E2F2E10C9488258E010F5F1F4F88E0D3
:10245000F80111928A95E9F7F12C6F2DC8010E94BD
:102460009D11F394F4E0FF12F8CF48E050E0B8017A
:1024700083E992E00E94C62521E0009709F420E05C
:10248000892B41F088E0F801A3E9B2E001900D92B8
:102490008A95E1F76091A30270E065567D4F44E0B4
:1024A00083E992E00E945D12182F0E940A11812B8D
:1024B0002896E5E00C94A4250895CF92DF92EF9240
:1024C000FF920F931F93CF936C017B01042F222364
:1024D00049F081E080934A020E94481E909349028D
:1024E00080934802C0914A02C1110AC0C0E08C2FFB
:1024F000CF911F910F91FF90EF90DF90CF900895B3
:1025000080914802909149020E94601E059770F3E5
:1025100010E0A801B601C7010E94C625892B41F031
:10252000A801B601C7010E94D32510924A02DFCF4D
:10253000C0E0FBCF0E946D0D089580914D02811186
:1025400007C00E945425882351F081E080934D02FA
:1025500081E090914D02913009F080E0089582E091
:1025600080934D020E944F25F3CF0E94DB0C811116
:1025700002C00E946A0D0E949A12809316010E9466
:102580009D1281110E94091308950E949D128111CC
:1025900002C00E940C13089581E090914E029A307F
:1025A00008F080E008950F931F93CF93DF93EC0121
:1025B0008B0180914E028A30B8F4B801CE010E949E
:1025C0005713C82F811122C080914E028F3FB9F45A
:1025D0000E94481E90934C0280934B028C2FDF91F7
:1025E000CF911F910F91089580914B0290914C02D1
:1025F0000E94601E843F914000F7C0E0EFCF8F5FE4
:1026000080934E028A3020F7C1E0E8CF10924E024C
:10261000E5CF0E945E1B08950E94611B0895B0E003
:10262000A0E0E5E1F3E10C9486257901C82F880F3D
:10263000DD0B41155105A9F0FE0193E0EE0FFF1FE0
:102640009A95E1F7E95EFE4F81819281815B9D4F12
:10265000208130E04217530708F49A01A9010E9433
:10266000D325CE010E944A1CD82E8823D1F0011513
:102670001105B9F083E0CC0FDD1F8A95E1F7FE016B
:10268000E95EFE4F438150E00417150708F4A801E6
:10269000C95EDE4F6C817D81615B7D4FC7010E9409
:1026A000D3258D2DCDB7DEB7E7E00C94A2250E948F
:1026B000511408950E9468140895A4E0B0E0E3E680
:1026C000F3E10C9489256091640270916502809118
:1026D0006602909167020E946F1E11E064367105D8
:1026E0008105910518F10E9493106E5F7F4F8F4F07
:1026F0009F4F69837A838B839C8310E000E030E0F6
:1027000020E044E050E0BE016F5F7F4F82E00E9416
:102710000F13182F882351F00E94541E60936402F7
:10272000709365028093660290936702812F2496CE
:10273000E4E00C94A525B0E0A0E0E1EAF3E10C941C
:1027400083257C015B016A010E94CC1201E010E04C
:10275000882311F00AE010E0C1E0D0E0B501C70124
:10276000F6010995811104C021960C171D072CF460
:10277000CDB7DEB7EAE00C949F25CC9F9001CD9FAA
:10278000300D300D112490E080E045E34A95F1F7DB
:102790000000019682179307C1F7E0CFA5E0B0E0F3
:1027A000E4EDF3E10C9483255B01E090C601F09029
:1027B000C70101E010E09E012B5F3F4F50E040E079
:1027C00070E060E080E00E940F13182F882309F466
:1027D0004BC067018FEFC81AD80A609160027091F0
:1027E000610280916202909163020E946F1E6436C2
:1027F00071058105910580F104E010E09E012F5FD5
:102800003F4F50E040E070E060E081E00E940F1335
:10281000F82E64E070E0C6010E943E1711E09D8131
:10282000981310E01F2159F10E94541E609360021A
:1028300070936102809362029093630289819A810E
:10284000AB81BC8180935C0290935D02A0935E0299
:10285000B0935F0211E013C064E070E0C6010E9413
:102860003E179D818913C8CFF70181819281A38191
:10287000B48189839A83AB83BC831111DFCF8091AC
:102880005C0290915D02A0915E02B0915F02F50141
:1028900080839183A283B383812F2596EAE00C94F1
:1028A0009F250F931F93CF93DF93EC018B014EEC89
:1028B00053E10E949B13882331F04DE553E1B801A9
:1028C000CE010E949B13DF91CF911F910F9108952C
:1028D0000F931F93CF93DF93C091C601D091C7018F
:1028E000CE01019624E0FB01DC0101900D922A95B6
:1028F000E1F764E070E00E943E1788836D817E817D
:102900008F819885009158021091590220915A02A6
:1029100030915B02601771078207930751F0609353
:1029200058027093590280935A0290935B020E945E
:102930007610DF91CF911F910F9108950E9425206D
:102940000E94DD0D0E94322008950E9437200E94CF
:10295000EE0D0E94512008950E94E11D0E940B205F
:102960000E94C30D0E949E140E94A5140E94D10DC6
:10297000FBCF80916E0280FF0DC06091340170E04A
:10298000660F771F6038710570F56115710569F183
:10299000862F089581FF07C06091340184E0689F0D
:1029A000B0011124EFCF6091340182FD0AC0809103
:1029B0006D028823A9F020913301609134018217C0
:1029C00010F088E0ECCF869FC001112433E0880F1F
:1029D000991F3A95E1F7622F70E00E946125D2CFEE
:1029E00068E070E0D5CF8FE7089581E00895809189
:1029F0006E0280FF0CC06091300170E075956795A4
:102A0000759567956115710549F1862F089581FFC8
:102A100006C06091300170E075956795F3CF6091C5
:102A2000300182FD0BC090916C029923A1F060915E
:102A30002F0180913001961738F0682F70E06038D0
:102A4000710500F38FE70895899FC001112470E09C
:102A50000E946125F4CF61E070E0D7CF81E0089556
:102A60008D3C31F40E94B9148195809372020895CF
:102A70008E3C19F40E94B914F8CF8F3C31F40E94B7
:102A8000B9148195809371020895803D19F40E94D4
:102A9000B914F8CF893D29F40E94F714809373028A
:102AA00008958A3D21F40E94F7148195F7CF8B3D5C
:102AB00031F40E94F71481958093740208958C3D3F
:102AC00019F40E94F714F8CF9FE2980F983070F431
:102AD000815D990B21E030E001C0220F8A95EAF771
:102AE00080917002822B8093700208958D3D31F4A5
:102AF00080916E02816080936E0208958E3D21F474
:102B000080916E028260F7CF8F3DB9F780916E029F
:102B10008460F1CF409171028D3C59F48091720232
:102B200087FF0DC01092720241110BC010926D020E
:102B300008C08E3C81F48091720218169CF34423E5
:102B400081F08091730290917402892B09F05AC030
:102B500010926C0208958F3C49F447FFF0CF109219
:102B60007102809172028111ECCFE0CF803D19F4A7
:102B70001416ACF3E4CF90917302893D29F4191631
:102B8000F4F610927302DBCF8A3D19F497FFD7CF8A
:102B9000F8CF909174028B3D29F497FFD0CF10921B
:102BA0007402CDCF8C3D19F41916CCF3C8CF9FE237
:102BB000980F983090F4815D990B21E030E0B901D5
:102BC00002C0660F771F8A95E2F7CB01809590913E
:102BD0007002892380937002B2CF8D3D31F48091D1
:102BE0006E028E7F80936E02AACF8E3D21F480917B
:102BF0006E028D7FF7CF8F3D09F0A1CF80916E02DD
:102C00008B7FF0CF08950E94481E9C019091710225
:102C100080917202982B21F030936B0220936A020C
:102C20009091730280917402982B21F03093690285
:102C3000209368028FE692E00E94EC1C089586E0E3
:102C4000EFE6F2E0DF011D928A95E9F710926D023E
:102C500010926C0210926E020895FC018281811123
:102C60000EC0838181110BC08481811108C091E065
:102C70008581811101C090E0892F8170089581E0E4
:102C8000FCCFA6E0B0E0E7E4F6E10C948A2586E00C
:102C9000EFE6F2E0DE01119601900D928A95E1F7E0
:102CA00010927102109272021092730210927402CA
:102CB0008B819C81892B89F080916A0290916B02B3
:102CC0000E94601EAC0190916D029923C9F1809120
:102CD00035018417150608F440C08D819E81892B2B
:102CE00091F080916802909169020E94601EAC018F
:102CF00090916C02992309F471C08091310184177D
:102D0000150608F479C0BE016F5F7F4F8FE692E031
:102D10000E94991D811105C08FE692E00E942D1638
:102D200081110E94031686E0FE013196AFE6B2E003
:102D300001900D928A95E1F72696E3E00C94A62582
:102D4000209136018AE0289F90011124241735072D
:102D500020F69F5F90936D0202C09F3FD1F71B81C9
:102D6000112359F00E94B9149FEF11160CF491E051
:102D7000899F802D1124809371021C81112359F0A9
:102D80000E94B9149FEF11160CF491E0899F802DD9
:102D900011248093720230917102332309F49DCF84
:102DA00020917202222309F498CF45EB3403C0012D
:102DB0001124992359F09093710245EB240390015B
:102DC0001124332339F03093720287CF81E080934E
:102DD0007102F3CF81E0809372027FCF20913201A4
:102DE0008AE0289F900111242417350708F08BCF23
:102DF0009F5F90936C0202C09F3FD1F71D8111230A
:102E000059F00E94F7149FEF11160CF491E0899F7E
:102E1000802D1124809373021E81112359F00E948A
:102E2000F7149FEF11160CF491E0899F802D112467
:102E30008093740230917302332309F464CF20919C
:102E40007402222309F45FCF45EB3403C00111243F
:102E5000992359F09093730245EB240390011124B8
:102E6000332339F0309374024ECF81E080937302A4
:102E7000F3CF81E08093740246CF0895FC01680F80
:102E8000791F8FEF91E3E617F70709F40895219171
:102E9000822728E030E087FF06C0880F892721506D
:102EA0003109C9F7F0CF880FFACFFB012281222325
:102EB00041F097FF06C09F77BC0190E080E00E9440
:102EC000A61881E008950F931F93CF93DF93EC0131
:102ED0008B01FB0182818823B1F00E94EA0B827290
:102EE000FE01E053FC47E830F10568F4E45DF94D7C
:102EF0000C947525811104C081E003C08111FCCFC1
:102F00008FEF0E94C617B801CE010E945517DF91BE
:102F1000CF911F910F91089580E00E94CE17F3CFBB
:102F200081E0FBCF82E0F9CF83E0F7CF84E0F5CFFB
:102F300085E0F3CF9091A502923071F48A3050F47D
:102F400090E009966AE070E00E946125875A0E942D
:102F5000C20408958650FBCF0E94271A0895089551
:102F60000E94AF1708958CE090E00E94DC25482F66
:102F700050E070E060E04093A5025093A602609399
:102F8000A7027093A8020E94B01708950895609157
:102F9000A5028CE090E00E94EA250895CF93C82F07
:102FA0008093A5020E94C7178C2F0E94B017CF9163
:102FB00008950E94DE1C8093A4029091A502913096
:102FC00029F481FF03C089E30E94C2040E94EA0B36
:102FD0008093A9020E94FD0B0E940D0C8091A50216
:102FE000823021F158F48823C1F08130D1F08FE391
:102FF0009CE90197F1F700C000000895843051F179
:103000008530A9F78BE191E00E94CE0285E290E045
:103010000E94CE0288E290E006C082EE0E942A045E
:10302000E6CF88E193E00E94CE02E1CF8091A40236
:1030300080FD03C083E50E94C20482EE0E942A0440
:103040008FE39CE90197F1F700C0000087E50E943B
:10305000C204CDCF86EE0E94C20488E1F8CF8091F1
:10306000A502823011F148F4882381F0813091F07B
:103070008091A9020E94FA0B08958430F9F08530FE
:10308000B9F788E290E00E94CE02F2CF82EE0E9471
:103090007704EECF8CE20E94C2048091A40281FFEB
:1030A000E7CF89E30E94C204E3CF82EE0E94770457
:1030B0008091A40280FDDCCF83E5F4CF88E2F2CFDB
:1030C0008F929F92AF92BF92EF92FF920F931F93B6
:1030D000CF93DF934B015C01D091A5028CE1E82EE8
:1030E000F12C07E010E021E0D501C4010E2C04C052
:1030F000B695A795979587950A94D2F7C82FCF7064
:10310000222339F0D43051F4CA3040F080E00E94DC
:103110009A178C2F0E949A1720E005C0C111F9CF91
:1031200004301105B4F30150110984E0E81AF108E4
:103130000F3F1007C9F6DF91CF911F910F91FF90BC
:10314000EF90BF90AF909F908F900895CF92DF92B5
:10315000EF92FF926B017C01C114D10481E1E8067A
:10316000F104A0F5C114D10481E0E806F10420F0D7
:103170008091A502823051F10E94D917C114D10467
:1031800081E0E806F10438F18091A502811123C0A5
:1031900081E0E81AF108C701B6012AE09695879503
:1031A000779567952A95D1F778528F4F9F4F0E9458
:1031B000601883E0D822EE24FF24C701B6017452C0
:1031C0008F4F9F4F0E9460180E942F18FF90EF9022
:1031D000DF90CF900895C701B601F4CFCF93DF936E
:1031E000EC01FB018281882309F4D2C09E01305793
:1031F0002332310508F0B2C00E94F00C9093910286
:1032000080939002FE01E150F047E232F10520F494
:10321000EC5CF94D0C94752580919002816080934F
:10322000900293C0809191028860809391028DC03A
:10323000809190028260F3CF809190028460EFCF02
:10324000809190028860EBCF809191028160EDCFF8
:10325000809191028260E9CF809190028061DFCFFE
:10326000809190028062DBCF809190028064D7CF02
:103270000E944307809190028068D1CF8091900294
:103280008C60CDCF809191028360CFCF80919002EE
:103290008E7FC5CF80919102877FC7CF80919002AA
:1032A0008D7FBDCF809190028B7FB9CF80919002AE
:1032B000877FB5CF809191028E7FB7CF80919102A9
:1032C0008D7FB3CF809190028F7EA9CF80919002A5
:1032D0008F7DA5CF809190028F7BA1CF0E94430765
:1032E000809190028F779BCF80919002837F97CFC0
:1032F000809191028C7F99CF8091900282FB9927D7
:1033000090F921E0922790FB82F990FB83F987CF17
:1033100080919102982F909591708E7F892B90FBD0
:1033200081F983CF90919002892F8F7B96FF8064E3
:1033300076CF0E94430790919002892F97FB87F9DF
:1033400080586DCF81E00E94770D8091900290911E
:1033500091020E94F50C0E94430780E0DF91CF911B
:10336000089580E0F0CF90919002892F8F7E94FF96
:10337000806155CF90919002892F8E7F90FF816060
:103380004ECF90919102892F877F93FF88604DCF18
:1033900081E0E4CFB0E0A0E0E0EDF9E10C94862517
:1033A000E82FF0E0E45CFD4FD490282F2695269579
:1033B000269530E0F901E452FD4F0491877010E04A
:1033C000082E02C0159507950A94E2F7017011279F
:1033D000F901E453FD4FE490F12C082E02C0F5945E
:1033E000E7940A94E2F791E0E922FF24F901E4541A
:1033F000FD4FC491D0E002C0D595C7958A95E2F7FC
:10340000C170DD270115110519F081EE0E942A0413
:10341000E114F10419F086EE0E942A048D2D0E9419
:10342000C204E114F10419F086EE0E94770401153C
:10343000110519F081EE0E947704CD2B19F08CE272
:103440000E94C204CDB7DEB7E7E00C94A225982F06
:103450009F709A50963020F0805D0E94CA1908959E
:10346000895AFBCFCF93DF93EB0186319C4711F54F
:103470000E94EA0B9A81992399F08A7A91E009F4E3
:1034800090E090937502811109C089E20E94C20BFD
:103490000E942E0C80E0DF91CF91089585E3F6CF56
:1034A00080917502811104C089E20E94CA0BF0CF9D
:1034B00085E3FBCF81E0EFCF0F931F93CF93DF9393
:1034C000C42FD22FFC0182818823C9F04093780257
:1034D0000E94481E909377028093760280E28C0FC0
:1034E000883040F4C77081E001C0880FCA95EAF7C0
:1034F0000E94CB04DF91CF911F910F9108951091FD
:103500007802141332C080917602909177020E9463
:10351000601E883C910548F5C0E2CD0F1D17B9F03B
:1035200080E2810F883040F4177081E001C0880F7D
:103530001A95EAF70E94D204C83048F481E09D2F22
:10354000977001C0880F9A95EAF70E94CB04802FEC
:103550000E94C204C83070F6D77081E001C0880FA5
:10356000DA95EAF70E94D204C5CF80E28C0F88304A
:1035700008F6C77081E001C0880FCA95EAF7F2CF5C
:103580000F93DB0188519C4787309105A0F5FC0122
:10359000EA5AF94D0C94752506E221EE41EE6AE1F6
:1035A0007CE7CD010E945C1A80E00F91089507E24C
:1035B00025EE45EE6BE17CE7F4CF06E221EE40EE2E
:1035C00068E17CE7EECF07E225EE44EE69E17CE7B7
:1035D000E8CF06E221EE42EE6CE17CE7E2CF07E2C3
:1035E00025EE46EE6DE17CE7DCCF08E221E045EE1A
:1035F0006EE17CE7D6CF12968C91882319F0109259
:103600007802D3CF81E0D1CF8EE14A9B02C08150B6
:10361000E1F74A9BFECF08955A9880E28A95F1F728
:103620005A9A0895FC013BE03A95F1F798E020E0C2
:1036300080E031E040E14A95F1F7880F4A9B02C0F3
:103640008160232742E04A95F1F7000040E14A9566
:10365000F1F7915079F790E19A95F1F799B132E04D
:103660003A95F1F7000040E14A95F1F792FB99276E
:1036700090F992272081920F90830895A1E0B0E005
:10368000E4E4FBE10C94872519828C017C01E60EB1
:10369000F11C0E151F0541F481E09981911180E024
:1036A0002196E6E00C94A3250E94041BCE0101960E
:1036B0000E94121BF80181938F01EBCF529A5A9A04
:1036C000089552985A9AEA9AE9E6F0E080818F7C50
:1036D000808308956150770B91E001C0990F6A953E
:1036E000EAF720E031E0911108C0222391F05A9AC4
:1036F00080E28A95F1F75A980895492F482339F0C6
:103700005A9A232740E24A95F1F79695ECCF5A98BA
:10371000F9CF5A98EDCFFF920F931F93CF93DF937A
:10372000EC018C01060F111DC017D10729F4CDB78C
:10373000DEB7E5E00C94A425F9900E940C1B68E02C
:103740008F2D0E946A1BF0CF1F920F920FB60F921F
:1037500011240F931F932F933F934F935F936F9376
:103760007F938F939F93AF93BF93EF93FF93CF93E9
:10377000DF930F92CDB7DEB719820E94041BCE01F2
:1037800001960E94121B082F069506950695282F74
:1037900022952570902F9570290F922F9370269562
:1037A0002695920F982797708981982B09F05CC015
:1037B000043008F059C080E18A95F1F75A9A529A7C
:1037C00082E08A95F1F700C05A9888E0089F80014E
:1037D0001124D801A95EBE4F1696ED91FC91179762
:1037E0003097A9F06091C6017091C70114962D9190
:1037F0003C911597260F371F11968D919C9112972A
:10380000680F791F13964C9113978C910995F801C5
:10381000E95EFE4F6381662351F02091C60130912D
:10382000C70184819581820F931F0E948B1B0E9488
:103830000C1B80E18A95F1F75A9852985A9A80E1C8
:103840008A95F1F7F801E95EFE4F6081662351F039
:103850002091C6013091C70181819281820F931F0F
:103860000E943E1B0E94041B0F90DF91CF91FF919D
:10387000EF91BF91AF919F918F917F916F915F91E8
:103880004F913F912F911F910F910F900FBE0F906D
:103890001F9018950F931F93CF93DF93EC0104971C
:1038A0000CF04CC0F894529A5A9885E08A95F1F73A
:1038B00000009C2F969595708C2F8570980F892FFE
:1038C00083709695969523E0CC0FDD1F2A95E1F73E
:1038D000980F8E01092B0E940C1B00C068E0802FFE
:1038E0000E946A1B80E18A95F1F752985A9A4A9B86
:1038F0001EC087E090E04A991CC0FE01E95EFE4FC1
:1039000063816623F9F02091C6013091C70184815B
:103910009581820F931F0E943E1B811113C0529A02
:103920005A9A7894DF91CF911F910F91089500C01A
:10393000DECF019729F4529A5A9A789480E0F2CF18
:1039400000C0D9CF0E94041B80E28A95F1F75A98F3
:10395000529A80E18A95F1F7C95EDE4F688166234D
:1039600051F02091C6013091C70189819A81820F5F
:10397000931F0E948B1B0E940C1B789481E0D2CF76
:103980009093C9018093C801089590937F0280931A
:103990007E0208950E949D12811103C080917902D8
:1039A0000895E0917E02F0917F02309729F0019016
:1039B000F081E02D0995089580E008950E94CA1CC9
:1039C0000895E0917E02F0917F02309721F002800D
:1039D000F381E02D09950895E0917E02F0917F0238
:1039E000309739F022E0DC012C930480F581E02D42
:1039F00009950895A3E0B0E0E0E0FDE10C948B258B
:103A000020917C0230917D0228173907A1F0909314
:103A10007D0280937C02E0917E02F0917F023097DC
:103A200051F023E029839B838A830680F781E02D70
:103A3000CE01019609952396E2E00C94A725A3E018
:103A4000B0E0E5E2FDE10C948B2520917A02309103
:103A50007B0228173907A1F090937B0280937A02AA
:103A6000E0917E02F0917F02309751F024E02983AB
:103A70009B838A830680F781E02DCE01019609950C
:103A80002396E2E00C94A7259C012E5F3F4FAC01EA
:103A9000485F5F4F80E02417350709F40895F90166
:103AA00091919F019923B9F38F5FF5CF662349F078
:103AB000FC01329608962191261729F0E817F9079C
:103AC000D1F780E0089581E008959C01FC013296D1
:103AD0009FEF80E04191461751F09F3F19F441114B
:103AE00001C0982F8F5F8630A9F79F3F09F4089592
:103AF000290F311D97FD3A95F90162830895FC0164
:103B0000329608962191261303C0DF0111971C926B
:103B1000E817F907B9F708950E94651D08950E94F6
:103B20007F1D0895029626E0FC0111922A95E9F77F
:103B3000089546E050E00E94C62521E0892B09F453
:103B400020E0822F089508950E94A31D08958111F9
:103B500006C081E0809380020E94A41D089582E047
:103B6000F9CF83E0809380020E94A41D08950E94F3
:103B7000A71D089581E0809380020E94A41D0895EE
:103B80000E94BA1D0895089508950E94C41D0895C5
:103B9000089508950E94C31D0895CF930E94C81DE3
:103BA0000E941E120E94C91DC0E08C2F0E94FF10AF
:103BB000811105C0CF5FC830C1F7CF91089581E072
:103BC000FCCF85B7806885BF85B7806885BF0895BD
:103BD0001F921FB61F9211248F939F93AF93BF9391
:103BE00080918102811113C08091AA029091AB0251
:103BF000A091AC02B091AD024196A11DB11D809380
:103C0000AA029093AB02A093AC02B093AD02BF9115
:103C1000AF919F918F911F901FBE1F90189580911B
:103C2000B202843031F10E949C031092810288E13B
:103C300090E020E40FB6F894A895809360000FBE42
:103C40002093600083B7817F846083BF83B78160E6
:103C500083BF7894889583B78E7F83BF0FB6F8941F
:103C6000A895809160008861809360001092600048
:103C70000FBE08950E9443070E94A103089582E0A9
:103C800084BD93E095BD9AEF97BD80936E00089533
:103C90002FB7F8948091AA029091AB02A091AC0248
:103CA000B091AD022FBF08952FB7F8946091AA028A
:103CB0007091AB028091AC029091AD022FBF08953C
:103CC0009C014FB7F8948091AA029091AB02A09109
:103CD000AC02B091AD024FBF821B930B0895CF92FF
:103CE000DF92EF92FF922FB7F894C090AA02D09083
:103CF000AB02E090AC02F090AD022FBFA70196019D
:103D0000261B370B480B590BCA01B901FF90EF90E6
:103D1000DF90CF90089578941F921FB61F921124C0
:103D20008F939F93AF93BF938091AA029091AB0220
:103D3000A091AC02B091AD020196A11DB11D80937E
:103D4000AA029093AB02A093AC02B093AD02BF91D4
:103D5000AF919F918F911F901FBE1F90189587E77D
:103D600097E7909301088093000888E19AE00FB6E6
:103D7000F894A895809360000FBE90936000FFCFE9
:103D800088E19AE00FB6F894A895809360000FBE82
:103D900090936000FFCF80918A0208959B01BA0141
:103DA0009091B2029430E9F48F708093E9009FEF14
:103DB0008091E800915085FD06C085ED8A95F1F768
:103DC00000009111F5CF8091E80085FF0AC050E016
:103DD00040E0C9010E94C8208091E8008E7780935E
:103DE000E800089543E050E0BC0182E00E94CE1E4E
:103DF000089546E050E0BC0182E00E94CE1E089586
:103E0000CF93DF93EC0148E050E0BC0181E00E94D9
:103E1000CE1E88E0FE01A2E8B2E001900D928A95E4
:103E2000E1F7DF91CF9108958091B102811109C02E
:103E30000E9458220E94B5228091E2008460809303
:103E4000E20008951092B10208950E94BA1D0895EB
:103E50006091AE0281E0611101C080E00E94B11D5D
:103E600008959091B20281E0943009F080E0609171
:103E7000AE020E94B71D089542E061EC81E00E940D
:103E8000D42142E261EC82E00E94D4219091B202FE
:103E900081E0943009F080E06091AE020E94A71D9D
:103EA00008958091B402833009F461C030F4813008
:103EB000D1F1823009F49EC008958A3009F48AC095
:103EC0008B3009F46FC0893009F050C08091B30283
:103ED000813209F04BC08091B7029091B8020297ED
:103EE00008F044C08091E800877F8093E8008091CB
:103EF000E80082FF37C09091F3008091F2000297B2
:103F000031F48091F100813011F0863021F48091FC
:103F1000F10080938A028091E8008B778093E8001B
:103F20000E94082223C08091B302813AF9F4809163
:103F3000E800877F8093E8008091B7029091B802F3
:103F4000892B61F468E082E892E070E00E9417211A
:103F50008091E8008B778093E800089560E090E01E
:103F600080E0F3CF8091B2028111C1CF089580919A
:103F7000B302813AD9F78091B7029091B802892BA8
:103F8000A9F78091E800877F8093E8008091E8009E
:103F900080FFFCCF80913F018093F1008091E80089
:103FA0008E77BCCF8091B302813201F78091B70246
:103FB0009091B802892BD1F68091E800877F809399
:103FC000E8000E9408228091B50280933F010E9480
:103FD000430708958091B302813241F68091E80051
:103FE000877F8093E8000E9408228091B602809328
:103FF0008B0208958091B302813A09F0B7CF809186
:10400000E800877F8093E8008091E80080FFFCCF84
:1040100080918B02C1CF84B7877F84BF0FB6F8949D
:10402000A895809160008861809360001092600084
:104030000FBE80E890E00FB6F894809361009093F3
:1040400061000FBE0E94C01D08950E9458220E9468
:10405000B522E2EEF0E080818460808378940E9453
:104060003425089587E391E00E94C51C089580914E
:10407000B202853031F48091B202853019F00E948D
:104080003A1E08950E940F1E8091B002882399F372
:104090000E94CD1D882379F30E94B2200E9443071D
:1040A000EACF08959A014091B9025091BA020E9454
:1040B0005A200895492F55274330510519F168F4C6
:1040C0004130510509F444C04230510509F445C05E
:1040D00090E080E050E040E025C04132510549F1D8
:1040E00042325105A9F780E490E04EED53E06115AE
:1040F0007105C1F08BE790E043E653E06130710554
:1041000089F0E6CF99278130910581F0009729F059
:104110000297F1F6ECEEF2E002C0E2E1F3E0849106
:1041200090E0AF01F901518340830895E8E0F3E0A6
:10413000F6CF89E090E048E253E06115710591F314
:1041400089E090E041E453E06130710559F3C0CF5C
:1041500082E190E041E553E0E5CF8BE390E046E17A
:1041600053E0E0CF80E189BD82E189BD09B400FE62
:10417000FDCF8091D8008F7D8093D8008091E000A2
:1041800082608093E0008091E00081FDFCCF089583
:10419000AF92BF92CF92DF92FF920F931F93CF9374
:1041A000DF936C01EB018A010E942722F82E811116
:1041B00023C00115110539F0F80180819181C81BD8
:1041C000D90BC80ED91EB12CA12C2097A9F0809133
:1041D000E80085FD22C08091E8008E778093E8009A
:1041E00001151105A1F0F80180819181A80EB91E79
:1041F000B182A08285E0F82E8F2DDF91CF911F91A3
:104200000F91FF90DF90CF90BF90AF9008950E94E4
:1042100027228823D1F2F82EEFCFF60181916F018A
:104220008093F1002197FFEFAF1ABF0ACECFFC01B8
:104230008091B9029091BA0286179707A0F0611594
:10424000710529F49091E8009E779093E80090E042
:104250006115710551F4911108C08091E80082FF49
:1042600034C080E00895BC01F2CF8091B20288236F
:10427000C1F18530C1F18091E80083FD30C08091AB
:10428000E80082FDEACF8091E80080FFE1CF8091D5
:10429000F3002091F200382F6115710519F02830D4
:1042A000310558F091E02830310509F090E0209177
:1042B000E8002E772093E800CBCF81918093F10026
:1042C000615071092F5F3F4FE7CF8091B202882381
:1042D00041F0853041F08091E80083FFBECF81E05E
:1042E000089582E0089583E00895FC018091B90269
:1042F0009091BA0286179707A0F06115710529F40D
:104300008091E8008E778093E80090E06115710558
:1043100051F4911108C08091E80082FF35C080E01F
:104320000895BC01F2CF8091B2028823C9F1853093
:10433000C9F18091E80083FD31C08091E80082FDE1
:10434000EACF8091E80080FFE1CF8091F3002091D7
:10435000F200382F6115710519F02830310558F039
:1043600091E02830310509F090E08091E8008E77E7
:104370008093E800CBCF84918093F1003196615017
:1043800071092F5F3F4FE6CF8091B202882341F041
:10439000853041F08091E80083FFBDCF81E0089532
:1043A00082E0089583E00895982F973028F08F7069
:1043B0008093E90081E008959093E900242F762FFF
:1043C00050E0981731F07091EC002091ED00509181
:1043D000F00021FD02C09F5FE8CF3091EB003E7FEF
:1043E0003093EB003091ED003D7F3093ED00309144
:1043F000EB0031603093EB007093EC002093ED0004
:104400005093F0002091EE0027FDE5CF80E0089565
:104410008091B30287FF13C08091E80082FF06C03D
:104420008091E8008B778093E80004C08091B2020D
:104430008111F2CF08958091B2028823D9F380913F
:10444000E80080FFF8CF8091E8008E77ECCF2091D4
:10445000E4003091E50095E6A9012091EC00822F5F
:10446000817020FF06C08091E80080FF06C080E0D8
:1044700008952091E80022FD1AC08091B20288239D
:1044800089F0853089F08091EB0085FD0FC0209187
:10449000E4003091E50042175307F9F29150E1F63C
:1044A00084E0089582E0089583E0089581E008950E
:1044B0000E94C7220E94CF22E0EEF0E0808181605E
:1044C0008083E8EDF0E080818F77808319BCA7EDD1
:1044D000B0E08C918E7F8C9380818F7E8083109250
:1044E000B10208950F931F93CF93DF930E94C722C9
:1044F0000E94CF22C8EDD0E088818F7788838881A1
:104500008068888388818F7D888319BC1092B2026D
:104510001092AE021092B0021092AF0200EE10E0C4
:10452000F80180818B7F808388818160888342E06D
:1045300060E080E00E94D421E1EEF0E080818E7F97
:104540008083E2EEF0E080818160808380818860FA
:104550008083F80180818E7F808388818061888359
:10456000DF91CF911F910F910895E8EDF0E08081E8
:104570008F7E8083E7EDF0E080818160808384E03E
:1045800082BF81E08093B1020E9472220895E8ED1B
:10459000F0E080818E7F80831092E2000895109277
:1045A000DA001092E10008951F920F920FB60F9259
:1045B00011242F933F934F935F936F937F938F9328
:1045C0009F93AF93BF93EF93FF938091E10082FF9E
:1045D0000BC08091E20082FF07C08091E1008B7FD9
:1045E0008093E1000E9433258091DA0080FF19C09A
:1045F0008091D80080FF15C08091DA008E7F809373
:10460000DA008091D90080FF96C080E189BD82E107
:1046100089BD09B400FEFDCF81E08093B2020E9403
:10462000141F8091E10080FF19C08091E20080FF9B
:1046300015C08091E2008E7F8093E2008091E200BD
:1046400080618093E2008091D80080628093D800DE
:1046500019BC85E08093B2020E94281F8091E1007E
:1046600084FF2BC08091E20084FF27C080E189BDD8
:1046700082E189BD89B5982F917080FFFBCF809131
:10468000D8008F7D8093D8008091E1008F7E809349
:10469000E1008091E2008F7E8093E2008091E20051
:1046A00081608093E2008091AE02882309F449C0C2
:1046B00084E08093B2020E94311F8091E10083FF69
:1046C00029C08091E20083FF25C08091E100877FAF
:1046D0008093E10082E08093B2021092AE0280915A
:1046E000E1008E7F8093E1008091E2008E7F8093D5
:1046F000E2008091E20080618093E20042E060E0AD
:1047000080E00E94D4218091F00088608093F000C6
:104710000E94251FFF91EF91BF91AF919F918F91C3
:104720007F916F915F914F913F912F910F900FBEAD
:104730000F901F90189519BC1092B2020E94221F70
:1047400070CF8091E30087FD93E09093B202B3CFE6
:104750001F920F920FB60F9211242F933F934F93F6
:104760005F936F937F938F939F93AF93BF93CF93F9
:10477000DF93EF93FF93D091E900DF708091EC001D
:10478000C82FC17080FDC0E81092E9008091F00050
:10479000877F8093F00078940E94EC231092E900C8
:1047A0008091F00088608093F000CD2BCF70C09393
:1047B000E900FF91EF91DF91CF91BF91AF919F9170
:1047C0008F917F916F915F914F913F912F910F90BA
:1047D0000FBE0F901F901895AAE2B0E0E2EFF3E24F
:1047E0000C948A2583EB92E02091F100FC01219347
:1047F000CF01F2E08B3B9F07B9F70E94511F8091D8
:10480000E80083FF1EC18091B3029091B4029A30F8
:1048100008F017C1E92FF0E0E35AF94D0C94752523
:10482000803899F0823809F00CC18091B7028F70FE
:10483000873008F006C18093E9008091EB0085FB8A
:10484000882780F91092E90006C08091AF0290910C
:10485000B002911182609091E800977F9093E800F8
:104860008093F1001092F1008091E8008E77E5C00E
:10487000882309F4D3C0823009F0E3C08091B502E7
:104880008111D6C08091B7028F702FEF280F26308C
:1048900008F0D7C08093E9002091EB0020FFC8C04A
:1048A000933031F48091EB0080628093EB00C0C0C4
:1048B0009091EB0090619093EB0021E030E001C01B
:1048C000220F8A95EAF72093EA001092EA0080917D
:1048D000EB008860EACF8111B4C01091B5021F7758
:1048E0008091E3008078812B8093E3008091E80041
:1048F000877F8093E8000E9408228091E80080FF73
:10490000FCCF8091E30080688093E30082E0111186
:1049100083E08093B20295C08058823008F091C045
:104920008091B5029091B6028C3D23E09207A1F5EB
:1049300083E08A838AE289834FB7F894DE01139675
:1049400020E03EE051E2E32FF0E050935700E49185
:1049500020FF03C0E295EF703F5FEF708E2F90E075
:10496000EA30C0F0C7968D939D932F5F243159F79D
:104970004FBF8091E800877F8093E8006AE270E093
:10498000CE0101960E9417218091E8008B778093D9
:10499000E80057C0C096E7CF6091B7027091B802A7
:1049A000AE014F5F5F4F0E945220BC01892B09F47A
:1049B00048C09091E800977F9093E80089819A81A0
:1049C0000E947521E1CF8038E1F58091E800877F72
:1049D0008093E8008091AE028093F10045CF811171
:1049E00030C09091B502923060F58091E800877FE9
:1049F0008093E8009093AE020E9408228091AE025C
:104A0000882311F084E005C08091E30087FDFACF90
:104A100081E08093B2020E943C1F13C08091B502D6
:104A2000813079F481E0933009F080E08093B00226
:104A30001092E9008091E800877F8093E8000E944F
:104A400008228091E80083FF0AC08091E800877FF8
:104A50008093E8008091EB0080628093EB00AA963F
:104A6000E3E00C94A6250895CF938091B2028823A9
:104A7000A1F0C091E900CF709091EC00892F817076
:104A800090FD80E8C82B1092E9008091E80083FD3A
:104A90000E94EC23CF70C093E900CF9108950E944B
:104AA00058221092B2020895E8EDF0E08081806112
:104AB00080838AE18A95F1F700C08091D9008170E6
:104AC000089597FB072E16F4009407D077FD09D0C0
:104AD0000E94B22507FC05D03EF4909581959F4F2A
:104AE0000895709561957F4F0895EE0FFF1F059013
:104AF000F491E02D09942F923F924F925F926F9222
:104B00007F928F929F92AF92BF92CF92DF92EF925D
:104B1000FF920F931F93CF93DF93CDB7DEB7CA1BDE
:104B2000DB0B0FB6F894DEBF0FBECDBF09942A8809
:104B3000398848885F846E847D848C849B84AA84B1
:104B4000B984C884DF80EE80FD800C811B81AA813E
:104B5000B981CE0FD11D0FB6F894DEBF0FBECDBF09
:104B6000ED010895AA1BBB1B51E107C0AA1FBB1F83
:104B7000A617B70710F0A61BB70B881F991F5A95E9
:104B8000A9F780959095BC01CD010895FB01DC014A
:104B900004C08D910190801921F441505040C8F714
:104BA000881B990B0895FB01DC0102C001900D9256
:104BB00041505040D8F70895F999FECF92BD81BD7C
:104BC000F89A992780B50895A8E1B0E042E050E056
:104BD0000C941026262FF999FECF92BD81BDF89A2C
:104BE000019700B4021639F01FBA20BD0FB6F89431
:104BF000FA9AF99A0FBE08950396272F0E94EB2583
:104C00000E94EA25252F0E94EB25242F0C94EB25EA
:104C10000196272F0E94EB250C94EA25DC01CB019D
:104C2000FC01F999FECF06C0F2BDE1BDF89A3196BC
:104C300000B40D9241505040B8F70895F894FFCF5A
:104C40001805180569056905DC05F80547054705D8
:104C5000FD056E067D067D067A177E178C17901768
:104C600092179417961798174619BA194E191819CA
:104C70001C1952192019561962192C19B319301917
:104C8000661934196A19921938196E1999193E1949
:104C900074197C1924195A1928195E19421978199E
:104CA0008819A219B11912194A19C119DD1AE31A82
:104CB000CC1AD71AE91AEF1AF51A1024382421252C
:0E4CC000382421256B248C242125E324EF24A5
:104CCE002A02C6F7F6F5F431333236939190946694
:104CDE00973435FFFFFF01000000010000000000C7
:104CEE000000040100000004050000000000002880
:104CFE000850011E0A1401CB1E001FF91EF21E01E0
:104D0E00F4F5F6F7C69336323331976694909135B3
:104D1E0034FFFFFFE200E900EA00B500B600B7007D
:104D2E00CD008301CC008A0192019401210223025D
:104D3E0024022502260227022A02B300B4006F00C5
:104D4E0070009F01CB019F02A002818283E200E9E5
:104D5E0000EA00B500B600B700CD008301CC008A92
:104D6E000192019401210223022402250226022728
:104D7E00022A02B300B4006F0070009F01CB019FA6
:084D8E0002A0028182834F02A2
:00000001FF
