:100000000C94FD010C941A020C941A020C94112405
:100010000C941A020C941A020C941A020C941A02F0
:100020000C941A020C941A020C94332B0C94052C89
:100030000C941E260C941A020C941A020C941A02A8
:100040000C941A020C941A020C941A020C941A02C0
:100050000C941A020C94C2260C941A020C941A02E4
:100060000C941A020C941A020C941A020C941A02A0
:100070000C941A020C941A020C941A020C941A0290
:100080000C941A020C941A020C941A020C941A0280
:100090000C941A020C941A020C941A020C941A0270
:1000A0000C941A020C941A020C941A02A30BA30BC0
:1000B000D10BD10B360C540C710D710D5F0CFA0C79
:1000C0000D0D0D0D722C992C912D992C912DE52C47
:1000D000082D912D5F2D6E2D14001A0008001500BB
:1000E000170004001600076409680A001D001B00C1
:1000F00006001900050002552A000000000000005B
:100100001C0018000C00015713000B000D780E7432
:100110000F003300110010000257005738002C71F7
:10012000115000000000000029001F0220020457A7
:1001300022022B002E0030043006055735020657E8
:100140002F042F06340210502A0000000000000087
:1001500023022402250233002A000F572F02300207
:10016000105728002F0026022702300013502C744D
:1001700012500000000000002900AE00AC00AB00EF
:100180002D022B000100AA00A9002E02005C5500E0
:10019000BE00BD0063001050E3000000000000003E
:1001A0002D0024002500260001002E002100220041
:1001B0002300280027001E001F0020000100E60089
:1001C00012500000000000000757FB00ED00FC008B
:1001D00008570957EF00EE00F0004C680B57F2008B
:1001E000F900FA00010010500100000000000000BA
:1001F0002F082B032B11300801000D575178527432
:100200000E572800F100FD00FE00FF000000E60090
:10021000115000000000000000000000000000007D
:100220002A2B280000000000000000000000000051
:1002300000000029000000002C1E3420212224345C
:100240002627252E362D3738271E1F20212223242E
:1002500025263333362E37381F0405060708090ACA
:100260000B0C0D0E0F101112131415161718191A66
:100270001B1C1D2F3130232D350405060708090AE4
:100280000B0C0D0E0F101112131415161718191A46
:100290001B1C1D2F3130354C0000000000000000F9
:1002A000000000000000000000000000000000004E
:1002B0000000000000000000000000007E0F00D4DD
:1002C000FFFFFFC7000000781A03460065007200B8
:1002D00072006900730020007300770065006500FC
:1002E00070000000080344005000420000000403B6
:1002F000090409023B00020100A0FA090400000100
:1003000003010100092111010001224000070581BC
:100310000308000109040100010300000009211184
:10032000010001227B000705820320000112010069
:100330000200000008ABC2393901000102000105CA
:10034000010902A10185020901A10005091901297C
:10035000081500250195087501810205010930097C
:10036000311581257F95027508810609381581258B
:100370007F950175088106050C0A38021581257FD5
:10038000950175088106C0C005010980A10185039A
:1003900019012AB700150126B700950175108100D3
:1003A000C0050C0901A101850419012AA00215014B
:1003B00026A002950175108100C005010906A10162
:1003C000050719E029E71500250195087501810247
:1003D0009501750881010507190029FF150026FF01
:1003E0000095067508810005081901290595057510
:1003F000019102950175039101C011241FBECFEF39
:10040000DAE0DEBFCDBF13E0A0E0B1E0EEEBFCE54B
:1004100002C005900D92A833B107D9F724E0A8E3F4
:10042000B3E001C01D92A733B207E1F70E94401C60
:100430000C945D2E0C940000CF93DF93EC01888127
:10044000833061F482E190E00E94790882E190E0DB
:100450000E94790882E190E00E94790888818430C6
:1004600030F082E190E0DF91CF910C947908DF9138
:10047000CF910895CF93DF93EC018881833061F4AD
:1004800086E390E00E94790886E390E00E94790874
:1004900086E390E00E9479088881843030F086E31A
:1004A00090E0DF91CF910C947908DF91CF9108957E
:1004B000CF93DF93EC018881833061F487E390E090
:1004C0000E94790887E390E00E94790887E390E032
:1004D0000E9479088881843030F087E390E0DF91D2
:1004E000CF910C947908DF91CF910895CF93DF934A
:1004F000EC018881833061F481E292E00E94790806
:1005000081E292E00E94790881E292E00E947908FB
:100510008881843030F081E292E0DF91CF910C94B9
:100520007908DF91CF910895CF93DF93EC01888113
:10053000833061F484E390E00E94790884E390E0E2
:100540000E94790884E390E00E94790888818430D1
:1005500030F084E390E0DF91CF910C947908DF9143
:10056000CF910895CF93DF93EC018881833061F4BC
:1005700080E294E00E94790880E294E00E94790889
:1005800080E294E00E9479088881843030F080E233
:1005900094E0DF91CF910C947908DF91CF91089589
:1005A000CF93DF93EC018881833061F489E290E09E
:1005B0000E94790889E290E00E94790889E290E03F
:1005C0000E9479088881843030F089E290E0DF91E0
:1005D000CF910C947908DF91CF910895CF93DF9359
:1005E000EC018881833061F484E190E00E94790815
:1005F00084E190E00E94790884E190E00E9479080B
:100600008881843030F084E190E0DF91CF910C94C8
:100610007908DF91CF910895CF93DF93EC01888122
:10062000833061F48BE290E00E9479088BE290E0E5
:100630000E9479088BE290E00E94790888818430DA
:1006400030F08BE290E0DF91CF910C947908DF914C
:10065000CF910895CF93DF93EC018881833061F4CB
:100660008CE490E00E9479088CE490E00E94790884
:100670008CE490E00E9479088881843030F08CE42A
:1006800090E0DF91CF910C947908DF91CF9108959C
:10069000CF93DF93EC018881833061F485E390E0B0
:1006A0000E94790885E390E00E94790885E390E054
:1006B0000E9479088881843030F085E390E0DF91F2
:1006C000CF910C947908DF91CF910895CF93DF9368
:1006D000EC018881833061F48CE290E00E9479081B
:1006E0008CE290E00E9479088CE290E00E94790808
:1006F0008881843030F08CE290E0DF91CF910C94CF
:100700007908DF91CF9108950C946603CF93DF931E
:10071000EC018881833061F480E590E00E947908E3
:1007200080E590E00E94790880E590E00E947908D9
:100730008881843030F080E590E0DF91CF910C9497
:100740007908DF91CF910895CF93DF93EC018881F1
:10075000833061F48FE490E00E9479088FE490E0A8
:100760000E9479088FE490E00E94790888818430A3
:1007700030F08FE490E0DF91CF910C947908DF9115
:10078000CF910895CF93DF93EC018881833061F49A
:1007900081E390E00E94790881E390E00E9479086B
:1007A00081E390E00E9479088881843030F081E311
:1007B00090E0DF91CF910C947908DF91CF9108956B
:1007C000CF93DF93EC018881833061F481E392E081
:1007D0000E94790881E392E00E94790881E392E027
:1007E0000E9479088881843030F081E392E0DF91C3
:1007F000CF910C947908DF91CF9108958FE39CE914
:100800000197F1F700C0000080917702823061F01B
:1008100018F4813031F00CC0833019F0853021F0AC
:1008200007C082E190E002C08DE290E00E94630880
:100830001092770208958FE39CE90197F1F700C0C9
:10084000000080917702823049F018F4813049F03D
:100850000CC0833031F0853021F007C08DE292E08A
:1008600002C086E390E00E94630810927702089528
:100870008FE39CE90197F1F700C0000080917702B7
:10088000823049F018F4813049F00CC0833031F0E7
:10089000853021F007C08EE192E002C087E390E04E
:1008A0000E9463081092770208958FE39CE90197F4
:1008B000F1F700C0000080917702823049F018F40F
:1008C000813049F00CC0833031F0853021F007C011
:1008D0008DE292E002C08CE290E00E9463081092E8
:1008E000770208958FE39CE90197F1F700C00000BB
:1008F00080917702823049F018F4813049F00CC0C1
:10090000833031F0853021F007C081E29BE002C0E6
:1009100081E292E00E9463081092770208958FE3CB
:100920009CE90197F1F700C00000809177028230C6
:1009300049F018F4813061F00FC0833031F0853018
:1009400039F00AC084E398E005C085E390E002C076
:1009500084E390E00E9463081092770208958FE389
:100960009CE90197F1F700C0000080917702823086
:1009700049F018F4813049F00CC0833031F08530F3
:1009800021F007C08FE196E002C080E294E00E946F
:1009900063081092770208958FE39CE90197F1F7BD
:1009A00000C0000080917702823049F018F4813055
:1009B00049F00CC0833031F0853021F007C089E266
:1009C0009CE002C089E290E00E94630810927702E6
:1009D00008958FE39CE90197F1F700C00000809132
:1009E0007702823049F018F4813049F00CC083302E
:1009F00031F0853021F007C08BE090E002C084E147
:100A000090E00E9463081092770208958FE39CE9BA
:100A10000197F1F700C0000080917702823049F021
:100A200018F4813049F00CC0833031F0853021F06A
:100A300007C08BE298E002C08BE290E00E9463085E
:100A40001092770208958FE39CE90197F1F700C0B7
:100A5000000080917702823049F018F4813049F02B
:100A60000CC0833031F0853021F007C08EE091E07A
:100A700002C08CE490E00E9463081092770208950F
:100A80008FE39CE90197F1F700C0000080917702A5
:100A9000823049F018F4813049F00CC0833031F0D5
:100AA000853021F007C085E398E002C085E390E03F
:100AB0000E9463081092770208958FE39CE90197E2
:100AC000F1F700C0000080917702823049F018F4FD
:100AD000813049F00CC0833031F0853021F007C0FF
:100AE00082E198E002C08CE290E00E9463081092DC
:100AF000770208958FE39CE90197F1F700C00000A9
:100B000080917702823049F018F4813049F00CC0AE
:100B1000833031F0853021F007C080E598E002C0D5
:100B200080E590E00E9463081092770208958FE3B9
:100B30009CE90197F1F700C00000809177028230B4
:100B400049F018F4813049F00CC0833031F0853021
:100B500021F007C08FE494E002C08FE490E00E948F
:100B600063081092770208958FE39CE90197F1F7EB
:100B700000C0000080917702823049F018F4813083
:100B800049F00CC0833031F0853021F007C08AE491
:100B900090E002C081E390E00E9463081092770227
:100BA00008958FE39CE90197F1F700C00000809160
:100BB0007702823049F018F4813049F00CC083305C
:100BC00031F0853021F007C08DE490E002C081E370
:100BD00092E00E946308109277020895FC018081E0
:100BE000813041F49185911114C09285992389F047
:100BF00082E00895823041F48185811107C08285A9
:100C0000811106C083E0089586E0089585E0089587
:100C100084E008950E94EE0580937702823049F0C7
:100C200018F4813091F00895833031F0853049F027
:100C300008958DE490E00BC081E392E00E944D089E
:100C400004C081E392E00E94790881E392E00C9471
:100C50004D080E94EE0580937702823049F018F427
:100C6000813091F00895833031F0853049F0089556
:100C70008AE490E00BC081E390E00E944D0804C03C
:100C800081E390E00E94790881E390E00C944D08A4
:100C90000E94EE0580937702823049F018F481308B
:100CA00091F00895833031F0853049F008958FE454
:100CB00098E00BC08FE490E00E944D0804C08FE4E0
:100CC00090E00E9479088FE490E00C944D080E9417
:100CD000EE0580937702823049F018F4813091F06C
:100CE0000895833031F0853049F0089580E594E02F
:100CF0000BC080E590E00E944D0804C080E590E0C4
:100D00000E94790880E590E00C944D080E94EE0561
:100D100080937702823049F018F4813091F0089581
:100D2000833031F0853049F0089582E198E00BC0BE
:100D30008CE290E00E944D0804C08CE290E00E949A
:100D400079088CE290E00C944D080E94EE058093A7
:100D50007702823049F018F4813091F008958330A1
:100D600031F0853049F0089585E398E00BC085E3C4
:100D700090E00E944D0804C085E390E00E9479084D
:100D800085E390E00C944D080E94EE058093770275
:100D9000823049F018F4813091F00895833031F0B9
:100DA000853049F008958EE091E00BC08CE490E02E
:100DB0000E944D0804C08CE490E00E9479088CE405
:100DC00090E00C944D080E94EE05809377028230EB
:100DD00049F018F4813091F00895833031F0853076
:100DE00049F008958BE298E00BC08BE290E00E94FE
:100DF0004D0804C08BE290E00E9479088BE290E0FD
:100E00000C944D080E94EE0580937702823049F0E1
:100E100018F4813091F00895833031F0853049F035
:100E200008958BE090E00BC084E190E00E944D08B3
:100E300004C084E190E00E94790884E190E00C9481
:100E40004D080E94EE0580937702823049F018F435
:100E5000813091F00895833031F0853049F0089564
:100E600089E29CE00BC089E290E00E944D0804C03A
:100E700089E290E00E94790889E290E00C944D08A4
:100E80000E94EE0580937702823049F018F4813099
:100E900091F00895833031F0853049F008958FE165
:100EA00096E00BC080E294E00E944D0804C080E20E
:100EB00094E00E94790880E294E00C944D080E942E
:100EC000EE0580937702823049F018F4813081F08A
:100ED0000895833031F0853039F0089584E398E047
:100EE00009C085E390E006C084E390E00E947908A1
:100EF00084E390E00C944D080E94EE058093770205
:100F0000823049F018F4813091F00895833031F047
:100F1000853049F0089581E29BE00BC081E292E0C8
:100F20000E944D0804C081E292E00E94790881E2AB
:100F300092E00C944D080E94EE0580937702823077
:100F400049F018F4813091F00895833031F0853004
:100F500049F008958DE292E00BC08CE290E00E948F
:100F60004D0804C08CE290E00E9479088CE290E089
:100F70000C944D080E94EE0580937702823049F070
:100F800018F4813091F00895833031F0853049F0C4
:100F900008958EE192E00BC087E390E00E944D0837
:100FA00004C087E390E00E94790887E390E00C9406
:100FB0004D080E94EE0580937702823049F018F4C4
:100FC000813091F00895833031F0853049F00895F3
:100FD0008DE292E00BC086E390E00E944D0804C0D1
:100FE00086E390E00E94790886E390E00C944D0837
:100FF0000E94EE0580937702823049F018F4813028
:1010000091F00895833031F0853049F008958DE2F4
:1010100090E00BC082E190E00E944D0804C082E1A4
:1010200090E00E94790882E190E00C944D089C01C8
:101030003A9521153F4130F5BC0166277270AC012D
:10104000442754709C012227387094FF0FC090FFF2
:1010500002C080E101C080E0672B09F08062452B6F
:1010600009F08064232B79F080680895892F8170BE
:10107000672B09F08260452B09F08460232B19F05F
:101080008860089580E00895CF93DF93EB010E947C
:101090001708FE01DF91CF910994CF93DF93EC0104
:1010A000805E9109089710F0209719F469E07BE0C1
:1010B00002C067E17BE0CE010E9444088C2FDF91E3
:1010C000CF910C945F0ACF93DF93EC010E94B50A95
:1010D000CE01805E9109089710F0209719F460E125
:1010E0007BE002C06EE17BE0CE01DF91CF910C94FA
:1010F0004408CF93DF93EC010E944D08C933D1051A
:1011000049F42FEF87EE93E0215080409040E1F7C3
:1011100000C00000CE01DF91CF910C94630881E004
:10112000089581E008950C94910808950C94950811
:101130001F93CF93DF9300D000D01F92CDB7DEB7BF
:1011400049835A836B8330913B0389819A813111A2
:1011500014C0662359F0222349F00E94950F182FDE
:10116000682F89819A810E943C0F03C00E94680FFA
:10117000182F69817A81812F04C00E94950F69819F
:101180007A810F900F900F900F900F90DF91CF9179
:101190001F910C94BC16FC01262F40815181628165
:1011A000738184810C94980881E00895CF93DF9334
:1011B000EC0160E00E94CB08BE01DF91CF910C945E
:1011C00096080C9448180C94441808950E943D0BFE
:1011D0000E94E5082FEF84E39CE02150804090407E
:1011E000E1F700C000000C94E8260F931F93CF9303
:1011F000DF938C0161E00E94CB08EC01B8010E94F2
:101200007222B801CE010E949308882309F44BC0D2
:10121000B801CE010E94BD22882309F444C0B80160
:10122000CE010E94B41F8823F1F1B801CE010E94C3
:10123000BE218823C1F1B801CE010E94D21F8823AC
:1012400091F1B801CE010E941A21882361F1F801C1
:101250008281882309F1CB358DE5D807C1F050F4A0
:10126000C115FCE5DF0781F0CF3DDC45A9F40E9404
:10127000B81419C0CC35EDE5DE0761F0CD35DD459C
:1012800059F40E94FB1308C00E94E6080CC00E949B
:10129000041402C00E940714C801DF91CF911F916E
:1012A0000F910C948F0880E0DF91CF911F910F91E7
:1012B00008950E9401260C94E2090E94E5090C940D
:1012C0000726DF92EF92FF920F931F93CF93DF9346
:1012D000E82FF0E0E85EFD4FD490282F2695269564
:1012E000269530E0F901E854FD4F0491877010E035
:1012F000082E02C0159507950A94E2F70170112790
:10130000F901E855FD4FE490F12C082E02C0F59448
:10131000E7940A94E2F791E0E922FF24F901E85604
:10132000FD4FC491D0E002C0D595C7958A95E2F7EC
:10133000C170DD270115110519F081EE0E945F0AC9
:10134000E114F10419F086EE0E945F0A8D2D0E94CF
:10135000000BEF2819F086EE0E94B50A012B19F058
:1013600081EE0E94B50ACD2B51F08CE2DF91CF9136
:101370001F910F91FF90EF90DF900C94000BDF9185
:10138000CF911F910F91FF90EF90DF900895982FCC
:101390009F709A50963010F0805D01C0895A0C946D
:1013A000610908950C94D10981E008950C94D40941
:1013B0000895CF93C82F0E94D2098C2F0E94D6097E
:1013C000CF91089580E00C94D9090E943C250C949B
:1013D000D9090E943C2590913A03891721F0809306
:1013E0003A030C94D9090895CF93DF93CDB7DEB7B4
:1013F0002B970FB6F894DEBF0FBECDBF942F4F834F
:10140000252F588769877A878B874A855B85452B87
:1014100031F02F3F31F481E09F3F19F403C081E0A8
:1014200001C080E080FD09C080913C0390913D03A4
:10143000019690933D0380933C03898581110E941E
:1014400047139E012F5F3F4F86E0F90111928A9565
:10145000E9F785E0FE013796D90101900D928A9552
:10146000E1F789819A814C815D81452B31F09F3F65
:1014700031F491E08F3F19F403C091E001C090E096
:1014800090FF09C049815A816B817C818D819E8149
:101490000E94621205C0C9010E94D4088111F2CFD6
:1014A0002B960FB6F894DEBF0FBECDBFDF91CF9164
:1014B0000895FC01808191810E94D70F0895CF93F8
:1014C000882309F450C0C82F8CEF8C0F813AD0F4D8
:1014D0006C2F80917A0290917B020E94A325882331
:1014E00049F06C2F80917A0290917B020E94DB255B
:1014F0000E9469136C2F80917A0290917B020E9466
:10150000D9250CC080E28C0F883058F4C77081E078
:1015100001C0880FCA95EAF70E942413CF910C945A
:101520006913EBE5EC0FE33040F4F0E0EF5FFC4FC4
:10153000808190E0CF910C946B25E8E5EC0FE731CA
:1015400050F4F0E0EE0FFF1FED52FD4F80819181CE
:10155000CF910C948125CD3E30F08C2F0E94BF1C82
:10156000CF910C94911DCF910895882389F19CEF20
:10157000980F913A40F4682F80917A0290917B0203
:101580000E94DB250DC090E2980F983058F48770C8
:1015900091E001C0990F8A95EAF7892F0E942A13DA
:1015A0000C9469139BE5980F933020F480E090E051
:1015B0000C946B2598E5980F973120F480E090E02B
:1015C0000C9481258D3E20F00E941A1D0C94911DD3
:1015D00008951F93CF93DF93182FEB010E945F0AAA
:1015E000209741F08FE99FE00197F1F700C00000DC
:1015F0002197F6CF812FDF91CF911F910C94B50ADF
:10160000893319F060E070E002C060E570E00C948E
:10161000E90A882321F00E9424130C946913089589
:10162000882321F00E942A130C94691308958823BB
:1016300021F00E943A130C9469130895882321F035
:101640000E9440130C946913089580E090E00E947A
:101650006B2580E090E00E9481250E9447130E9444
:1016600069130E94C21E0C94911D80917A02909180
:101670007B020E94DD250C94250B0E9434130C94F0
:10168000350B92959F70963079F010F4925001C00E
:101690009A50923068F4803F69F018F4883E40F424
:1016A00009C0843F29F406C0883E20F0813F11F034
:1016B00080E0089581E00895FC01808191810E947D
:1016C000D70F0E94410B08958F929F92AF92BF92C5
:1016D000CF92DF92EF92FF920F931F93CF93DF93FE
:1016E0006C01C62F172FFC01D281058102950F7066
:1016F0000E941A138823B9F0DD23A9F0812F807F7F
:10170000803421F080E28C0F883068F080910C04E6
:1017100082FD09C082E00E94C9130E941A1391E061
:10172000E82EE92601C0E12CB12EB2942FE0B222BE
:101730008B2D90E08C30910508F0D3C1FC01EA5A62
:10174000FF4F0C94EB2D912F9F70812F807FF92EEE
:1017500019F0F29490EFF922DD2399F0FF2009F4BB
:10176000ACC180E28C0F883010F0C11104C08F2D05
:101770000E94241303C08F2D0E943A130E94691304
:101780009CC18C2F0E94B50AFF2009F4AAC180E2F7
:101790008C0F883050F1CC2341F18F2D0E944013E3
:1017A00027C0912F9F70812F807FF92E803219F0F2
:1017B000F29480EFF822CC2319F0C130A1F140C09F
:1017C00080910C0482FF17C0DD2349F0FF2029F02F
:1017D0008F2D0E9424130E94691380E06FC180E066
:1017E0000E94B50AFF2009F47CC18F2D0E942A13A4
:1017F0000E94691376C1DD2371F0002341F00130AE
:1018000031F40E944A138F290E9452136AC10E9428
:101810004A138F290EC0002319F0013009F461C169
:101820000E945F131FC0DD2339F0063008F059C154
:101830008F2D0E94090B55C1053008F052C112C00E
:10184000DD2319F00023A1F338C1002359F0C93377
:1018500009F044C1FFEF27EE83E0F15020408040C3
:10186000E1F73AC18F2D0E94100B3BC1812F869565
:101870008695837019F0813061F033C1DD2321F04A
:101880008C2F912F937002C080E090E00E946B2516
:1018900030C1DD2321F08C2F912F937002C080E0A6
:1018A00090E00E94812525C18C2FDD2319F00E9434
:1018B000BF1C02C00E941A1D0E94911D1AC1812FD7
:1018C000837009F048C0D11110C12C2F22952695A4
:1018D0002770220F220F6C2F6F70862F90E0A0E0F0
:1018E000B0E0022E04C0880F991FAA1FBB1F0A94E4
:1018F000D2F7C4FF10C04FE050E060E070E004C0D9
:10190000440F551F661F771F2A95D2F740955095B3
:101910006095709503C040E050E0BA01212F2695F4
:10192000269523704A015B01882A992AAA2ABB2A94
:10193000C501B401223049F058F4213019F00E9459
:10194000520ED3C00E94400ED0C00E94640ECDC083
:101950000E943E0ECAC0DD2319F0812F817001C0A4
:101960008695882309F4C1C02C2F229526952770CF
:10197000220F220F6C2F6F70862F90E0A0E0B0E056
:10198000022E04C0880F991FAA1FBB1F0A94D2F70A
:10199000C4FF10C04FE050E060E070E004C0440FAE
:1019A000551F661F771F2A95D2F740955095609571
:1019B000709503C040E050E0BA01212F269526958E
:1019C00023704A015B01882A992AAA2ABB2AC501E9
:1019D000B401223049F058F4213019F00E94170F59
:1019E00084C00E94050F81C00E94290F7EC00E9402
:1019F000780E7BC0212F2F70F22EDD2339F0822F3D
:101A00000E949E0E8C2F0E94090B6FC08C2F0E948B
:101A1000100B8F2D0E94BF0E68C0C23F21F128F429
:101A2000C03F41F0C13FC1F044C0C33F19F1C43FC2
:101A300079F03FC0DD2341F0053008F052C0812F1E
:101A40008F710E94E40E4DC0063008F04AC0F7CFF7
:101A500080910C0482FF18C0DD2339F0812F8F7133
:101A60000E949E0E3EC0DD23C9F3812F8F710E941C
:101A7000BF0E37C0DD2329F0812F8F710E94890EA0
:101A800030C00E94840E2DC0DD2351F0812F8F7154
:101A9000F82E0E949E0E63E08F2D0E94AE1321C08F
:101AA00081E00E94C9130230E0F082E00E94C91375
:101AB00018C0DD2331F0002389F28C2F0E945F0AC9
:101AC00010C0002391F2C93349F49FEFE7EEF3E031
:101AD0009150E040F040E1F700C000008C2F0E94E0
:101AE000B50A88EF8B0D843020F40E943C250E94BB
:101AF000D9098C2F912F0E94410B811105C01092A2
:101B00003D0310923C0311C0DD2319F00111F7CF02
:101B10000CC00111F4CF80913C0390913D030297DA
:101B200071F78C2F0E94000BEACFEE20E9F00E94A3
:101B3000161380FD19C0F60112820E9410130E9434
:101B40009E0EC6010E94D90D0E941013DF91CF9105
:101B50001F910F91FF90EF90DF90CF90BF90AF90CB
:101B60009F908F900C94BF0EDF91CF911F910F919A
:101B7000FF90EF90DF90CF90BF90AF909F908F90AD
:101B800008950F931F93CF93DF93EC0168817981C0
:101B90008A810E94E20F8C010E943B0F0E942C0E52
:101BA000B801CE010E94640BDF91CF911F910F917C
:101BB0000895CF93DF93EC01988189812B813C813B
:101BC000232B31F08F3F31F481E09F3F19F403C0A4
:101BD00081E001C080E080FD1DC0CE010E94F508BB
:101BE000811110C00E941A138823A1F08A818823D2
:101BF00089F080910C0482FD0DC082E0DF91CF91CD
:101C00000C94C913CE010E94C10DCE01DF91CF917A
:101C10000C94D608DF91CF910895CF93DF9300D035
:101C200000D01F92CDB7DEB70F900F900F900F909E
:101C30000F90DF91CF910895CF93DF9300D000D024
:101C400000D0CDB7DEB726960FB6F894DEBF0FBE34
:101C5000CDBFDF91CF910895089508950C942D0E76
:101C60000C942E0E0E94300E60935B0370935C0305
:101C700080935D0390935E030C94250B0C94320EBD
:101C80000F931F9300915B0310915C0320915D0300
:101C900030915E03602B712B822B932B1F910F9140
:101CA0000C94320E0F931F9300915B0310915C0311
:101CB00020915D0330915E0360237123822393237F
:101CC0001F910F910C94320E0F931F9300915B03A1
:101CD00010915C0320915D0330915E0360277127B2
:101CE000822793271F910F910C94320E0C942D0E86
:101CF0000E94760E609357037093580380935903A4
:101D000090935A030C94250B60E070E0CB010C9487
:101D1000780E0F931F9341E050E060E070E08A017D
:101D20009B0104C0000F111F221F331F8A95D2F799
:101D3000C901B8011F910F910C94780E0F931F9356
:101D400041E050E060E070E004C0440F551F661FA2
:101D5000771F8A95D2F78091570390915803A091ED
:101D60005903B0915A038A019B01082B192B2A2B86
:101D70003B2BC901B8011F910F910C94780E0F9362
:101D80001F9341E050E060E070E004C0440F551F35
:101D9000661F771F8A95D2F740955095609570958C
:101DA0008091570390915803A0915903B0915A0321
:101DB0008A019B01082319232A233B23C901B80167
:101DC0001F910F910C94780E0F931F9341E050E0F8
:101DD00060E070E004C0440F551F661F771F8A95AE
:101DE000D2F78091570390915803A0915903B09175
:101DF0005A038A019B01082719272A273B27C90173
:101E0000B8011F910F910C94780E0F931F930091BE
:101E10005703109158032091590330915A03602BB6
:101E2000712B822B932B1F910F910C94780E0F9393
:101E30001F9300915703109158032091590330913B
:101E40005A0360237123822393231F910F910C94D3
:101E5000780E0F931F930091570310915803209110
:101E6000590330915A0360277127822793271F91C6
:101E70000F910C94780E089524E0929F900D1124F8
:101E8000890FE82FE695E695E695877051E001C049
:101E9000550F8A95EAF785E0E89FF0011124E25C8E
:101EA000FC4F20E030E070E04081CB01022E02C008
:101EB000969587950A94E2F781708195842785230A
:101EC000842781932F5F3F4F2530310569F70895AF
:101ED00024E0929F900D1124890F682F66956695D6
:101EE0006695982F977085E0689FB001112440E0B7
:101EF00050E080E0FB01E40FF51FE25CFC4F208125
:101F000030E0092E02C0369527950A94E2F7217039
:101F10003327042E01C0220F0A94EAF7822B4F5F69
:101F20005F4F4530510531F70895BF92CF92DF9250
:101F3000EF92FF920F931F93CF93DF938C01C0908A
:101F40005703D0905803E0905903F0905A038091C2
:101F50005B0390915C03A0915D03B0915E03C82A7E
:101F6000D92AEA2AFB2ACFE1D0E0D701C6010C2EFC
:101F700004C0B695A795979587950A94D2F780FDEA
:101F800004C0219790F7B12C07C0BC2EB8018C2F4C
:101F90000E94CF160197A9F38B2DDF91CF911F914E
:101FA0000F91FF90EF90DF90CF90BF900895CF9367
:101FB000DF93EC010E94950FBE010E94CF16DF91C6
:101FC000CF9108951F93CF93DF93EB0190913B0343
:101FD000992321F0CB010E94D70F13C0882349F029
:101FE000CB010E94950F182F682FCE010E943C0F45
:101FF00004C0CB010E94680F182FBE01812F0E94E0
:10200000CF16DF91CF911F9108951F93CF93DF9348
:10201000C0915F0316E080916003C81799F0D0E08B
:102020001C9FF0011D9FF00D1124EF59FC4F4081C2
:10203000518162817381848195810E941C0E219659
:10204000C770E9CFDF91CF911F910895409191031F
:102050005091920360919303709194038091950342
:10206000909196030C941C0EEF92FF920F931F9386
:10207000CF93DF938091960382958F7009F065C0AE
:1020800080919303882309F460C080915F03F090EE
:1020900060031091910300919203609194037091F9
:1020A000950391E01F3F09F090E0C0917802D09134
:1020B0007902292F96E0E92E8F1509F446C06115A3
:1020C000710521F00F3F21F030E003C031E001C085
:1020D000322F90E030FD36C0E89EF001E99EF00D11
:1020E0001124DF01AF59BC4F11963C911197301369
:1020F00029C03C91311326C012963C9112973111A0
:1021000021C013964D915C911497461B570B4C17A9
:102110005D07C0F4809196038F7080618093960371
:10212000EA59FC4F80818F708061808381E993E060
:102130000E94D90DDF91CF911F910F91FF90EF90E9
:102140000C94051001968770B7CFDF91CF911F9146
:102150000F91FF90EF9008959F92AF92BF92CF9210
:10216000DF92EF92FF920F931F93CF93DF93CDB740
:10217000DEB761970FB6F894DEBF0FBECDBF8C01FE
:1021800085E0F801DE011D9601900D928A95E1F738
:10219000D8011296EC9090919103E09192032091D6
:1021A0009403309195032115310531F0EF3F31F45F
:1021B00081E09F3F19F403C081E001C080E0B82FA7
:1021C000B1709B2E80FD2DC1D8014C9111965C9170
:1021D00011971396AD90BC90149781E9C82E83E0B7
:1021E000D82EF0909303B501621B730B20917802F7
:1021F00030917902FF2009F4E5C0809196036217BF
:10220000730708F0A1C0282F207F09F052C05E1389
:1022100013C0491311C0FE2CE1100EC08F708061F5
:10222000809396030E942610C6010E94D90D8091CA
:102230009603F801858333C1AB2831F05F3F31F459
:1022400081E04F3F19F403C081E001C080E080FDD0
:1022500003C081E08E2502C080E090E0F82FF1708D
:10226000FF2E80FF1CC080915F032091600336E049
:10227000821709F4F1C090E0389FF001399FF00D0A
:102280001124EF59FC4F6181561306C0608146133B
:1022900003C06281E61203C001968770E9CFFE2C6D
:1022A000EE2009F4FCC08091960381608093960330
:1022B00060C05E1312C0491310C0E1100EC0F801D7
:1022C0008583C8010E94D90D86E0F801A1E9B3E039
:1022D00001900D928A95E1F7BCC0C8010E945C0B89
:1022E000882361F1EE2051F120919603822F82958F
:1022F0008F7090E0029774F0809191039091920317
:1023000098878F831986BB86AA862C87CE0107966D
:102310000E94D90D86E0F801A1E9B3E001900D9289
:102320008A95E1F70E9434100E9426100AC05E17B9
:1023300011F1C8010E945C0B81112CC0C8010E94E0
:10234000D90DFF24F394ABC0282F207F81F77A2D7D
:10235000B98AA88A6E2D89890E940D0E81E993E0C1
:102360000E94D90D86E0D6011D928A95E9F70E9458
:102370002610F12C94C04913DCCFE110DACFF8011C
:102380008583C8010E94D90D86E0D6011D928A95E9
:10239000E9F785C0EE2091F220919603822F829575
:1023A0008F7090E002970CF4B5CF809191039091DB
:1023B00092039A8389831B82BD82AC822E83CE01D5
:1023C0000196A6CF62177307F8F4FE2CEE2009F4ED
:1023D000B5CF5E130BC0491309C086E0F801A1E92F
:1023E000B3E001900D928A95E1F759C0C8010E94AF
:1023F0005C0B81118FCF809196038160809396034F
:10240000C8010E94D90D4BC07A2DB98AA88A6E2DB9
:1024100089890E940D0E86E0F60111928A95E9F7EE
:1024200018C0EE2009F48ACFC8010E945C0BF82E78
:10243000882309F483CF86E0F801A1E9B3E0019095
:102440000D928A95E1F781E993E00E94590A0E9472
:1024500034100E94261023C04D875E878D859E858F
:102460000E94D70F292F22952F70223028F49F70B9
:1024700039F0811105C00BC0243028F49F7049F455
:10248000805E883020F0C8010E94D90D9F2CF92C65
:1024900006C0D80115969C91907F91F7F8CF8F2DAB
:1024A00061960FB6F894DEBF0FBECDBFDF91CF911E
:1024B0001F910F91FF90EF90DF90CF90BF90AF9062
:1024C0009F9008951F93CF93DF93CDB7DEB72C97DE
:1024D0000FB6F894DEBF0FBECDBF4F835887698714
:1024E0007A878B879C87CE0107960E94AC10882341
:1024F000D1F09F8188852A853B85232B31F08F3F42
:1025000031F481E09F3F19F403C081E001C080E015
:1025100080FD47C04F81588569857A858B859C856C
:102520000E941C0E3EC086E0FE013796DE01119629
:1025300001900D928A95E1F7FF81E8856A857B8598
:102540006115710531F0EF3F31F481E0FF3F19F47F
:1025500003C081E001C080E080FD23C020916003C2
:1025600030E0C90101968770992740915F0350E0E0
:1025700084179507F1F1F983EA837D836C8396E0F4
:10258000929FD001939FB00D1124AF59BC4FFE0113
:10259000319601900D929A95E1F7809360030E9425
:1025A000051016E080915F0390916003891771F127
:1025B000189FC00111248F599C4F0E94AC10882392
:1025C00029F1E0915F031E9FF0011124EF59FC4FA8
:1025D0004081518162817381848195810E941C0EAA
:1025E00080915F0390E001968770992780935F0345
:1025F000D9CF0E943D0B1092600310925F03E1E976
:10260000F3E086E0DF011D928A95E9F72C960FB67C
:10261000F894DEBF0FBECDBFDF91CF911F9108951B
:1026200080919F03859585958595089580919F0359
:102630008770089590919F03977081E009F480E07E
:1026400008958091AA0308959091AA03892B8093FD
:10265000AA03089580959091AA0389238093AA03E1
:1026600008958093AA0308951092AA030895809173
:10267000A90308959091A903892B8093A903089534
:1026800080959091A90389238093A90308951092BE
:10269000A90308958091A003089508950C944D1303
:1026A0000C944E1390910C0492FD08C09091A003DD
:1026B000981721F08093A0030C94501308958091F3
:1026C000A003882329F01092A00380E00C945013FB
:1026D0000895CF93DF93E0917A02F0917B0280918D
:1026E000AA038083E0917A02F0917B02908180912D
:1026F000A903892B80838091A003882381F0E09136
:102700007A02F0917B029081892B808380917A02FA
:1027100090917B020E94972581110E945F13C091C6
:102720007A02D0917B0248E050E067E973E0CE0185
:102730000E94052E892B69F088E0FE01A7E9B3E02D
:1027400001900D928A95E1F7CE01DF91CF910C9423
:102750005225DF91CF9108950C944D1390910C0464
:1027600092FD10C098E0899F90011124262B2093A0
:102770009F030E949E0E80919F0385958595859568
:102780000C94AC130C949E0E10929F0380E00C945A
:10279000AC1320919F038095822380939F03982FF1
:1027A000977099F430E0482F082E000C550B241731
:1027B000350759F090910C0492FD07C085958595D9
:1027C00085950E94BF0E0C94C413089590910C043B
:1027D00092FB222720F9281769F080FB92F9909349
:1027E0000C0480910B0490910C040E94341482E03C
:1027F0000C94C913089580910C0482FB882780F9FA
:1028000091E089270C94E61381E00C94E61380E0B4
:102810000C94E6136FEF7FEF80E090E00C94472E6E
:1028200080E090E00E94232E21E0893E9E4F09F037
:1028300020E0822F089582E090E00C941B2E83E02C
:1028400090E00C941B2ECF9384E090E00E941B2E0E
:10285000C82F82E290E00E941B2E2C2F30E0A901AD
:10286000582BCA01CF910895CF93C92F682F84E0C8
:1028700090E00E94292E6C2F82E290E0CF910C9480
:10288000292EAB01BC018FE090E00C943B2EAB01F4
:10289000BC0183E190E00C943B2E60E070E0CB0142
:1028A0000C94471460E070E0CB010E9441140C943A
:1028B0004D1469EE7EEF80E090E00E94472E60E0CC
:1028C00082E090E00E94292E60E083E090E00E9488
:1028D000292E10925B0310925C0310925D031092FC
:1028E0005E0360E084E090E00E94292E60E082E2D6
:1028F00090E00E94292E60E085E090E00E94292E61
:1029000060E086E090E00E94292E6FEF87E090E083
:102910000E94292E40E050E0BA0188E090E00E9439
:102920003B2E60E08DE090E00E94292E40E050E0D8
:10293000BA0188E190E00E943B2E60E087E190E0E0
:102940000E94292E40E050E0BA018CE190E00E9404
:102950003B2E60E070E080E290E00E94472E40E075
:1029600050E0BA0188E190E00E943B2E0C94521492
:102970000C9459148EE090E00E941B2E91E081117E
:1029800001C090E0892F0895682F8EE090E00C94AC
:10299000292E0E948B266093B7037093B80380930F
:1029A000B9039093BA036093B3037093B403809315
:1029B000B5039093B603089585B7806885BF85B742
:1029C000806885BF08950C94031A08950C94E5144B
:1029D0000C94E5140C94E8140C94E5140C94EC1489
:1029E0000C94E5140E94DC148CEE97E10E943225D1
:1029F0000E94F0140C94EE140E94E6140C94E5145A
:102A00000E9416180E94D8090C94101F0E94762666
:102A10000E94AB170E941B1A0E9419190E940015F0
:102A20000E94D01E0E94251A0C94EA148F929F9245
:102A3000AF92BF92CF92DF92EF92FF920F931F93CC
:102A4000CF93DF93CDB7DEB72A970FB6F894DEBFEA
:102A50000FBECDBF0E947619982E81110E94C91415
:102A60008BEAA82E83E0B82E00E010E0802E802FA5
:102A70000E943A18D82EF501C1905F01C826B1F422
:102A80000F5F1F4F0830110589F78FEF89838A8305
:102A90001B820E947F268160782F9D838C834981D1
:102AA0005A816B818D810E94F4092FC08091BB03F4
:102AB00081FD0E944018E12CFF24F3948C2D8F217E
:102AC000F1F00E94E314882399F0EE828F82DF20D8
:102AD00081E009F480E088870E947F268160782F5A
:102AE0009A8789874E815F8168858A850E94F4096B
:102AF000F801E555FC4F8081F826F08206C0E3948A
:102B0000FF0CF5E0EF12DACFBBCF81E0911001C0EE
:102B100080E02A960FB6F894DEBF0FBECDBFDF91DE
:102B2000CF911F910F91FF90EF90DF90CF90BF90CA
:102B3000AF909F908F9008950E94031A81110C947A
:102B40001A2308950E9416150E949C150E94AF1D1D
:102B50000C94E909CF93DF930E94D416EC01811500
:102B600021E5920708F045C0811530E5930708F08C
:102B700094C0883E910528F5803E910508F0F8C084
:102B8000883A910570F4853A910508F07CC081304F
:102B9000910509F475C008F4E8C0049708F0E8C08E
:102BA000E4C08F3B910508F0E0C0C85AD0E0CC0FDC
:102BB000DD1FCC5FDC4F0990D881C02DCE0194641D
:102BC000D8C0811540E2940758F4811551E095076B
:102BD00008F0CEC08D3E910508F4C7C09065C9C00D
:102BE000C11580E4D80708F4C0C0DF70CE01906A38
:102BF000C0C0811525E59207A8F4811534E5930737
:102C000008F095C0811543E5940708F07BC0811555
:102C100052E5950708F061C0D82FCC27CE01816F0F
:102C2000906AA7C0C11589E5D807A0F4C11528E5A9
:102C3000D20708F082C0C11536E5D30708F095C069
:102C40008C2F0E9468178F7190E0D82FCC27CE016F
:102C500090628FC0C1154AE5D40708F474C0CE0154
:102C600090568115904208F080C08D2F8F710E9480
:102C70006817DD27D0628F71AE01582BCA0179C069
:102C800081E090E076C0C55AD0E0CE5CDC4F888110
:102C9000C82FD0E0CE0190646CC074E09695879503
:102CA0007A95E1F7282F23703C2F337081E090E074
:102CB00002C0880F991F3A95E2F79C68AC01522B2D
:102CC0009A019C2F9F709695969550E2959FE001F2
:102CD0001124C9018C2B9D2B4CC08370992721E0B6
:102CE00030E002C0220F331F8A95E2F79C2F9695A1
:102CF000969580E2989FE0011124C22BD32BCE0140
:102D00009C6837C08370992721E030E002C0220F11
:102D1000331F8A95E2F79C2F9695969540E2949FF3
:102D2000E0011124C22BD32BCE019A6822C0D82FE8
:102D3000CC27CE01846F906A1CC0DC2FCC27CE013B
:102D4000806F906A16C08C2F8F700E94681794E075
:102D5000D695C7959A95E1F7CF70D0E0DC2FCC27B8
:102D6000D0699E01282BC90104C080E090E001C019
:102D7000CE01DF91CF91089528E2829FC0011124F6
:102D8000FC0125E0729FE00DF11D1124E60FF11DFD
:102D9000EE0FFF1FE852FF4F8591949108950E9416
:102DA000BC160E94AA1508958238910569F1B0F405
:102DB0008133910509F46DC048F48932910509F415
:102DC00063C08A32910509F469C00895853391057D
:102DD00009F455C089339105B9F00895833E9105F2
:102DE00069F138F4803E9105B1F0823E910509F118
:102DF0000895863E9105A9F1873E9105B9F1843E7B
:102E0000910509F064C023C020910B0420FD4FC040
:102E100021FD4DC0089580910B0480FD44C0809138
:102E20000C0480FF44C080910B0484FD42C083EEFB
:102E30004DC080910B0482FF38C0F5CF80910B0408
:102E400082FD33C080910C0480FD31C0ECCF8091B5
:102E50000C0481FF32C080910B0484FD2AC087EEF0
:102E600035C080910B0483FF26C0F5CF80910B0401
:102E700083FD21C080910C0481FD1FC0ECCF8091A7
:102E80000B0485FD1CC01DC080910B0485FD19C07D
:102E900016C080910B0486FD16C017C080910B04EC
:102EA00086FD13C010C089E311C082EE0FC080EE12
:102EB0000DC080E00BC086EE09C084EE07C089E239
:102EC00005C085E303C08AE201C081E390E0089574
:102ED00090910B0492FF0DC0282F2871283019F40F
:102EE000877F846006C0282F2471243011F48B7FE3
:102EF000886093FF0DC0282F2871283119F4877E30
:102F0000846106C0282F2471243111F48B7E8861DE
:102F100020910C0420FF0DC0382F3871383019F47F
:102F2000877F816006C0382F3171313011F48E7F78
:102F3000886021FF0DC0282F2871283119F4877E61
:102F4000816106C0282F2171213111F48E7E8861A4
:102F500094FD877E08951092070410920804109241
:102F6000090410920A040895CF92DF92EF92FF9223
:102F70006B017C010E94031A81110EC00E948B26F6
:102F8000C61AD70AE80AF90AC0920704D0920804C0
:102F9000E0920904F0920A04FF90EF90DF90CF9046
:102FA00008950F931F930E94031A882321F01F9105
:102FB0000F910C948B260E948B2600910704109190
:102FC00008042091090430910A04600F711F821FC8
:102FD000931F1F910F91089580E008950C940A1497
:102FE000CF930E9476198FE39CE90197F1F700C017
:102FF00000000E9476190E94011A811102C0C4E0EB
:1030000001C0C0E08C2F0E943A1890E002C0959554
:103010008795CA95E2F780FF05C00E94EE17CF9111
:103020000C94E826CF9108950C94F0170E94101488
:10303000811102C00E94B8140E941B148093BB032C
:103040000E94231490930C0480930B040E94141884
:103050000E941F14682F70E080E090E00E943E0EF6
:1030600060915703709158038091590390915A03CE
:103070000C94760EE82FF0E0EA5EFB4F8081089515
:10308000089508950C9441180C9442180C9441181A
:103090000C9446180C9441180F931F93CF93DF9311
:1030A00000D000D0CDB7DEB70E94031A60911E0495
:1030B0008823E9F119821A821B821C82862F90E0F4
:1030C0008E010F5F1F4FB8018A5E9B4F0E94331A1B
:1030D000882389F080910D0490E044E050E0B8012D
:1030E0008A5E9B4F0E94052E21E02093BC03892B12
:1030F00069F410E019C08091BC038823D1F384E007
:10310000F80111928A95E9F71092BC03E0910D0441
:10311000F0E0EA5EFB4F89819A81AB81BC818083BC
:103120009183A283B38311E00E94E3080DC070E095
:103130006A5E7B4F80910D0490E08A5E9B4F0E94F7
:10314000BD1A0E944A1810E0812F0F900F900F9027
:103150000F90DF91CF911F910F910895CF93DF933F
:103160004CE752E0A1E0B0E020E030E0FA01E20FED
:10317000F31F80818F3FA1F0E82FE295EF70F0E020
:1031800061A18F70ED0102C0CC0FDD1F8A95E2F7BF
:10319000CE019C2F9095962391A392A1892B82A377
:1031A0002F5F3F4F2530310509F74B5F5F4FD2E06E
:1031B00040395D07C9F6DF91CF9108950F931F93B2
:1031C000CF93DF93EC01062F10E085E0689FB001FC
:1031D000112440E050E0B1E0A0E0CA01860F971F43
:1031E00084589D4FFC0190819F3FA1F0292F22958B
:1031F0002F7030E0F90120A130E09F7002C03595BA
:1032000027959A95E2F720FD02C08B2F02C080E03F
:1032100090E0A82BBB0F4F5F5F4F45305105E9F69B
:10322000F801EC0FFD1FA083DF91CF911F910F914B
:103230000895CF93DF93CDB7DEB764970FB6F894B8
:10324000DEBF0FBECDBF80919002811125C084E109
:10325000EFEBF2E0DE01119601900D928A95E1F715
:10326000CE0101964CE752E0BE016B5E7F4F20E03D
:1032700030E0FA01E20FF31FDC01A20FB31FAC91A3
:10328000A0832F5F3F4F2530310599F705964B5F9F
:103290005F4F8617970759F780919002811102C0FE
:1032A00094E001C090E090931E0484E0891B809319
:1032B0000D040E94AE1888E0E6E1F4E0DF01982FEB
:1032C0001D929A95E9F7EEE0F4E0DF011D928A95F0
:1032D000E9F784E00E94CA1964960FB6F894DEBF3D
:1032E0000FBECDBFDF91CF910C94E108EF92FF921A
:1032F0000F931F93CF93DF93CDB7DEB728970FB609
:10330000F894DEBF0FBECDBF8E010F5F1F4F88E068
:10331000F80111928A95E9F7F12C6F2DC8010E94EE
:10332000DE18F394F4E0FF12F8CF48E050E0B80163
:103330008EE094E00E94052E7C0121E0892B09F4A7
:1033400020E0E114F10441F088E0F801AEE0B4E0DF
:1033500001900D928A95E1F760911E0470E06A5E1B
:103360007B4F44E08EE094E00E94CB19EF2819F4E3
:103370000E944C1802C081E090E028960FB6F894A5
:10338000DEBF0FBECDBFDF91CF911F910F91FF9098
:10339000EF9008950895FF920F931F93CF93DF93BB
:1033A0008C01F62ED72FC42F222349F081E0809381
:1033B000BF030E947F269093BE038093BD0380913C
:1033C000BF038823C1F08091BD039091BE030E948A
:1033D0009726059780F0EF2DFD2FD8014C2F50E058
:1033E000CD01801B910B841795071CF48D9181935F
:1033F000F7CF1092BF03DF91CF911F910F91FF90F4
:1034000008950C94BA148091C20381110DC00E94DA
:10341000CA2D811102C082E001C081E08093C20305
:10342000823011F40E94C52D81E09091C203913049
:1034300009F080E008950E94011A809390020E9492
:10344000031A81110C946B1A08950E94031A8111BA
:1034500002C00C946D1A089581E09091C3039A30D4
:1034600008F080E008950F931F93CF93DF93EC0152
:103470008B018091C3038A3038F4B801CE010E94D9
:10348000BB1A81111DC00AC08091C0039091C10375
:103490000E949726843F914080F715C08091C30316
:1034A0008F3F19F08F5F8093C3038091C3038A30ED
:1034B00060F00E947F269093C1038093C00303C0F5
:1034C0001092C30302C080E001C081E0DF91CF9180
:1034D0001F910F9108950C94CB230C94CE23DF926F
:1034E000EF92FF920F931F93CF93DF937901C82F31
:1034F000880FDD0B41155105A9F0FE0193E0EE0F99
:10350000FF1F9A95E1F7EF56FD4F818192818C5311
:103510009C4F208130E04217530708F49A01A9011B
:103520000E94122ECE010E94B724D82E8823D1F0FB
:1035300001151105B9F083E0CC0FDD1F8A95E1F785
:10354000FE01EF56FD4F438150E00417150708F4C4
:10355000A801CF56DD4F6C817D816C537C4FC70134
:103560000E94122E8D2DDF91CF911F910F91FF9010
:10357000EF90DF9008950C94DE1B0C94FA1B0F93D0
:103580001F93CF93DF9300D000D0CDB7DEB760910B
:10359000D9037091DA038091DB039091DC030E94E0
:1035A000A626643671058105910528F10E94D11780
:1035B000DC01CB010296A11DB11D89839A83AB83E7
:1035C000BC8300E010E020E030E044E050E0BE01C9
:1035D0006F5F7F4F82E00E946F1A182F882361F07F
:1035E0000E948B266093D9037093DA038093DB03E8
:1035F0009093DC0301C011E0812F0F900F900F908A
:103600000F90DF91CF911F910F910895AF92BF92CC
:10361000CF92DF92EF92FF920F931F93CF93DF939E
:103620007C015B016A010E942C1A811103C001E038
:1036300010E002C00AE010E0C1E0D0E0F894B5016B
:10364000C701F60109957894811115C021960C17D0
:103650001D0794F0CC9F9001CD9F300D300D1124AB
:1036600080E090E045E34A95F1F70000019682176B
:103670009307C1F7E3CF81E0DF91CF911F910F91C5
:10368000FF90EF90DF90CF90BF90AF900895AF92F2
:10369000BF92CF92DF92EF92FF920F931F93CF933F
:1036A000DF9300D000D01F92CDB7DEB75B01E09072
:1036B0003503F090360301E010E09E012B5F3F4F91
:1036C00040E050E060E070E080E00E946F1A182F48
:1036D000882309F43EC067018FEFC81AD80A6091A9
:1036E000D5037091D6038091D7039091D8030E949F
:1036F000A626643671058105910518F104E010E0F5
:103700009E012F5F3F4F40E050E060E070E081E0BD
:103710000E946F1A182F64E070E0C6010E94D11E4B
:1037200091E02D81281390E0192351F10E948B26FE
:103730006093D5037093D6038093D7039093D803F7
:1037400011C064E070E0C6010E94D11E9D81891302
:10375000D5CFF70181819281A381B48189839A8336
:10376000AB83BC83112361F089819A81AB81BC81D9
:103770008093D1039093D203A093D303B093D40347
:103780008091D1039091D203A091D303B091D4033F
:10379000F50180839183A283B383812F0F900F90D3
:1037A0000F900F900F90DF91CF911F910F91FF908D
:1037B000EF90DF90CF90BF90AF9008950F931F933D
:1037C000CF93DF93EC018B0147E45BE10E94061B82
:1037D000882351F04FEB5AE1B801CE01DF91CF9130
:1037E0001F910F910C94061B80E0DF91CF911F91E8
:1037F0000F9108950F931F93CF93DF93F894C09187
:103800003503D0913603CE01019624E0FB01DC01A3
:1038100001900D922A95E1F764E070E00E94D11EBC
:1038200088837894F8946D817E818F81988500914A
:10383000CD031091CE032091CF033091D0036017B8
:1038400071078207930751F06093CD037093CE0305
:103850008093CF039093D0030E94B4177894DF91A4
:10386000CF911F910F9108950E948B280E940615F9
:103870000C9497280E949B280E94A2150C94B528AE
:103880000E941D260E9472280E94F2140E94341C7D
:103890000E943A1C0E94FC14FBCF8091E40380FF3D
:1038A00008C06091AE0270E0759567957595679553
:1038B00021C081FF06C06091AE0270E075956795EA
:1038C00019C082FF04C06091AE0270E010C09091F8
:1038D000E303992399F06091AD029617A0F78091C8
:1038E000AE02899FC001112470E00E94D72D60387C
:1038F000710540F46115710519F406C061E070E0CE
:10390000862F08958FE7089581E008958091E4035C
:1039100080FF08C06091AA0270E075956795759563
:10392000679521C081FF06C06091AA0270E075957D
:10393000679519C082FF04C06091AA0270E010C0B0
:103940009091E203992399F06091A9029617A0F74C
:103950008091AA02899FC001112470E00E94D72D96
:103960006038710540F46115710519F406C061E015
:1039700070E0862F08958FE7089581E008958D3EC9
:1039800021F40E944D1C819504C08E3E29F40E94B2
:103990004D1C8093E80308958F3E21F40E944D1C36
:1039A000819504C0803F29F40E944D1C8093E70359
:1039B0000895893F19F40E94861C05C08A3F31F49E
:1039C0000E94861C81958093E90308958B3F21F422
:1039D0000E94861C819504C08C3F29F40E94861C9D
:1039E0008093EA0308959FE0980F983078F421E0DF
:1039F00030E0A90102C0440F551F9A95E2F7CA01B1
:103A00009091E603892B8093E60308958D3F21F47E
:103A10008091E40381600BC08E3F21F48091E40328
:103A2000826005C08F3F29F48091E4038460809315
:103A3000E40308958D3E39F49091E80397FF35C073
:103A40001092E80359C08E3E29F49091E8031916AC
:103A5000BCF32BC09091E7038F3E29F497FF25C05C
:103A60001092E70349C0803F19F41916CCF31DC02A
:103A70009091E903893F29F41916BCF41092E903E7
:103A80003BC08A3F19F497FF10C0F8CF8B3F39F441
:103A90009091EA0397FF09C01092EA032DC08C3F72
:103AA00021F49091EA031916BCF39FE0980F983027
:103AB00080F421E030E0A90102C0440F551F9A951F
:103AC000E2F7CA0180959091E60389238093E6038B
:103AD00013C08D3F21F48091E4038E7F0BC08E3F95
:103AE00021F48091E4038D7F05C08F3F29F48091FC
:103AF000E4038B7F8093E4038091E703811106C088
:103B00008091E803811102C01092E3038091E903E0
:103B1000811106C08091EA03811102C01092E20374
:103B200008950E947F262091E703211104C020916F
:103B3000E803222321F09093E1038093E003209196
:103B4000E903211104C02091EA03222321F090937C
:103B5000DF038093DE0385EE93E00C945D25EF9206
:103B6000FF920F931F93CF93DF9300D000D000D02C
:103B7000CDB7DEB786E0E5EEF3E0DE011196019009
:103B80000D928A95E1F7E090E703F090E803009149
:103B9000E9031091EA031092E7031092E8031092F0
:103BA000E9031092EA03E11003C0FF2009F45DC0AD
:103BB0008091E0039091E1030E949726AC019091DF
:103BC000E303992339F02091AF0230E02417350741
:103BD00058F04BC02091DD038AE0289F900111240A
:103BE0002417350718F041C09F3F19F09F5F90934D
:103BF000E303EE2061F00E944D1C1E1414F09FEFB1
:103C000001C091E0989F902D11249093E703FF202D
:103C100061F00E944D1C1F1414F09FEF01C091E051
:103C2000989F902D11249093E8033091E70333235C
:103C3000E1F02091E8032223C1F045EB3403C001F9
:103C40001124992319F09093E70303C081E0809336
:103C5000E70335EB2303C0011124992319F0909356
:103C6000E80303C081E08093E803011103C011233E
:103C700009F45DC08091DE039091DF030E949726D6
:103C8000AC019091E203992339F02091AB0230E02E
:103C90002417350758F04BC02091AC028AE0289FCA
:103CA000900111242417350718F041C09F3F19F0E7
:103CB0009F5F9093E203002361F00E94861C101620
:103CC00014F09FEF01C091E0989F902D11249093E4
:103CD000E903112361F00E94861C111614F09FEF76
:103CE00001C091E0989F902D11249093EA033091A8
:103CF000E9033323E1F02091EA032223C1F045EBED
:103D00003403C0011124992319F09093E90303C0EF
:103D100081E08093E90335EB2303C001112499234B
:103D200019F09093EA0303C081E08093EA03809145
:103D3000E70381110BC08091E803811107C08091D6
:103D4000E903811103C08091EA0381110E94911D52
:103D5000EB82FC820D831E8386E0FE013196A5EE88
:103D6000B3E001900D928A95E1F726960FB6F8948C
:103D7000DEBF0FBECDBFDF91CF911F910F91FF909E
:103D8000EF900895E5EEF3E086E0DF011D928A955D
:103D9000E9F71092E3031092E2031092E40308950E
:103DA0000895FC01680F791F8FEF91E3E617F7077D
:103DB00071F02191822728E030E087FF03C0880F4F
:103DC000892701C0880F21503109B9F7EFCF089535
:103DD000CF93DF9397FF0DC0FB012281222349F08F
:103DE000EC010E94261FCE019F770E94991F0E941E
:103DF000731F81E0DF91CF9108959091200492305C
:103E000069F48A3040F490E009966AE070E00E941C
:103E1000D72D875A01C086500C94000B0C94C7090B
:103E20008CE090E00E941B2E90E0A0E0B0E0809338
:103E3000200490932104A0932204B09323040895B6
:103E4000609120048CE090E00C94292E0E944F2574
:103E500086958170809325040E944F258170809300
:103E60001F0480912004813039F480912504882337
:103E700019F089E30E94000B0E942113809324040F
:103E80000E94341380912004813071F048F0823018
:103E900081F0843009F586EE0E94000B88E11AC09B
:103EA00082EE0E945F0A18C088E193E00E947908C0
:103EB00013C080911F04811103C083E50E94000B91
:103EC00082EE0E945F0A8FE39CE90197F1F700C040
:103ED000000087E50E94000B8FE39CE90197F1F752
:103EE00000C00000089580912004813059F030F026
:103EF000823089F08430C9F488E215C082EE0E94D5
:103F0000B50A13C08CE20E94000B8091250488231F
:103F100061F089E308C082EE0E94B50A80911F0417
:103F2000811103C083E50E94000B809124040C944E
:103F300031130F931F93CF93DF938C01CCE0D0E02C
:103F4000C8010C2E02C0969587950A94E2F78F70EF
:103F50000E94FD1E2497CC3F8FEFD80789F7DF9191
:103F6000CF911F910F9108950F931F93CF93DF93DC
:103F7000EC018B01FB018281882361F00E942113F7
:103F8000CE01825E9C458530910520F4809320040B
:103F90000E94201FB801CE01DF91CF911F910F9198
:103FA0000C94E81ECF93DF93EC01FB018281882300
:103FB00009F43CC1C430FDE5DF0760F4CB3F9CE56C
:103FC000D90788F49E0122503C452431310508F080
:103FD0002EC109C0C236EDE5DE0729F0C63AFDE57F
:103FE000DF0709F024C10E94231490930C048093EE
:103FF0000B04C1318CE5D80709F4C6C008F042C0F3
:10400000C930ECE5DE0709F49BC000F5C5308CE54E
:10401000D80709F485C078F4C330ECE5DE0709F46D
:1040200078C008F07AC0C230DC4509F0F5C0809154
:104030000B048160EFC0C7309CE5D90709F478C054
:1040400008F07AC080910B048061E4C0CD30FCE5BB
:10405000DF0709F487C058F4CB309CE5D90709F491
:1040600079C008F07BC080910B0488606FC0CF30AE
:10407000FCE5DF0709F480C008F082C080910B04E2
:10408000877FC8C0CE3F9CE5D90709F471C000F511
:10409000C531FCE5DF0709F485C068F4C3319CE550
:1040A000D90709F475C008F095C00E943D0B8091B6
:1040B0000B048F77AFC0CC3FFCE5DF07A9F108F018
:1040C00054C0CB3FDC4509F0A7C080910C0440C030
:1040D000C230EDE5DE0709F489C058F4C1158DE55D
:1040E000D80709F45AC008F069C080910C048260B6
:1040F0002FC0C236EDE5DE0709F47CC0C63AFDE507
:10410000DF0709F481C0C330DD4509F085C080E0D8
:104110006EC080910B0482607DC080910B0416C03C
:1041200080910B04886076C080910C0482604FC03F
:1041300080910B0480626EC080910B0480646AC021
:104140000E943D0B80910B04806864C0846062C053
:1041500081603DC080910B048E7F5CC080910B0418
:104160008D7F58C080910B0416C080910C0418C03C
:1041700080910C048D7F2BC080910B048F7E4AC0F0
:1041800080910B048F7D46C080910B048F7B42C0D1
:1041900080910B04877F8B7F3DC080910C048D7FC5
:1041A0008E7F15C080910B0482FB222720F991E0BD
:1041B000922790FB82F990FB83F92CC080910C042C
:1041C000982F909591708E7F892B90FB81F9809329
:1041D0000C0422C00E943D0B80910B0487FB222718
:1041E00020F991E0922790FB87F914C081E00E94AA
:1041F000C41412C080910B0484FB222720F991E0A3
:10420000922790FB84F906C080910B04982F90951B
:1042100090FB80F980930B0480910B0490910C0427
:104220000E9434140E943D0B80E001C081E0DF91C8
:10423000CF910895CF93DF9386319C4541F5EB01F3
:104240000E942113982F8A8120917A0230917B025B
:10425000882379F09A7A81E009F480E08093EB0377
:10426000911102C069E201C065E3C9010E94D9252C
:104270000AC08091EB03811102C069E201C065E3CD
:10428000C9010E94DB250E94691380E001C081E022
:10429000DF91CF9108950F931F93CF93DF93C42F96
:1042A000D22FFC0182818823C9F04093EE030E9443
:1042B0007F269093ED038093EC0380E28C0F88308F
:1042C00008F057C0C77081E001C0880FCA95EAF7AF
:1042D000DF91CF911F910F910C94090B8091EE0308
:1042E000481330C08091EC039091ED030E94972613
:1042F000803F910538F510E21D0FCD17B9F080E22F
:104300008C0F883040F4C77081E001C0880FCA95D7
:10431000EAF70E94100B183028F581E09D2F977066
:1043200001C0880F9A95EAF70E94090B802F0E941E
:10433000000B1830F0F4D77081E001C0880FDA95D7
:10434000EAF70AC080E28C0F883098F4C77081E0E9
:1043500001C0880FCA95EAF7DF91CF911F910F91A5
:104360000C94100B802FDF91CF911F910F910C9423
:10437000000BDF91CF911F910F9108950F939C0136
:10438000CB01243F4CE5340731F188F4293DFCE5AD
:104390003F07D9F02A3D4CE5340779F1283D3C45EB
:1043A000A9F506E221EE41EE68ED7CE52BC0263F43
:1043B000FCE53F07E1F0A8F0273F3C4539F507E26F
:1043C00025EE46EE67EF7CE51DC007E225EE45EEE3
:1043D00069ED7CE517C006E221EE40EE64EF7CE576
:1043E00011C007E225EE44EE65EF7CE50BC006E266
:1043F00021EE42EE66EF7CE505C008E221E045EEE5
:104400006AED7CE50E944B2180E008C0FC018281BE
:10441000882319F01092EE0301C081E00F910895F6
:10442000CF93DF93EC0181E0898B8F810E9424136D
:1044300088850E943A130E946913EA81FB81CE01AC
:104440000696309729F06C897D89DF91CF91099488
:10445000DF91CF910895EF92FF920F931F93CF9327
:10446000DF93FC012285211136C0EC01E380F4804A
:10447000F7E5FF1A26E12E9DC0012F9D900D112416
:10448000DC01A050BF4F1496ED91FC9115978A5F07
:104490009E4F309729F054966D917C9155970995D0
:1044A00086E18E9D80018F9D100D112400501F4FBD
:1044B000F80187810E942A13F80180850E94401329
:1044C0000E946913188219861B861E821D82109213
:1044D000F0031092EF03DF91CF911F910F91FF90A6
:1044E000EF900895DF92EF92FF920F931F93CF9377
:1044F000DF93FB0122812223C1F12091B002309190
:10450000B1022F3F3F4F89F18C01C0E0D1E0E12C97
:10451000F12CDD24D3948091B0029091B1028E15DC
:104520009F051CF18E818823D9F089859A85801793
:10453000910739F48091EF039091F0030817190760
:1045400079F0DF861C870B878989811103C0CE0132
:104550000E941022CE0106960E942B220E94471331
:104560004FEFE41AF40A6696D6CFDF91CF911F91F0
:104570000F91FF90EF90DF900895EF92FF920F93CD
:104580001F93CF93DF939C0137552F3F310511F0D7
:1045900008F048C04091B0025091B1024217530751
:1045A00024F43093B1022093B002FB017C0182819C
:1045B00096E1929F8001939F100D1124E801C05055
:1045C000DF4F888B92818E81992311F1FA86E986DB
:1045D0008F5F8E830E947F269E878D870E944A135D
:1045E0008F830E94211388870E9437139885892B17
:1045F0008887E881F981C8018A5F9E4F309719F05A
:104600006C897D890995F092F003E092EF030AC06E
:10461000882341F08989882329F0C8018A5F9E4F49
:104620000E942B2281E0DF91CF911F910F91FF908B
:10463000EF900895CF92DF92EF92FF920F931F9326
:10464000CF93DF938091B0029091B1020196E9F18E
:10465000F12C96E1E92E0F2D10E08091B00290919F
:10466000B102801791078CF1E09EF001E19EF00D00
:104670001124E050FF4FC288D388C114D10419F42B
:1046800080EFC82ED12CE09EE001E19ED00D1124D8
:10469000C050DF4F8E818823B1F08D859E850E94AA
:1046A0009726C816D90678F48989811103C0CE01EE
:1046B0000E941022E09EC001E19E900D11248A5FAD
:1046C0009E4F0E942B22F394C6CFDF91CF911F9172
:1046D0000F91FF90EF90DF90CF9008958EE14A9B6D
:1046E00002C08150E1F74A9BFECF08955A9880E2BC
:1046F0008A95F1F75A9A0895FC012AE02A95F1F774
:1047000028E090E080E031E040E14A95F1F7880F41
:104710004A9B02C08160932700C0000040E14A9597
:10472000F1F7215089F720E12A95F1F729B100C06E
:10473000000030E13A95F1F722FB222720F9922779
:104740002081920F90830895EF92FF920F931F9311
:10475000CF93DF931F92CDB7DEB719828C017C0116
:10476000E60EF11C0E151F0551F00E946E23CE01BE
:1047700001960E947C23F80181938F01F3CF81E0A1
:104780009981911180E00F90DF91CF911F910F914E
:10479000FF90EF900895529A5A9A089552985A9A13
:1047A000EA9AE9E6F0E080818F7C80830895615089
:1047B00091E001C0990F6A95EAF720E031E0992372
:1047C00061F0492F482319F05A9A232701C05A98BB
:1047D00040E24A95F1F79695F2CF222311F05A9ACA
:1047E00001C05A9880E28A95F1F75A980895FF928D
:1047F0000F931F93CF93DF93EC018C01060F111DD4
:10480000C017D10741F0F9900E94762368E08F2D00
:104810000E94D723F5CFDF91CF911F910F91FF9089
:1048200008951F920F920FB60F9211240F931F93AA
:104830002F933F934F935F936F937F938F939F93A8
:10484000AF93BF93EF93FF93CF93DF931F92CDB7B7
:10485000DEB719820E946E23CE0101960E947C234E
:10486000082F069506950695902F96959570202F02
:104870002570920F292F237096959695920F877029
:1048800089135FC0898181115CC0043008F059C070
:1048900080E18A95F1F75A9A529A82E08A95F1F767
:1048A00000C05A9888E0089F80011124D801AF56B3
:1048B000BD4F1696ED91FC9117973097A9F0609136
:1048C00035037091360314962D913C911597260F60
:1048D000371F11968D919C911297680F791F13962F
:1048E0004C9113978C910995F801EF56FD4F638118
:1048F000662351F0809135039091360324813581F0
:10490000820F931F0E94F7230E94762380E18A95ED
:10491000F1F75A9852985A9A80E18A95F1F7F8017E
:10492000EF56FD4F6081662351F0809135039091E1
:10493000360321813281820F931F0E94A4230E949B
:104940006E230F90DF91CF91FF91EF91BF91AF91C7
:104950009F918F917F916F915F914F913F912F9197
:104960001F910F910F900FBE0F901F9018950F93EE
:104970001F93CF93DF93843091050CF06DC0EC0151
:10498000F894529A5A9885E08A95F1F700009C2F86
:10499000969595702C2F2570920F892F8370969580
:1049A000969523E0CC0FDD1F2A95E1F7980F8E0135
:1049B000092B0E94762384E08A95F1F700C068E015
:1049C000802F0E94D72380E18A95F1F752985A9A56
:1049D0004A9902C000C0FCCF87E090E04A9B08C023
:1049E000019721F4529A5A9A789436C000C0F6CFB3
:1049F000FE01EF56FD4F6381662381F08091350300
:104A00009091360324813581820F931F0E94A42345
:104A1000811104C0529A5A9A78941FC00E946E2342
:104A200080E28A95F1F75A98529A80E18A95F1F7D7
:104A3000CF56DD4F6881662351F080913503909108
:104A4000360329813A81820F931F0E94F7230E9427
:104A50007623789481E001C080E0DF91CF911F91AF
:104A60000F9108959093390380933803089590939C
:104A7000F7038093F60308950E94031A811103C07F
:104A80008091F1030895E091F603F091F7033097D8
:104A900021F00190F081E02D099480E008950E94BA
:104AA0003C250895E091F603F091F703309721F04B
:104AB0000280F381E02D09940895E091F603F091CE
:104AC000F703309739F022E0DC012C930480F58164
:104AD000E02D099408952091F4033091F5032817EF
:104AE000390771F09093F5038093F403E091F60396
:104AF000F091F703309721F00680F781E02D0994BB
:104B000008952091F2033091F3032817390771F0CB
:104B10009093F3038093F203E091F603F091F7038F
:104B2000309721F00084F185E02D09940895FC016F
:104B3000329697E080E0915029F021912223D9F319
:104B40008F5FF9CF0895662349F0FC0132960896ED
:104B50002191621729F0E817F907D1F780E008954D
:104B600081E008959C01FC0132969FEF80E0419125
:104B7000461789F09F3F19F4411101C0982F8F5FAC
:104B80008630A9F79F3F39F0F901E90FF11D97FD34
:104B9000FA956283089508959C012A5F3F4FFC01B6
:104BA0004281461301C01282019682179307B9F71A
:104BB00008950C94B2250C94CC25029626E0FC01B5
:104BC00011922A95E9F7089508950C94E42583E05D
:104BD0008093F8030C94E525811102C081E001C0A7
:104BE00082E08093F8030C94E5250C94EC2581E099
:104BF0008093F8030C94E5250C94F72508950C9404
:104C0000FE250C94FF250C94FE250C94FE250C9497
:104C1000FE25CF930E9405260E9476190E94032646
:104C2000C0E08C2F0E943A18811104C0CF5FC830B9
:104C3000C1F701C081E0CF91089508951F920F92AE
:104C40000FB60F9211248F939F93AF93BF938091D0
:104C5000F903811113C08091260490912704A0913B
:104C60002804B09129044196A11DB11D809326040A
:104C700090932704A0932804B0932904BF91AF9187
:104C80009F918F910F900FBE0F901F90189580915C
:104C90002E04843031F10E9459091092F90320E466
:104CA00088E190E00FB6F894A895809360000FBE5D
:104CB0002093600083B7817F846083BF83B7816066
:104CC00083BF7894889583B78E7F83BF0FB6F8949F
:104CD000A8958091600088618093600010926000C8
:104CE0000FBE08950E943D0B0C945D0982E084BDC7
:104CF00093E095BD9AEF97BD80936E0008952FB70E
:104D0000F8948091260490912704A0912804B091F2
:104D100029042FBF08952FB7F8946091260470914D
:104D2000270480912804909129042FBF08959C01A5
:104D30004FB7F8948091260490912704A0912804FD
:104D4000B09129044FBF821B930B0895CF92DF923D
:104D5000EF92FF922FB7F894C0902604D0902704CA
:104D6000E0902804F09029042FBFA7019601261B8C
:104D7000370B480B590BCA01B901FF90EF90DF9038
:104D8000CF90089578941F920F920FB60F9211242E
:104D90008F939F93AF93BF938091260490912704A4
:104DA000A0912804B09129040196A11DB11D809302
:104DB000260490932704A0932804B0932904BF915C
:104DC000AF919F918F910F900FBE0F901F901895EC
:104DD00087E797E790930108809300089AE088E1BD
:104DE0000FB6F894A895809360000FBE9093600072
:104DF000FFCF809105040895089522E02093E900F3
:104E00002FEF3091E800215035FD06C035ED3A9581
:104E1000F1F700002111F5CF2091E80025FF0BC02C
:104E200040E050E066E070E00E9427298091E800B1
:104E30008E778093E8000895CF93DF9321E020934D
:104E4000E9002FEF3091E800215035FD06C035ED27
:104E50003A95F1F700002111F5CF2091E80025FFE8
:104E600014C0EC0140E050E068E070E00E942729A7
:104E70008091E8008E778093E80088E0FE01ADEF36
:104E8000B3E001900D928A95E1F7DF91CF910895FB
:104E90008093FA037093FC036093FB0380912E04CC
:104EA000843001F582E08093E9008FEF9091E80073
:104EB000815095FD06C095ED9A95F1F7000081119E
:104EC000F5CF8091E80085FF0DC040E050E063E041
:104ED00070E08AEF93E00E9427298091E8008E77A6
:104EE0008093E8000895BC0184E00C944827BC013D
:104EF00083E00C94482780912D04811109C00E9401
:104F0000B82A0E94152B8091E20084608093E20011
:104F1000089510922D0408950C94FC2560912A04A4
:104F200081E0611101C080E00C94E72590912E048E
:104F300081E0943009F080E060912A040C94EC2523
:104F400042E061EC81E00E94312A42E261EC82E0C1
:104F50000E94312A90912E0481E0943009F080E083
:104F600060912A040C94F52580913004833009F473
:104F700061C030F4813071F0823009F49AC0089534
:104F80008A3009F486C08B3009F46CC0893009F08E
:104F9000A8C020C080912F04813A09F0A2C080915E
:104FA000E800877F8093E800809133049091340477
:104FB000892B21F468E08DEF93E003C060E080E08E
:104FC00090E070E00E9472298091E8008B778093D6
:104FD000E800089580912F04813209F082C0809109
:104FE000330490913404029708F07BC08091E8006C
:104FF000877F8093E8008091E80082FD05C0809162
:105000002E048111F8CF6DC02091F3008091F20041
:1050100090E0922B029731F48091F100813011F0F1
:10502000863021F48091F100809305048091E8009E
:105030008B7753C080912F04813A09F052C0809140
:10504000330490913404892B09F04BC08091E8001F
:10505000877F8093E8008091E80080FFFCCF8091FB
:10506000BE0236C080912F048132D9F5809133047D
:1050700090913404892BA9F58091E800877F809373
:10508000E8000E94662A809131048093BE020C944D
:105090003D0B80912F04813221F58091E800877FBC
:1050A0008093E8000E94662A80913204809306046F
:1050B000089580912F04813AA1F48091E800877FC0
:1050C0008093E8008091E80080FFFCCF8091060487
:1050D0008093F1008091E8008E778093E8000C9433
:1050E000662A089584B7877F84BF0FB6F894A89581
:1050F00080916000886180936000109260000FBE14
:1051000090E080E80FB6F89480936100909361007E
:105110000FBE0C94F7250E94B82A0E94152BE2EED0
:10512000F0E080818460808378940C94AA2D82EBD7
:1051300092E00C94372580912E048530A9F480915B
:105140002E04853079F40E94472680912C04882310
:10515000B1F30E940926882391F30E9411290E942D
:105160003D0BEDCF0C947226089508950C94B82849
:10517000292F332723303105C9F060F42130310560
:1051800081F02230310509F044C08BE390E022EF3A
:1051900032E043C021323105E1F02232310549F1DC
:1051A00038C082E190E02DE233E037C099278130AA
:1051B000910549F028F0029761F5E8ECF2E005C0AE
:1051C000EEEEF2E002C0E4EEF2E0849190E09F01A6
:1051D00024C06115710541F061307105D1F489E099
:1051E00090E02DE133E019C089E090E024E033E065
:1051F00014C06115710541F06130710551F48BE700
:1052000090E02FE333E009C080E490E02AEB33E044
:1052100004C080E090E020E030E0FA013183208398
:10522000089580E189BD82E189BD09B400FEFDCF0A
:105230008091D8008F7D8093D8008091E0008260BB
:105240008093E0008091E00081FDFCCF0895CF9233
:10525000DF92EF92FF920F931F93CF93DF93EC01B6
:105260008B017A010E94852A811133C0E114F10477
:1052700039F0F70180819181081B190BC80FD91FE4
:10528000C12CD12C0115110519F18091E80085FD83
:1052900016C08091E8008E778093E800E114F10455
:1052A00049F0F70180819181C80ED91ED182C08258
:1052B00085E00FC00E94852A882321F30AC08991C6
:1052C0008093F10001501109FFEFCF1ADF0ADACF06
:1052D00080E0DF91CF911F910F91FF90EF90DF90D1
:1052E000CF90089520913504309136042617370762
:1052F00048F06115710539F42091E8002E7720936C
:10530000E80001C0B901FC0120E06115710579F1E7
:1053100080912E048823F1F18530F1F18091E8002D
:1053200083FD3CC08091E80082FD2EC08091E800A2
:1053300080FFEBCF2091F3008091F20090E0922B60
:105340006115710551F08830910538F42191209351
:10535000F100615071090196F3CF21E0089709F03F
:1053600020E08091E8008E778093E800CECF211175
:10537000CFCF0AC080912E04882361F0853061F080
:105380008091E80083FD0AC08091E80082FFF2CF9F
:1053900080E0089582E0089583E0089581E0089513
:1053A00020913504309136042617370748F06115EF
:1053B000710539F42091E8002E772093E80001C0B0
:1053C000B901FC0120E06115710591F180912E0475
:1053D000882309F440C0853009F43FC08091E8007B
:1053E00083FD3DC08091E80082FD2FC08091E800E0
:1053F00080FFE9CF2091F3008091F20090E0922BA2
:105400006115710559F08830910540F4249120937D
:10541000F1003196615071090196F2CF21E00897B1
:1054200009F020E08091E8008E778093E800CBCFF0
:105430002111CCCF0AC080912E04882361F08530E1
:1054400061F08091E80083FD0AC08091E80082FF4E
:10545000F2CF80E0089582E0089583E0089581E02E
:105460000895982F973068F59093E900981739F0D0
:105470007091EC002091ED005091F00003C0242FBA
:10548000762F50E021FD02C09F5FECCF3091EB0002
:105490003E7F3093EB003091ED003D7F3093ED0087
:1054A0003091EB0031603093EB007093EC0020936F
:1054B000ED005093F0002091EE0027FDE5CF80E055
:1054C00008958F708093E90081E0089580912F0402
:1054D00087FF11C08091E80082FD05C080912E04F5
:1054E0008111F8CF11C08091E8008B770BC08091BB
:1054F0002E04882349F08091E80080FFF8CF809146
:10550000E8008E778093E80008952091E4003091C0
:10551000E50095E64091EC00842F817040FF23C0A8
:105520008091E80080FD1DC080912E04882399F0B1
:10553000853099F08091EB0085FD11C04091E40029
:105540005091E5002417350729F3915011F09A0185
:10555000E1CF84E0089582E0089583E0089581E03A
:10556000089580E008954091E80042FFDDCF08955E
:105570000E94262B0E942E2BE0EEF0E080818160BD
:105580008083E8EDF0E080818F77808319BCA7ED00
:10559000B0E08C918E7F8C9380818F7E808310927F
:1055A0002D0408950F931F93CF93DF930E94262B12
:1055B0000E942E2BC8EDD0E088818F778883888168
:1055C0008068888388818F7D888319BC10922E041F
:1055D00010922A0410922C0410922B0400EE10E07A
:1055E000F80180818B7F808388818160888342E09D
:1055F00060E080E00E94312AE1EEF0E080818E7F61
:105600008083E2EEF0E08081816080838081886029
:105610008083F80180818E7F808388818061888388
:10562000DF91CF911F910F910895E8EDF0E0808117
:105630008F7E8083E7EDF0E080818160808384E06D
:1056400082BF81E080932D040C94D22AE8EDF0E033
:1056500080818E7F80831092E20008951092DA009C
:105660001092E10008951F920F920FB60F9211242D
:105670002F933F934F935F936F937F938F939F935A
:10568000AF93BF93EF93FF938091E10082FF0BC034
:105690008091E20082FF07C08091E1008B7F8093C0
:1056A000E1000E94A92D8091DA0080FF1FC0809147
:1056B000D80080FF1BC08091DA008E7F8093DA00D3
:1056C0008091D90080FF0DC080E189BD82E189BD54
:1056D00009B400FEFDCF81E080932E040E947B2759
:1056E00005C019BC10922E040E9489278091E10008
:1056F00080FF19C08091E20080FF15C08091E20018
:105700008E7F8093E2008091E20080618093E200CE
:105710008091D80080628093D80019BC85E0809386
:105720002E040E948E278091E10084FF30C080917A
:10573000E20084FF2CC080E189BD82E189BD09B40B
:1057400000FEFDCF8091D8008F7D8093D80080919E
:10575000E1008F7E8093E1008091E2008F7E809354
:10576000E2008091E20081608093E20080912A044F
:10577000882311F084E007C08091E30087FD02C018
:1057800081E001C083E080932E040E9496278091DF
:10579000E10083FF29C08091E20083FF25C0809152
:1057A000E100877F8093E10082E080932E041092D5
:1057B0002A048091E1008E7F8093E1008091E200D5
:1057C0008E7F8093E2008091E20080618093E2000E
:1057D00042E060E080E00E94312A8091F000886021
:1057E0008093F0000E948C27FF91EF91BF91AF91C1
:1057F0009F918F917F916F915F914F913F912F91E9
:105800000F900FBE0F901F9018951F920F920FB61A
:105810000F9211242F933F934F935F936F937F9336
:105820008F939F93AF93BF93CF93DF93EF93FF93A8
:10583000C091E900CF708091EC00D82FD17080FD2D
:10584000D0E81092E9008091F000877F8093F0000B
:1058500078940E94492C1092E9008091F0008860B1
:105860008093F000CD2BCF70C093E900FF91EF91B2
:10587000DF91CF91BF91AF919F918F917F916F9168
:105880005F914F913F912F910F900FBE0F901F90FE
:1058900018951F93CF93DF93CDB7DEB7AA970FB6B6
:1058A000F894DEBF0FBECDBFEFE2F4E08091F100CF
:1058B000819324E0E733F207C9F70E94B42780916F
:1058C000E80083FF2EC180912F0490913004492F6E
:1058D00050E04A30510508F024C1FA01EE59FF4F5B
:1058E0000C94EB2D803821F0823809F01AC108C0E1
:1058F00080912B0490912C04992389F082600FC031
:10590000809133048F70873008F00BC18093E900D9
:105910008091EB0085FB882780F91092E900909137
:10592000E800977F9093E8008093F1001092F100D7
:10593000D1C0282F2D7F09F0F4C0882319F08230C0
:1059400061F0EFC080913104813009F0EAC09330FA
:1059500009F080E080932C042EC0809131048111E5
:105960002AC0809133048F702FEF280F263008F063
:10597000D8C08093E9002091EB0020FF1CC0933039
:1059800021F48091EB00806214C09091EB00906153
:105990009093EB0021E030E0A90102C0440F551FB5
:1059A0008A95E2F74093EA001092EA008091EB00BA
:1059B00088608093EB001092E9008091E800877F77
:1059C0008093E8000E94662AACC08111AAC01091A1
:1059D00031041F778091E3008078812B8093E3006E
:1059E0008091E800877F8093E8000E94662A80917A
:1059F000E80080FFFCCF8091E30080688093E300A3
:105A0000111102C082E001C083E080932E0489C09E
:105A10008058823008F085C0809131049091320422
:105A20008C3D53E0950779F583E08A838AE2898388
:105A30004FB7F894DE01139620E03EE051E2E32FE9
:105A4000F0E050935700E49120FF03C0E295EF701F
:105A50003F5FEF708E2F90E0EA3010F0C79601C0E4
:105A6000C0968D939D932F5F243149F74FBF80914E
:105A7000E800877F8093E8006AE270E0CE0101963B
:105A80000E94722916C06091330470913404AE01F3
:105A90004F5F5F4F0E94B628BC01892B09F441C0BB
:105AA0009091E800977F9093E80089819A810E9405
:105AB000D0298091E8008B778093E80032C080384D
:105AC00081F58091E800877F8093E80080912A0427
:105AD0008093F1008091E8008E7772CF811121C010
